{
	"contracts/insurence_sc.sol": {
		"InsuranceContract": {
			"abi": [
				{
					"inputs": [],
					"stateMutability": "nonpayable",
					"type": "constructor"
				},
				{
					"anonymous": false,
					"inputs": [
						{
							"indexed": true,
							"internalType": "address",
							"name": "policyholder",
							"type": "address"
						}
					],
					"name": "ClaimApproved",
					"type": "event"
				},
				{
					"anonymous": false,
					"inputs": [
						{
							"indexed": true,
							"internalType": "address",
							"name": "policyholder",
							"type": "address"
						},
						{
							"indexed": false,
							"internalType": "uint256",
							"name": "amount",
							"type": "uint256"
						}
					],
					"name": "ClaimPaid",
					"type": "event"
				},
				{
					"anonymous": false,
					"inputs": [
						{
							"indexed": true,
							"internalType": "address",
							"name": "policyholder",
							"type": "address"
						},
						{
							"indexed": false,
							"internalType": "uint256",
							"name": "amount",
							"type": "uint256"
						},
						{
							"indexed": false,
							"internalType": "string",
							"name": "reason",
							"type": "string"
						}
					],
					"name": "ClaimSubmitted",
					"type": "event"
				},
				{
					"anonymous": false,
					"inputs": [
						{
							"indexed": true,
							"internalType": "address",
							"name": "policyholder",
							"type": "address"
						},
						{
							"indexed": false,
							"internalType": "uint256",
							"name": "premium",
							"type": "uint256"
						},
						{
							"indexed": false,
							"internalType": "uint256",
							"name": "coverage",
							"type": "uint256"
						},
						{
							"indexed": false,
							"internalType": "uint256",
							"name": "duration",
							"type": "uint256"
						}
					],
					"name": "PolicyIssued",
					"type": "event"
				},
				{
					"anonymous": false,
					"inputs": [
						{
							"indexed": true,
							"internalType": "address",
							"name": "policyholder",
							"type": "address"
						},
						{
							"indexed": false,
							"internalType": "uint256",
							"name": "amount",
							"type": "uint256"
						}
					],
					"name": "PremiumPaid",
					"type": "event"
				},
				{
					"inputs": [
						{
							"internalType": "address",
							"name": "_policyholder",
							"type": "address"
						},
						{
							"internalType": "uint256",
							"name": "_claimIndex",
							"type": "uint256"
						}
					],
					"name": "approveClaim",
					"outputs": [],
					"stateMutability": "nonpayable",
					"type": "function"
				},
				{
					"inputs": [
						{
							"internalType": "address",
							"name": "",
							"type": "address"
						},
						{
							"internalType": "uint256",
							"name": "",
							"type": "uint256"
						}
					],
					"name": "claims",
					"outputs": [
						{
							"internalType": "uint256",
							"name": "amount",
							"type": "uint256"
						},
						{
							"internalType": "string",
							"name": "reason",
							"type": "string"
						},
						{
							"internalType": "bool",
							"name": "approved",
							"type": "bool"
						},
						{
							"internalType": "bool",
							"name": "paid",
							"type": "bool"
						}
					],
					"stateMutability": "view",
					"type": "function"
				},
				{
					"inputs": [],
					"name": "insurer",
					"outputs": [
						{
							"internalType": "address",
							"name": "",
							"type": "address"
						}
					],
					"stateMutability": "view",
					"type": "function"
				},
				{
					"inputs": [
						{
							"internalType": "address",
							"name": "_policyholder",
							"type": "address"
						}
					],
					"name": "isPolicyActive",
					"outputs": [
						{
							"internalType": "bool",
							"name": "",
							"type": "bool"
						}
					],
					"stateMutability": "view",
					"type": "function"
				},
				{
					"inputs": [
						{
							"internalType": "address",
							"name": "_policyholder",
							"type": "address"
						},
						{
							"internalType": "uint256",
							"name": "_premium",
							"type": "uint256"
						},
						{
							"internalType": "uint256",
							"name": "_coverage",
							"type": "uint256"
						},
						{
							"internalType": "uint256",
							"name": "_duration",
							"type": "uint256"
						}
					],
					"name": "issuePolicy",
					"outputs": [],
					"stateMutability": "nonpayable",
					"type": "function"
				},
				{
					"inputs": [
						{
							"internalType": "address payable",
							"name": "_policyholder",
							"type": "address"
						},
						{
							"internalType": "uint256",
							"name": "_claimIndex",
							"type": "uint256"
						}
					],
					"name": "payClaim",
					"outputs": [],
					"stateMutability": "nonpayable",
					"type": "function"
				},
				{
					"inputs": [],
					"name": "payPremium",
					"outputs": [],
					"stateMutability": "payable",
					"type": "function"
				},
				{
					"inputs": [
						{
							"internalType": "address",
							"name": "",
							"type": "address"
						}
					],
					"name": "policies",
					"outputs": [
						{
							"internalType": "address",
							"name": "policyholder",
							"type": "address"
						},
						{
							"internalType": "uint256",
							"name": "premium",
							"type": "uint256"
						},
						{
							"internalType": "uint256",
							"name": "coverage",
							"type": "uint256"
						},
						{
							"internalType": "uint256",
							"name": "duration",
							"type": "uint256"
						},
						{
							"internalType": "uint256",
							"name": "startTime",
							"type": "uint256"
						},
						{
							"internalType": "bool",
							"name": "active",
							"type": "bool"
						}
					],
					"stateMutability": "view",
					"type": "function"
				},
				{
					"inputs": [
						{
							"internalType": "uint256",
							"name": "_amount",
							"type": "uint256"
						},
						{
							"internalType": "string",
							"name": "_reason",
							"type": "string"
						}
					],
					"name": "submitClaim",
					"outputs": [],
					"stateMutability": "nonpayable",
					"type": "function"
				}
			],
			"devdoc": {
				"kind": "dev",
				"methods": {},
				"version": 1
			},
			"evm": {
				"assembly": "    /* \"contracts/insurence_sc.sol\":60:3218  contract InsuranceContract {... */\n  mstore(0x40, 0x80)\n    /* \"contracts/insurence_sc.sol\":1097:1150  constructor() {... */\n  callvalue\n  dup1\n  iszero\n  tag_1\n  jumpi\n  0x00\n  dup1\n  revert\ntag_1:\n  pop\n    /* \"contracts/insurence_sc.sol\":1132:1142  msg.sender */\n  caller\n    /* \"contracts/insurence_sc.sol\":1122:1129  insurer */\n  0x00\n  dup1\n    /* \"contracts/insurence_sc.sol\":1122:1142  insurer = msg.sender */\n  0x0100\n  exp\n  dup2\n  sload\n  dup2\n  0xffffffffffffffffffffffffffffffffffffffff\n  mul\n  not\n  and\n  swap1\n  dup4\n  0xffffffffffffffffffffffffffffffffffffffff\n  and\n  mul\n  or\n  swap1\n  sstore\n  pop\n    /* \"contracts/insurence_sc.sol\":60:3218  contract InsuranceContract {... */\n  dataSize(sub_0)\n  dup1\n  dataOffset(sub_0)\n  0x00\n  codecopy\n  0x00\n  return\nstop\n\nsub_0: assembly {\n        /* \"contracts/insurence_sc.sol\":60:3218  contract InsuranceContract {... */\n      mstore(0x40, 0x80)\n      jumpi(tag_1, lt(calldatasize, 0x04))\n      shr(0xe0, calldataload(0x00))\n      dup1\n      0xa0b08cfa\n      gt\n      tag_11\n      jumpi\n      dup1\n      0xa0b08cfa\n      eq\n      tag_6\n      jumpi\n      dup1\n      0xab541a85\n      eq\n      tag_7\n      jumpi\n      dup1\n      0xdbc837c5\n      eq\n      tag_8\n      jumpi\n      dup1\n      0xe52223bb\n      eq\n      tag_9\n      jumpi\n      dup1\n      0xf2ad7908\n      eq\n      tag_10\n      jumpi\n      jump(tag_1)\n    tag_11:\n      dup1\n      0x20e98698\n      eq\n      tag_2\n      jumpi\n      dup1\n      0x29c08ba2\n      eq\n      tag_3\n      jumpi\n      dup1\n      0x45b46525\n      eq\n      tag_4\n      jumpi\n      dup1\n      0x50802e3f\n      eq\n      tag_5\n      jumpi\n    tag_1:\n      0x00\n      dup1\n      revert\n        /* \"contracts/insurence_sc.sol\":496:538  mapping(address => Policy) public policies */\n    tag_2:\n      callvalue\n      dup1\n      iszero\n      tag_12\n      jumpi\n      0x00\n      dup1\n      revert\n    tag_12:\n      pop\n      tag_13\n      0x04\n      dup1\n      calldatasize\n      sub\n      dup2\n      add\n      swap1\n      tag_14\n      swap2\n      swap1\n      tag_15\n      jump\t// in\n    tag_14:\n      tag_16\n      jump\t// in\n    tag_13:\n      mload(0x40)\n      tag_17\n      swap7\n      swap6\n      swap5\n      swap4\n      swap3\n      swap2\n      swap1\n      tag_18\n      jump\t// in\n    tag_17:\n      mload(0x40)\n      dup1\n      swap2\n      sub\n      swap1\n      return\n        /* \"contracts/insurence_sc.sol\":1483:1847  function payPremium() external payable {... */\n    tag_3:\n      tag_19\n      tag_20\n      jump\t// in\n    tag_19:\n      stop\n        /* \"contracts/insurence_sc.sol\":2093:2506  function submitClaim(uint256 _amount, string calldata _reason) external {... */\n    tag_4:\n      callvalue\n      dup1\n      iszero\n      tag_21\n      jumpi\n      0x00\n      dup1\n      revert\n    tag_21:\n      pop\n      tag_22\n      0x04\n      dup1\n      calldatasize\n      sub\n      dup2\n      add\n      swap1\n      tag_23\n      swap2\n      swap1\n      tag_24\n      jump\t// in\n    tag_23:\n      tag_25\n      jump\t// in\n    tag_22:\n      stop\n        /* \"contracts/insurence_sc.sol\":2807:3215  function payClaim(address payable _policyholder, uint256 _claimIndex) external onlyInsurer {... */\n    tag_5:\n      callvalue\n      dup1\n      iszero\n      tag_26\n      jumpi\n      0x00\n      dup1\n      revert\n    tag_26:\n      pop\n      tag_27\n      0x04\n      dup1\n      calldatasize\n      sub\n      dup2\n      add\n      swap1\n      tag_28\n      swap2\n      swap1\n      tag_29\n      jump\t// in\n    tag_28:\n      tag_30\n      jump\t// in\n    tag_27:\n      stop\n        /* \"contracts/insurence_sc.sol\":1158:1475  function issuePolicy(address _policyholder, uint256 _premium, uint256 _coverage, uint256 _duration) external onlyInsurer {... */\n    tag_6:\n      callvalue\n      dup1\n      iszero\n      tag_31\n      jumpi\n      0x00\n      dup1\n      revert\n    tag_31:\n      pop\n      tag_32\n      0x04\n      dup1\n      calldatasize\n      sub\n      dup2\n      add\n      swap1\n      tag_33\n      swap2\n      swap1\n      tag_34\n      jump\t// in\n    tag_33:\n      tag_35\n      jump\t// in\n    tag_32:\n      stop\n        /* \"contracts/insurence_sc.sol\":545:586  mapping(address => Claim[]) public claims */\n    tag_7:\n      callvalue\n      dup1\n      iszero\n      tag_36\n      jumpi\n      0x00\n      dup1\n      revert\n    tag_36:\n      pop\n      tag_37\n      0x04\n      dup1\n      calldatasize\n      sub\n      dup2\n      add\n      swap1\n      tag_38\n      swap2\n      swap1\n      tag_39\n      jump\t// in\n    tag_38:\n      tag_40\n      jump\t// in\n    tag_37:\n      mload(0x40)\n      tag_41\n      swap5\n      swap4\n      swap3\n      swap2\n      swap1\n      tag_42\n      jump\t// in\n    tag_41:\n      mload(0x40)\n      dup1\n      swap2\n      sub\n      swap1\n      return\n        /* \"contracts/insurence_sc.sol\":94:116  address public insurer */\n    tag_8:\n      callvalue\n      dup1\n      iszero\n      tag_43\n      jumpi\n      0x00\n      dup1\n      revert\n    tag_43:\n      pop\n      tag_44\n      tag_45\n      jump\t// in\n    tag_44:\n      mload(0x40)\n      tag_46\n      swap2\n      swap1\n      tag_47\n      jump\t// in\n    tag_46:\n      mload(0x40)\n      dup1\n      swap2\n      sub\n      swap1\n      return\n        /* \"contracts/insurence_sc.sol\":1855:2085  function isPolicyActive(address _policyholder) public view returns (bool) {... */\n    tag_9:\n      callvalue\n      dup1\n      iszero\n      tag_48\n      jumpi\n      0x00\n      dup1\n      revert\n    tag_48:\n      pop\n      tag_49\n      0x04\n      dup1\n      calldatasize\n      sub\n      dup2\n      add\n      swap1\n      tag_50\n      swap2\n      swap1\n      tag_15\n      jump\t// in\n    tag_50:\n      tag_51\n      jump\t// in\n    tag_49:\n      mload(0x40)\n      tag_52\n      swap2\n      swap1\n      tag_53\n      jump\t// in\n    tag_52:\n      mload(0x40)\n      dup1\n      swap2\n      sub\n      swap1\n      return\n        /* \"contracts/insurence_sc.sol\":2514:2799  function approveClaim(address _policyholder, uint256 _claimIndex) external onlyInsurer {... */\n    tag_10:\n      callvalue\n      dup1\n      iszero\n      tag_54\n      jumpi\n      0x00\n      dup1\n      revert\n    tag_54:\n      pop\n      tag_55\n      0x04\n      dup1\n      calldatasize\n      sub\n      dup2\n      add\n      swap1\n      tag_56\n      swap2\n      swap1\n      tag_39\n      jump\t// in\n    tag_56:\n      tag_57\n      jump\t// in\n    tag_55:\n      stop\n        /* \"contracts/insurence_sc.sol\":496:538  mapping(address => Policy) public policies */\n    tag_16:\n      mstore(0x20, 0x01)\n      dup1\n      0x00\n      mstore\n      keccak256(0x00, 0x40)\n      0x00\n      swap2\n      pop\n      swap1\n      pop\n      dup1\n      0x00\n      add\n      0x00\n      swap1\n      sload\n      swap1\n      0x0100\n      exp\n      swap1\n      div\n      0xffffffffffffffffffffffffffffffffffffffff\n      and\n      swap1\n      dup1\n      0x01\n      add\n      sload\n      swap1\n      dup1\n      0x02\n      add\n      sload\n      swap1\n      dup1\n      0x03\n      add\n      sload\n      swap1\n      dup1\n      0x04\n      add\n      sload\n      swap1\n      dup1\n      0x05\n      add\n      0x00\n      swap1\n      sload\n      swap1\n      0x0100\n      exp\n      swap1\n      div\n      0xff\n      and\n      swap1\n      pop\n      dup7\n      jump\t// out\n        /* \"contracts/insurence_sc.sol\":1483:1847  function payPremium() external payable {... */\n    tag_20:\n        /* \"contracts/insurence_sc.sol\":1533:1554  Policy storage policy */\n      0x00\n        /* \"contracts/insurence_sc.sol\":1557:1565  policies */\n      0x01\n        /* \"contracts/insurence_sc.sol\":1557:1577  policies[msg.sender] */\n      0x00\n        /* \"contracts/insurence_sc.sol\":1566:1576  msg.sender */\n      caller\n        /* \"contracts/insurence_sc.sol\":1557:1577  policies[msg.sender] */\n      0xffffffffffffffffffffffffffffffffffffffff\n      and\n      0xffffffffffffffffffffffffffffffffffffffff\n      and\n      dup2\n      mstore\n      0x20\n      add\n      swap1\n      dup2\n      mstore\n      0x20\n      add\n      0x00\n      keccak256\n        /* \"contracts/insurence_sc.sol\":1533:1577  Policy storage policy = policies[msg.sender] */\n      swap1\n      pop\n        /* \"contracts/insurence_sc.sol\":1596:1602  policy */\n      dup1\n        /* \"contracts/insurence_sc.sol\":1596:1609  policy.active */\n      0x05\n      add\n      0x00\n      swap1\n      sload\n      swap1\n      0x0100\n      exp\n      swap1\n      div\n      0xff\n      and\n        /* \"contracts/insurence_sc.sol\":1588:1629  require(policy.active, \"Policy inactive\") */\n      tag_59\n      jumpi\n      mload(0x40)\n      0x08c379a000000000000000000000000000000000000000000000000000000000\n      dup2\n      mstore\n      0x04\n      add\n      tag_60\n      swap1\n      tag_61\n      jump\t// in\n    tag_60:\n      mload(0x40)\n      dup1\n      swap2\n      sub\n      swap1\n      revert\n    tag_59:\n        /* \"contracts/insurence_sc.sol\":1685:1691  policy */\n      dup1\n        /* \"contracts/insurence_sc.sol\":1685:1700  policy.duration */\n      0x03\n      add\n      sload\n        /* \"contracts/insurence_sc.sol\":1666:1672  policy */\n      dup2\n        /* \"contracts/insurence_sc.sol\":1666:1682  policy.startTime */\n      0x04\n      add\n      sload\n        /* \"contracts/insurence_sc.sol\":1666:1700  policy.startTime + policy.duration */\n      tag_62\n      swap2\n      swap1\n      tag_63\n      jump\t// in\n    tag_62:\n        /* \"contracts/insurence_sc.sol\":1648:1663  block.timestamp */\n      timestamp\n        /* \"contracts/insurence_sc.sol\":1648:1700  block.timestamp < policy.startTime + policy.duration */\n      lt\n        /* \"contracts/insurence_sc.sol\":1640:1719  require(block.timestamp < policy.startTime + policy.duration, \"Policy expired\") */\n      tag_64\n      jumpi\n      mload(0x40)\n      0x08c379a000000000000000000000000000000000000000000000000000000000\n      dup2\n      mstore\n      0x04\n      add\n      tag_65\n      swap1\n      tag_66\n      jump\t// in\n    tag_65:\n      mload(0x40)\n      dup1\n      swap2\n      sub\n      swap1\n      revert\n    tag_64:\n        /* \"contracts/insurence_sc.sol\":1751:1757  policy */\n      dup1\n        /* \"contracts/insurence_sc.sol\":1751:1765  policy.premium */\n      0x01\n      add\n      sload\n        /* \"contracts/insurence_sc.sol\":1738:1747  msg.value */\n      callvalue\n        /* \"contracts/insurence_sc.sol\":1738:1765  msg.value == policy.premium */\n      eq\n        /* \"contracts/insurence_sc.sol\":1730:1787  require(msg.value == policy.premium, \"Incorrect premium\") */\n      tag_67\n      jumpi\n      mload(0x40)\n      0x08c379a000000000000000000000000000000000000000000000000000000000\n      dup2\n      mstore\n      0x04\n      add\n      tag_68\n      swap1\n      tag_69\n      jump\t// in\n    tag_68:\n      mload(0x40)\n      dup1\n      swap2\n      sub\n      swap1\n      revert\n    tag_67:\n        /* \"contracts/insurence_sc.sol\":1817:1827  msg.sender */\n      caller\n        /* \"contracts/insurence_sc.sol\":1805:1839  PremiumPaid(msg.sender, msg.value) */\n      0xffffffffffffffffffffffffffffffffffffffff\n      and\n      0xa21795436a9f6a3b412fd6780f01a49907f2181e76e938496b0a41991d99b61c\n        /* \"contracts/insurence_sc.sol\":1829:1838  msg.value */\n      callvalue\n        /* \"contracts/insurence_sc.sol\":1805:1839  PremiumPaid(msg.sender, msg.value) */\n      mload(0x40)\n      tag_70\n      swap2\n      swap1\n      tag_71\n      jump\t// in\n    tag_70:\n      mload(0x40)\n      dup1\n      swap2\n      sub\n      swap1\n      log2\n        /* \"contracts/insurence_sc.sol\":1522:1847  {... */\n      pop\n        /* \"contracts/insurence_sc.sol\":1483:1847  function payPremium() external payable {... */\n      jump\t// out\n        /* \"contracts/insurence_sc.sol\":2093:2506  function submitClaim(uint256 _amount, string calldata _reason) external {... */\n    tag_25:\n        /* \"contracts/insurence_sc.sol\":2176:2196  Policy memory policy */\n      0x00\n        /* \"contracts/insurence_sc.sol\":2199:2207  policies */\n      0x01\n        /* \"contracts/insurence_sc.sol\":2199:2219  policies[msg.sender] */\n      0x00\n        /* \"contracts/insurence_sc.sol\":2208:2218  msg.sender */\n      caller\n        /* \"contracts/insurence_sc.sol\":2199:2219  policies[msg.sender] */\n      0xffffffffffffffffffffffffffffffffffffffff\n      and\n      0xffffffffffffffffffffffffffffffffffffffff\n      and\n      dup2\n      mstore\n      0x20\n      add\n      swap1\n      dup2\n      mstore\n      0x20\n      add\n      0x00\n      keccak256\n        /* \"contracts/insurence_sc.sol\":2176:2219  Policy memory policy = policies[msg.sender] */\n      mload(0x40)\n      dup1\n      0xc0\n      add\n      0x40\n      mstore\n      swap1\n      dup2\n      0x00\n      dup3\n      add\n      0x00\n      swap1\n      sload\n      swap1\n      0x0100\n      exp\n      swap1\n      div\n      0xffffffffffffffffffffffffffffffffffffffff\n      and\n      0xffffffffffffffffffffffffffffffffffffffff\n      and\n      0xffffffffffffffffffffffffffffffffffffffff\n      and\n      dup2\n      mstore\n      0x20\n      add\n      0x01\n      dup3\n      add\n      sload\n      dup2\n      mstore\n      0x20\n      add\n      0x02\n      dup3\n      add\n      sload\n      dup2\n      mstore\n      0x20\n      add\n      0x03\n      dup3\n      add\n      sload\n      dup2\n      mstore\n      0x20\n      add\n      0x04\n      dup3\n      add\n      sload\n      dup2\n      mstore\n      0x20\n      add\n      0x05\n      dup3\n      add\n      0x00\n      swap1\n      sload\n      swap1\n      0x0100\n      exp\n      swap1\n      div\n      0xff\n      and\n      iszero\n      iszero\n      iszero\n      iszero\n      dup2\n      mstore\n      pop\n      pop\n      swap1\n      pop\n        /* \"contracts/insurence_sc.sol\":2238:2244  policy */\n      dup1\n        /* \"contracts/insurence_sc.sol\":2238:2251  policy.active */\n      0xa0\n      add\n      mload\n        /* \"contracts/insurence_sc.sol\":2230:2271  require(policy.active, \"Policy inactive\") */\n      tag_73\n      jumpi\n      mload(0x40)\n      0x08c379a000000000000000000000000000000000000000000000000000000000\n      dup2\n      mstore\n      0x04\n      add\n      tag_74\n      swap1\n      tag_61\n      jump\t// in\n    tag_74:\n      mload(0x40)\n      dup1\n      swap2\n      sub\n      swap1\n      revert\n    tag_73:\n        /* \"contracts/insurence_sc.sol\":2328:2334  policy */\n      dup1\n        /* \"contracts/insurence_sc.sol\":2328:2343  policy.duration */\n      0x60\n      add\n      mload\n        /* \"contracts/insurence_sc.sol\":2309:2315  policy */\n      dup2\n        /* \"contracts/insurence_sc.sol\":2309:2325  policy.startTime */\n      0x80\n      add\n      mload\n        /* \"contracts/insurence_sc.sol\":2309:2343  policy.startTime + policy.duration */\n      tag_75\n      swap2\n      swap1\n      tag_63\n      jump\t// in\n    tag_75:\n        /* \"contracts/insurence_sc.sol\":2290:2305  block.timestamp */\n      timestamp\n        /* \"contracts/insurence_sc.sol\":2290:2344  block.timestamp < (policy.startTime + policy.duration) */\n      lt\n        /* \"contracts/insurence_sc.sol\":2282:2363  require(block.timestamp < (policy.startTime + policy.duration), \"Policy expired\") */\n      tag_76\n      jumpi\n      mload(0x40)\n      0x08c379a000000000000000000000000000000000000000000000000000000000\n      dup2\n      mstore\n      0x04\n      add\n      tag_77\n      swap1\n      tag_66\n      jump\t// in\n    tag_77:\n      mload(0x40)\n      dup1\n      swap2\n      sub\n      swap1\n      revert\n    tag_76:\n        /* \"contracts/insurence_sc.sol\":2376:2382  claims */\n      0x02\n        /* \"contracts/insurence_sc.sol\":2376:2394  claims[msg.sender] */\n      0x00\n        /* \"contracts/insurence_sc.sol\":2383:2393  msg.sender */\n      caller\n        /* \"contracts/insurence_sc.sol\":2376:2394  claims[msg.sender] */\n      0xffffffffffffffffffffffffffffffffffffffff\n      and\n      0xffffffffffffffffffffffffffffffffffffffff\n      and\n      dup2\n      mstore\n      0x20\n      add\n      swap1\n      dup2\n      mstore\n      0x20\n      add\n      0x00\n      keccak256\n        /* \"contracts/insurence_sc.sol\":2400:2437  Claim(_amount, _reason, false, false) */\n      mload(0x40)\n      dup1\n      0x80\n      add\n      0x40\n      mstore\n      dup1\n        /* \"contracts/insurence_sc.sol\":2406:2413  _amount */\n      dup7\n        /* \"contracts/insurence_sc.sol\":2400:2437  Claim(_amount, _reason, false, false) */\n      dup2\n      mstore\n      0x20\n      add\n        /* \"contracts/insurence_sc.sol\":2415:2422  _reason */\n      dup6\n      dup6\n        /* \"contracts/insurence_sc.sol\":2400:2437  Claim(_amount, _reason, false, false) */\n      dup1\n      dup1\n      0x1f\n      add\n      0x20\n      dup1\n      swap2\n      div\n      mul\n      0x20\n      add\n      mload(0x40)\n      swap1\n      dup2\n      add\n      0x40\n      mstore\n      dup1\n      swap4\n      swap3\n      swap2\n      swap1\n      dup2\n      dup2\n      mstore\n      0x20\n      add\n      dup4\n      dup4\n      dup1\n      dup3\n      dup5\n      calldatacopy\n      0x00\n      dup2\n      dup5\n      add\n      mstore\n      not(0x1f)\n      0x1f\n      dup3\n      add\n      and\n      swap1\n      pop\n      dup1\n      dup4\n      add\n      swap3\n      pop\n      pop\n      pop\n      pop\n      pop\n      pop\n      pop\n      dup2\n      mstore\n      0x20\n      add\n        /* \"contracts/insurence_sc.sol\":2424:2429  false */\n      0x00\n        /* \"contracts/insurence_sc.sol\":2400:2437  Claim(_amount, _reason, false, false) */\n      iszero\n      iszero\n      dup2\n      mstore\n      0x20\n      add\n        /* \"contracts/insurence_sc.sol\":2431:2436  false */\n      0x00\n        /* \"contracts/insurence_sc.sol\":2400:2437  Claim(_amount, _reason, false, false) */\n      iszero\n      iszero\n      dup2\n      mstore\n      pop\n        /* \"contracts/insurence_sc.sol\":2376:2438  claims[msg.sender].push(Claim(_amount, _reason, false, false)) */\n      swap1\n      dup1\n      0x01\n      dup2\n      sload\n      add\n      dup1\n      dup3\n      sstore\n      dup1\n      swap2\n      pop\n      pop\n      0x01\n      swap1\n      sub\n      swap1\n      0x00\n      mstore\n      keccak256(0x00, 0x20)\n      swap1\n      0x03\n      mul\n      add\n      0x00\n      swap1\n      swap2\n      swap1\n      swap2\n      swap1\n      swap2\n      pop\n      0x00\n      dup3\n      add\n      mload\n      dup2\n      0x00\n      add\n      sstore\n      0x20\n      dup3\n      add\n      mload\n      dup2\n      0x01\n      add\n      swap1\n      dup2\n      tag_79\n      swap2\n      swap1\n      tag_80\n      jump\t// in\n    tag_79:\n      pop\n      0x40\n      dup3\n      add\n      mload\n      dup2\n      0x02\n      add\n      exp(0x0100, 0x00)\n      dup2\n      sload\n      dup2\n      0xff\n      mul\n      not\n      and\n      swap1\n      dup4\n      iszero\n      iszero\n      mul\n      or\n      swap1\n      sstore\n      pop\n      0x60\n      dup3\n      add\n      mload\n      dup2\n      0x02\n      add\n      exp(0x0100, 0x01)\n      dup2\n      sload\n      dup2\n      0xff\n      mul\n      not\n      and\n      swap1\n      dup4\n      iszero\n      iszero\n      mul\n      or\n      swap1\n      sstore\n      pop\n      pop\n      pop\n        /* \"contracts/insurence_sc.sol\":2469:2479  msg.sender */\n      caller\n        /* \"contracts/insurence_sc.sol\":2454:2498  ClaimSubmitted(msg.sender, _amount, _reason) */\n      0xffffffffffffffffffffffffffffffffffffffff\n      and\n      0xed2a4bd7266fcc54ee2f031542ea6e3830c4e013441bfb0c8969898456c7c6df\n        /* \"contracts/insurence_sc.sol\":2481:2488  _amount */\n      dup6\n        /* \"contracts/insurence_sc.sol\":2490:2497  _reason */\n      dup6\n      dup6\n        /* \"contracts/insurence_sc.sol\":2454:2498  ClaimSubmitted(msg.sender, _amount, _reason) */\n      mload(0x40)\n      tag_81\n      swap4\n      swap3\n      swap2\n      swap1\n      tag_82\n      jump\t// in\n    tag_81:\n      mload(0x40)\n      dup1\n      swap2\n      sub\n      swap1\n      log2\n        /* \"contracts/insurence_sc.sol\":2165:2506  {... */\n      pop\n        /* \"contracts/insurence_sc.sol\":2093:2506  function submitClaim(uint256 _amount, string calldata _reason) external {... */\n      pop\n      pop\n      pop\n      jump\t// out\n        /* \"contracts/insurence_sc.sol\":2807:3215  function payClaim(address payable _policyholder, uint256 _claimIndex) external onlyInsurer {... */\n    tag_30:\n        /* \"contracts/insurence_sc.sol\":1043:1050  insurer */\n      0x00\n      dup1\n      sload\n      swap1\n      0x0100\n      exp\n      swap1\n      div\n      0xffffffffffffffffffffffffffffffffffffffff\n      and\n        /* \"contracts/insurence_sc.sol\":1029:1050  msg.sender == insurer */\n      0xffffffffffffffffffffffffffffffffffffffff\n      and\n        /* \"contracts/insurence_sc.sol\":1029:1039  msg.sender */\n      caller\n        /* \"contracts/insurence_sc.sol\":1029:1050  msg.sender == insurer */\n      0xffffffffffffffffffffffffffffffffffffffff\n      and\n      eq\n        /* \"contracts/insurence_sc.sol\":1021:1069  require(msg.sender == insurer, \"Not authorized\") */\n      tag_84\n      jumpi\n      mload(0x40)\n      0x08c379a000000000000000000000000000000000000000000000000000000000\n      dup2\n      mstore\n      0x04\n      add\n      tag_85\n      swap1\n      tag_86\n      jump\t// in\n    tag_85:\n      mload(0x40)\n      dup1\n      swap2\n      sub\n      swap1\n      revert\n    tag_84:\n        /* \"contracts/insurence_sc.sol\":2909:2928  Claim storage claim */\n      0x00\n        /* \"contracts/insurence_sc.sol\":2931:2937  claims */\n      0x02\n        /* \"contracts/insurence_sc.sol\":2931:2952  claims[_policyholder] */\n      0x00\n        /* \"contracts/insurence_sc.sol\":2938:2951  _policyholder */\n      dup5\n        /* \"contracts/insurence_sc.sol\":2931:2952  claims[_policyholder] */\n      0xffffffffffffffffffffffffffffffffffffffff\n      and\n      0xffffffffffffffffffffffffffffffffffffffff\n      and\n      dup2\n      mstore\n      0x20\n      add\n      swap1\n      dup2\n      mstore\n      0x20\n      add\n      0x00\n      keccak256\n        /* \"contracts/insurence_sc.sol\":2953:2964  _claimIndex */\n      dup3\n        /* \"contracts/insurence_sc.sol\":2931:2965  claims[_policyholder][_claimIndex] */\n      dup2\n      sload\n      dup2\n      lt\n      tag_88\n      jumpi\n      tag_89\n      tag_90\n      jump\t// in\n    tag_89:\n    tag_88:\n      swap1\n      0x00\n      mstore\n      keccak256(0x00, 0x20)\n      swap1\n      0x03\n      mul\n      add\n        /* \"contracts/insurence_sc.sol\":2909:2965  Claim storage claim = claims[_policyholder][_claimIndex] */\n      swap1\n      pop\n        /* \"contracts/insurence_sc.sol\":2984:2989  claim */\n      dup1\n        /* \"contracts/insurence_sc.sol\":2984:2998  claim.approved */\n      0x02\n      add\n      0x00\n      swap1\n      sload\n      swap1\n      0x0100\n      exp\n      swap1\n      div\n      0xff\n      and\n        /* \"contracts/insurence_sc.sol\":2976:3021  require(claim.approved, \"Claim not approved\") */\n      tag_92\n      jumpi\n      mload(0x40)\n      0x08c379a000000000000000000000000000000000000000000000000000000000\n      dup2\n      mstore\n      0x04\n      add\n      tag_93\n      swap1\n      tag_94\n      jump\t// in\n    tag_93:\n      mload(0x40)\n      dup1\n      swap2\n      sub\n      swap1\n      revert\n    tag_92:\n        /* \"contracts/insurence_sc.sol\":3041:3046  claim */\n      dup1\n        /* \"contracts/insurence_sc.sol\":3041:3051  claim.paid */\n      0x02\n      add\n      0x01\n      swap1\n      sload\n      swap1\n      0x0100\n      exp\n      swap1\n      div\n      0xff\n      and\n        /* \"contracts/insurence_sc.sol\":3040:3051  !claim.paid */\n      iszero\n        /* \"contracts/insurence_sc.sol\":3032:3074  require(!claim.paid, \"Claim already paid\") */\n      tag_95\n      jumpi\n      mload(0x40)\n      0x08c379a000000000000000000000000000000000000000000000000000000000\n      dup2\n      mstore\n      0x04\n      add\n      tag_96\n      swap1\n      tag_97\n      jump\t// in\n    tag_96:\n      mload(0x40)\n      dup1\n      swap2\n      sub\n      swap1\n      revert\n    tag_95:\n        /* \"contracts/insurence_sc.sol\":3100:3104  true */\n      0x01\n        /* \"contracts/insurence_sc.sol\":3087:3092  claim */\n      dup2\n        /* \"contracts/insurence_sc.sol\":3087:3097  claim.paid */\n      0x02\n      add\n      0x01\n        /* \"contracts/insurence_sc.sol\":3087:3104  claim.paid = true */\n      0x0100\n      exp\n      dup2\n      sload\n      dup2\n      0xff\n      mul\n      not\n      and\n      swap1\n      dup4\n      iszero\n      iszero\n      mul\n      or\n      swap1\n      sstore\n      pop\n        /* \"contracts/insurence_sc.sol\":3115:3128  _policyholder */\n      dup3\n        /* \"contracts/insurence_sc.sol\":3115:3137  _policyholder.transfer */\n      0xffffffffffffffffffffffffffffffffffffffff\n      and\n        /* \"contracts/insurence_sc.sol\":3115:3151  _policyholder.transfer(claim.amount) */\n      0x08fc\n        /* \"contracts/insurence_sc.sol\":3138:3143  claim */\n      dup3\n        /* \"contracts/insurence_sc.sol\":3138:3150  claim.amount */\n      0x00\n      add\n      sload\n        /* \"contracts/insurence_sc.sol\":3115:3151  _policyholder.transfer(claim.amount) */\n      swap1\n      dup2\n      iszero\n      mul\n      swap1\n      mload(0x40)\n      0x00\n      mload(0x40)\n      dup1\n      dup4\n      sub\n      dup2\n      dup6\n      dup9\n      dup9\n      call\n      swap4\n      pop\n      pop\n      pop\n      pop\n      iszero\n      dup1\n      iszero\n      tag_99\n      jumpi\n      returndatasize\n      0x00\n      dup1\n      returndatacopy\n      revert(0x00, returndatasize)\n    tag_99:\n      pop\n        /* \"contracts/insurence_sc.sol\":3179:3192  _policyholder */\n      dup3\n        /* \"contracts/insurence_sc.sol\":3169:3207  ClaimPaid(_policyholder, claim.amount) */\n      0xffffffffffffffffffffffffffffffffffffffff\n      and\n      0xf42cf8c29487b42c009006cba2a2a0ca0388229f3183e6e957e0a0b163585cb4\n        /* \"contracts/insurence_sc.sol\":3194:3199  claim */\n      dup3\n        /* \"contracts/insurence_sc.sol\":3194:3206  claim.amount */\n      0x00\n      add\n      sload\n        /* \"contracts/insurence_sc.sol\":3169:3207  ClaimPaid(_policyholder, claim.amount) */\n      mload(0x40)\n      tag_100\n      swap2\n      swap1\n      tag_71\n      jump\t// in\n    tag_100:\n      mload(0x40)\n      dup1\n      swap2\n      sub\n      swap1\n      log2\n        /* \"contracts/insurence_sc.sol\":2898:3215  {... */\n      pop\n        /* \"contracts/insurence_sc.sol\":2807:3215  function payClaim(address payable _policyholder, uint256 _claimIndex) external onlyInsurer {... */\n      pop\n      pop\n      jump\t// out\n        /* \"contracts/insurence_sc.sol\":1158:1475  function issuePolicy(address _policyholder, uint256 _premium, uint256 _coverage, uint256 _duration) external onlyInsurer {... */\n    tag_35:\n        /* \"contracts/insurence_sc.sol\":1043:1050  insurer */\n      0x00\n      dup1\n      sload\n      swap1\n      0x0100\n      exp\n      swap1\n      div\n      0xffffffffffffffffffffffffffffffffffffffff\n      and\n        /* \"contracts/insurence_sc.sol\":1029:1050  msg.sender == insurer */\n      0xffffffffffffffffffffffffffffffffffffffff\n      and\n        /* \"contracts/insurence_sc.sol\":1029:1039  msg.sender */\n      caller\n        /* \"contracts/insurence_sc.sol\":1029:1050  msg.sender == insurer */\n      0xffffffffffffffffffffffffffffffffffffffff\n      and\n      eq\n        /* \"contracts/insurence_sc.sol\":1021:1069  require(msg.sender == insurer, \"Not authorized\") */\n      tag_102\n      jumpi\n      mload(0x40)\n      0x08c379a000000000000000000000000000000000000000000000000000000000\n      dup2\n      mstore\n      0x04\n      add\n      tag_103\n      swap1\n      tag_86\n      jump\t// in\n    tag_103:\n      mload(0x40)\n      dup1\n      swap2\n      sub\n      swap1\n      revert\n    tag_102:\n        /* \"contracts/insurence_sc.sol\":1316:1392  Policy(_policyholder, _premium, _coverage, _duration, block.timestamp, true) */\n      mload(0x40)\n      dup1\n      0xc0\n      add\n      0x40\n      mstore\n      dup1\n        /* \"contracts/insurence_sc.sol\":1323:1336  _policyholder */\n      dup6\n        /* \"contracts/insurence_sc.sol\":1316:1392  Policy(_policyholder, _premium, _coverage, _duration, block.timestamp, true) */\n      0xffffffffffffffffffffffffffffffffffffffff\n      and\n      dup2\n      mstore\n      0x20\n      add\n        /* \"contracts/insurence_sc.sol\":1338:1346  _premium */\n      dup5\n        /* \"contracts/insurence_sc.sol\":1316:1392  Policy(_policyholder, _premium, _coverage, _duration, block.timestamp, true) */\n      dup2\n      mstore\n      0x20\n      add\n        /* \"contracts/insurence_sc.sol\":1348:1357  _coverage */\n      dup4\n        /* \"contracts/insurence_sc.sol\":1316:1392  Policy(_policyholder, _premium, _coverage, _duration, block.timestamp, true) */\n      dup2\n      mstore\n      0x20\n      add\n        /* \"contracts/insurence_sc.sol\":1359:1368  _duration */\n      dup3\n        /* \"contracts/insurence_sc.sol\":1316:1392  Policy(_policyholder, _premium, _coverage, _duration, block.timestamp, true) */\n      dup2\n      mstore\n      0x20\n      add\n        /* \"contracts/insurence_sc.sol\":1370:1385  block.timestamp */\n      timestamp\n        /* \"contracts/insurence_sc.sol\":1316:1392  Policy(_policyholder, _premium, _coverage, _duration, block.timestamp, true) */\n      dup2\n      mstore\n      0x20\n      add\n        /* \"contracts/insurence_sc.sol\":1387:1391  true */\n      0x01\n        /* \"contracts/insurence_sc.sol\":1316:1392  Policy(_policyholder, _premium, _coverage, _duration, block.timestamp, true) */\n      iszero\n      iszero\n      dup2\n      mstore\n      pop\n        /* \"contracts/insurence_sc.sol\":1290:1298  policies */\n      0x01\n        /* \"contracts/insurence_sc.sol\":1290:1313  policies[_policyholder] */\n      0x00\n        /* \"contracts/insurence_sc.sol\":1299:1312  _policyholder */\n      dup7\n        /* \"contracts/insurence_sc.sol\":1290:1313  policies[_policyholder] */\n      0xffffffffffffffffffffffffffffffffffffffff\n      and\n      0xffffffffffffffffffffffffffffffffffffffff\n      and\n      dup2\n      mstore\n      0x20\n      add\n      swap1\n      dup2\n      mstore\n      0x20\n      add\n      0x00\n      keccak256\n        /* \"contracts/insurence_sc.sol\":1290:1392  policies[_policyholder] = Policy(_policyholder, _premium, _coverage, _duration, block.timestamp, true) */\n      0x00\n      dup3\n      add\n      mload\n      dup2\n      0x00\n      add\n      exp(0x0100, 0x00)\n      dup2\n      sload\n      dup2\n      0xffffffffffffffffffffffffffffffffffffffff\n      mul\n      not\n      and\n      swap1\n      dup4\n      0xffffffffffffffffffffffffffffffffffffffff\n      and\n      mul\n      or\n      swap1\n      sstore\n      pop\n      0x20\n      dup3\n      add\n      mload\n      dup2\n      0x01\n      add\n      sstore\n      0x40\n      dup3\n      add\n      mload\n      dup2\n      0x02\n      add\n      sstore\n      0x60\n      dup3\n      add\n      mload\n      dup2\n      0x03\n      add\n      sstore\n      0x80\n      dup3\n      add\n      mload\n      dup2\n      0x04\n      add\n      sstore\n      0xa0\n      dup3\n      add\n      mload\n      dup2\n      0x05\n      add\n      exp(0x0100, 0x00)\n      dup2\n      sload\n      dup2\n      0xff\n      mul\n      not\n      and\n      swap1\n      dup4\n      iszero\n      iszero\n      mul\n      or\n      swap1\n      sstore\n      pop\n      swap1\n      pop\n      pop\n        /* \"contracts/insurence_sc.sol\":1421:1434  _policyholder */\n      dup4\n        /* \"contracts/insurence_sc.sol\":1408:1467  PolicyIssued(_policyholder, _premium, _coverage, _duration) */\n      0xffffffffffffffffffffffffffffffffffffffff\n      and\n      0xff4ed768c87dd5f8b2c8a57b88e80671a657e55c54abfda93a71ebbcd161637d\n        /* \"contracts/insurence_sc.sol\":1436:1444  _premium */\n      dup5\n        /* \"contracts/insurence_sc.sol\":1446:1455  _coverage */\n      dup5\n        /* \"contracts/insurence_sc.sol\":1457:1466  _duration */\n      dup5\n        /* \"contracts/insurence_sc.sol\":1408:1467  PolicyIssued(_policyholder, _premium, _coverage, _duration) */\n      mload(0x40)\n      tag_105\n      swap4\n      swap3\n      swap2\n      swap1\n      tag_106\n      jump\t// in\n    tag_105:\n      mload(0x40)\n      dup1\n      swap2\n      sub\n      swap1\n      log2\n        /* \"contracts/insurence_sc.sol\":1158:1475  function issuePolicy(address _policyholder, uint256 _premium, uint256 _coverage, uint256 _duration) external onlyInsurer {... */\n      pop\n      pop\n      pop\n      pop\n      jump\t// out\n        /* \"contracts/insurence_sc.sol\":545:586  mapping(address => Claim[]) public claims */\n    tag_40:\n      mstore(0x20, 0x02)\n      dup2\n      0x00\n      mstore\n      keccak256(0x00, 0x40)\n      dup2\n      dup2\n      sload\n      dup2\n      lt\n      tag_107\n      jumpi\n      0x00\n      dup1\n      revert\n    tag_107:\n      swap1\n      0x00\n      mstore\n      keccak256(0x00, 0x20)\n      swap1\n      0x03\n      mul\n      add\n      0x00\n      swap2\n      pop\n      swap2\n      pop\n      pop\n      dup1\n      0x00\n      add\n      sload\n      swap1\n      dup1\n      0x01\n      add\n      dup1\n      sload\n      tag_109\n      swap1\n      tag_110\n      jump\t// in\n    tag_109:\n      dup1\n      0x1f\n      add\n      0x20\n      dup1\n      swap2\n      div\n      mul\n      0x20\n      add\n      mload(0x40)\n      swap1\n      dup2\n      add\n      0x40\n      mstore\n      dup1\n      swap3\n      swap2\n      swap1\n      dup2\n      dup2\n      mstore\n      0x20\n      add\n      dup3\n      dup1\n      sload\n      tag_111\n      swap1\n      tag_110\n      jump\t// in\n    tag_111:\n      dup1\n      iszero\n      tag_112\n      jumpi\n      dup1\n      0x1f\n      lt\n      tag_113\n      jumpi\n      0x0100\n      dup1\n      dup4\n      sload\n      div\n      mul\n      dup4\n      mstore\n      swap2\n      0x20\n      add\n      swap2\n      jump(tag_112)\n    tag_113:\n      dup3\n      add\n      swap2\n      swap1\n      0x00\n      mstore\n      keccak256(0x00, 0x20)\n      swap1\n    tag_114:\n      dup2\n      sload\n      dup2\n      mstore\n      swap1\n      0x01\n      add\n      swap1\n      0x20\n      add\n      dup1\n      dup4\n      gt\n      tag_114\n      jumpi\n      dup3\n      swap1\n      sub\n      0x1f\n      and\n      dup3\n      add\n      swap2\n    tag_112:\n      pop\n      pop\n      pop\n      pop\n      pop\n      swap1\n      dup1\n      0x02\n      add\n      0x00\n      swap1\n      sload\n      swap1\n      0x0100\n      exp\n      swap1\n      div\n      0xff\n      and\n      swap1\n      dup1\n      0x02\n      add\n      0x01\n      swap1\n      sload\n      swap1\n      0x0100\n      exp\n      swap1\n      div\n      0xff\n      and\n      swap1\n      pop\n      dup5\n      jump\t// out\n        /* \"contracts/insurence_sc.sol\":94:116  address public insurer */\n    tag_45:\n      0x00\n      dup1\n      sload\n      swap1\n      0x0100\n      exp\n      swap1\n      div\n      0xffffffffffffffffffffffffffffffffffffffff\n      and\n      dup2\n      jump\t// out\n        /* \"contracts/insurence_sc.sol\":1855:2085  function isPolicyActive(address _policyholder) public view returns (bool) {... */\n    tag_51:\n        /* \"contracts/insurence_sc.sol\":1923:1927  bool */\n      0x00\n        /* \"contracts/insurence_sc.sol\":1940:1960  Policy memory policy */\n      dup1\n        /* \"contracts/insurence_sc.sol\":1963:1971  policies */\n      0x01\n        /* \"contracts/insurence_sc.sol\":1963:1986  policies[_policyholder] */\n      0x00\n        /* \"contracts/insurence_sc.sol\":1972:1985  _policyholder */\n      dup5\n        /* \"contracts/insurence_sc.sol\":1963:1986  policies[_policyholder] */\n      0xffffffffffffffffffffffffffffffffffffffff\n      and\n      0xffffffffffffffffffffffffffffffffffffffff\n      and\n      dup2\n      mstore\n      0x20\n      add\n      swap1\n      dup2\n      mstore\n      0x20\n      add\n      0x00\n      keccak256\n        /* \"contracts/insurence_sc.sol\":1940:1986  Policy memory policy = policies[_policyholder] */\n      mload(0x40)\n      dup1\n      0xc0\n      add\n      0x40\n      mstore\n      swap1\n      dup2\n      0x00\n      dup3\n      add\n      0x00\n      swap1\n      sload\n      swap1\n      0x0100\n      exp\n      swap1\n      div\n      0xffffffffffffffffffffffffffffffffffffffff\n      and\n      0xffffffffffffffffffffffffffffffffffffffff\n      and\n      0xffffffffffffffffffffffffffffffffffffffff\n      and\n      dup2\n      mstore\n      0x20\n      add\n      0x01\n      dup3\n      add\n      sload\n      dup2\n      mstore\n      0x20\n      add\n      0x02\n      dup3\n      add\n      sload\n      dup2\n      mstore\n      0x20\n      add\n      0x03\n      dup3\n      add\n      sload\n      dup2\n      mstore\n      0x20\n      add\n      0x04\n      dup3\n      add\n      sload\n      dup2\n      mstore\n      0x20\n      add\n      0x05\n      dup3\n      add\n      0x00\n      swap1\n      sload\n      swap1\n      0x0100\n      exp\n      swap1\n      div\n      0xff\n      and\n      iszero\n      iszero\n      iszero\n      iszero\n      dup2\n      mstore\n      pop\n      pop\n      swap1\n      pop\n        /* \"contracts/insurence_sc.sol\":2005:2011  policy */\n      dup1\n        /* \"contracts/insurence_sc.sol\":2005:2018  policy.active */\n      0xa0\n      add\n      mload\n        /* \"contracts/insurence_sc.sol\":2005:2076  policy.active && block.timestamp < (policy.startTime + policy.duration) */\n      dup1\n      iszero\n      tag_116\n      jumpi\n      pop\n        /* \"contracts/insurence_sc.sol\":2060:2066  policy */\n      dup1\n        /* \"contracts/insurence_sc.sol\":2060:2075  policy.duration */\n      0x60\n      add\n      mload\n        /* \"contracts/insurence_sc.sol\":2041:2047  policy */\n      dup2\n        /* \"contracts/insurence_sc.sol\":2041:2057  policy.startTime */\n      0x80\n      add\n      mload\n        /* \"contracts/insurence_sc.sol\":2041:2075  policy.startTime + policy.duration */\n      tag_117\n      swap2\n      swap1\n      tag_63\n      jump\t// in\n    tag_117:\n        /* \"contracts/insurence_sc.sol\":2022:2037  block.timestamp */\n      timestamp\n        /* \"contracts/insurence_sc.sol\":2022:2076  block.timestamp < (policy.startTime + policy.duration) */\n      lt\n        /* \"contracts/insurence_sc.sol\":2005:2076  policy.active && block.timestamp < (policy.startTime + policy.duration) */\n    tag_116:\n        /* \"contracts/insurence_sc.sol\":1997:2077  return (policy.active && block.timestamp < (policy.startTime + policy.duration)) */\n      swap2\n      pop\n      pop\n        /* \"contracts/insurence_sc.sol\":1855:2085  function isPolicyActive(address _policyholder) public view returns (bool) {... */\n      swap2\n      swap1\n      pop\n      jump\t// out\n        /* \"contracts/insurence_sc.sol\":2514:2799  function approveClaim(address _policyholder, uint256 _claimIndex) external onlyInsurer {... */\n    tag_57:\n        /* \"contracts/insurence_sc.sol\":1043:1050  insurer */\n      0x00\n      dup1\n      sload\n      swap1\n      0x0100\n      exp\n      swap1\n      div\n      0xffffffffffffffffffffffffffffffffffffffff\n      and\n        /* \"contracts/insurence_sc.sol\":1029:1050  msg.sender == insurer */\n      0xffffffffffffffffffffffffffffffffffffffff\n      and\n        /* \"contracts/insurence_sc.sol\":1029:1039  msg.sender */\n      caller\n        /* \"contracts/insurence_sc.sol\":1029:1050  msg.sender == insurer */\n      0xffffffffffffffffffffffffffffffffffffffff\n      and\n      eq\n        /* \"contracts/insurence_sc.sol\":1021:1069  require(msg.sender == insurer, \"Not authorized\") */\n      tag_119\n      jumpi\n      mload(0x40)\n      0x08c379a000000000000000000000000000000000000000000000000000000000\n      dup2\n      mstore\n      0x04\n      add\n      tag_120\n      swap1\n      tag_86\n      jump\t// in\n    tag_120:\n      mload(0x40)\n      dup1\n      swap2\n      sub\n      swap1\n      revert\n    tag_119:\n        /* \"contracts/insurence_sc.sol\":2634:2640  claims */\n      0x02\n        /* \"contracts/insurence_sc.sol\":2634:2655  claims[_policyholder] */\n      0x00\n        /* \"contracts/insurence_sc.sol\":2641:2654  _policyholder */\n      dup4\n        /* \"contracts/insurence_sc.sol\":2634:2655  claims[_policyholder] */\n      0xffffffffffffffffffffffffffffffffffffffff\n      and\n      0xffffffffffffffffffffffffffffffffffffffff\n      and\n      dup2\n      mstore\n      0x20\n      add\n      swap1\n      dup2\n      mstore\n      0x20\n      add\n      0x00\n      keccak256\n        /* \"contracts/insurence_sc.sol\":2634:2662  claims[_policyholder].length */\n      dup1\n      sload\n      swap1\n      pop\n        /* \"contracts/insurence_sc.sol\":2620:2631  _claimIndex */\n      dup2\n        /* \"contracts/insurence_sc.sol\":2620:2662  _claimIndex < claims[_policyholder].length */\n      lt\n        /* \"contracts/insurence_sc.sol\":2612:2686  require(_claimIndex < claims[_policyholder].length, \"Invalid claim index\") */\n      tag_122\n      jumpi\n      mload(0x40)\n      0x08c379a000000000000000000000000000000000000000000000000000000000\n      dup2\n      mstore\n      0x04\n      add\n      tag_123\n      swap1\n      tag_124\n      jump\t// in\n    tag_123:\n      mload(0x40)\n      dup1\n      swap2\n      sub\n      swap1\n      revert\n    tag_122:\n        /* \"contracts/insurence_sc.sol\":2743:2747  true */\n      0x01\n        /* \"contracts/insurence_sc.sol\":2697:2703  claims */\n      0x02\n        /* \"contracts/insurence_sc.sol\":2697:2718  claims[_policyholder] */\n      0x00\n        /* \"contracts/insurence_sc.sol\":2704:2717  _policyholder */\n      dup5\n        /* \"contracts/insurence_sc.sol\":2697:2718  claims[_policyholder] */\n      0xffffffffffffffffffffffffffffffffffffffff\n      and\n      0xffffffffffffffffffffffffffffffffffffffff\n      and\n      dup2\n      mstore\n      0x20\n      add\n      swap1\n      dup2\n      mstore\n      0x20\n      add\n      0x00\n      keccak256\n        /* \"contracts/insurence_sc.sol\":2719:2730  _claimIndex */\n      dup3\n        /* \"contracts/insurence_sc.sol\":2697:2731  claims[_policyholder][_claimIndex] */\n      dup2\n      sload\n      dup2\n      lt\n      tag_125\n      jumpi\n      tag_126\n      tag_90\n      jump\t// in\n    tag_126:\n    tag_125:\n      swap1\n      0x00\n      mstore\n      keccak256(0x00, 0x20)\n      swap1\n      0x03\n      mul\n      add\n        /* \"contracts/insurence_sc.sol\":2697:2740  claims[_policyholder][_claimIndex].approved */\n      0x02\n      add\n      0x00\n        /* \"contracts/insurence_sc.sol\":2697:2747  claims[_policyholder][_claimIndex].approved = true */\n      0x0100\n      exp\n      dup2\n      sload\n      dup2\n      0xff\n      mul\n      not\n      and\n      swap1\n      dup4\n      iszero\n      iszero\n      mul\n      or\n      swap1\n      sstore\n      pop\n        /* \"contracts/insurence_sc.sol\":2777:2790  _policyholder */\n      dup2\n        /* \"contracts/insurence_sc.sol\":2763:2791  ClaimApproved(_policyholder) */\n      0xffffffffffffffffffffffffffffffffffffffff\n      and\n      0xb7fa0f30e1ede3196616147dfdf6c94e47523298677b4f7b0c61027a9f0ebf54\n      mload(0x40)\n      mload(0x40)\n      dup1\n      swap2\n      sub\n      swap1\n      log2\n        /* \"contracts/insurence_sc.sol\":2514:2799  function approveClaim(address _policyholder, uint256 _claimIndex) external onlyInsurer {... */\n      pop\n      pop\n      jump\t// out\n        /* \"#utility.yul\":88:205   */\n    tag_129:\n        /* \"#utility.yul\":197:198   */\n      0x00\n        /* \"#utility.yul\":194:195   */\n      dup1\n        /* \"#utility.yul\":187:199   */\n      revert\n        /* \"#utility.yul\":211:328   */\n    tag_130:\n        /* \"#utility.yul\":320:321   */\n      0x00\n        /* \"#utility.yul\":317:318   */\n      dup1\n        /* \"#utility.yul\":310:322   */\n      revert\n        /* \"#utility.yul\":334:460   */\n    tag_131:\n        /* \"#utility.yul\":371:378   */\n      0x00\n        /* \"#utility.yul\":411:453   */\n      0xffffffffffffffffffffffffffffffffffffffff\n        /* \"#utility.yul\":404:409   */\n      dup3\n        /* \"#utility.yul\":400:454   */\n      and\n        /* \"#utility.yul\":389:454   */\n      swap1\n      pop\n        /* \"#utility.yul\":334:460   */\n      swap2\n      swap1\n      pop\n      jump\t// out\n        /* \"#utility.yul\":466:562   */\n    tag_132:\n        /* \"#utility.yul\":503:510   */\n      0x00\n        /* \"#utility.yul\":532:556   */\n      tag_194\n        /* \"#utility.yul\":550:555   */\n      dup3\n        /* \"#utility.yul\":532:556   */\n      tag_131\n      jump\t// in\n    tag_194:\n        /* \"#utility.yul\":521:556   */\n      swap1\n      pop\n        /* \"#utility.yul\":466:562   */\n      swap2\n      swap1\n      pop\n      jump\t// out\n        /* \"#utility.yul\":568:690   */\n    tag_133:\n        /* \"#utility.yul\":641:665   */\n      tag_196\n        /* \"#utility.yul\":659:664   */\n      dup2\n        /* \"#utility.yul\":641:665   */\n      tag_132\n      jump\t// in\n    tag_196:\n        /* \"#utility.yul\":634:639   */\n      dup2\n        /* \"#utility.yul\":631:666   */\n      eq\n        /* \"#utility.yul\":621:684   */\n      tag_197\n      jumpi\n        /* \"#utility.yul\":680:681   */\n      0x00\n        /* \"#utility.yul\":677:678   */\n      dup1\n        /* \"#utility.yul\":670:682   */\n      revert\n        /* \"#utility.yul\":621:684   */\n    tag_197:\n        /* \"#utility.yul\":568:690   */\n      pop\n      jump\t// out\n        /* \"#utility.yul\":696:835   */\n    tag_134:\n        /* \"#utility.yul\":742:747   */\n      0x00\n        /* \"#utility.yul\":780:786   */\n      dup2\n        /* \"#utility.yul\":767:787   */\n      calldataload\n        /* \"#utility.yul\":758:787   */\n      swap1\n      pop\n        /* \"#utility.yul\":796:829   */\n      tag_199\n        /* \"#utility.yul\":823:828   */\n      dup2\n        /* \"#utility.yul\":796:829   */\n      tag_133\n      jump\t// in\n    tag_199:\n        /* \"#utility.yul\":696:835   */\n      swap3\n      swap2\n      pop\n      pop\n      jump\t// out\n        /* \"#utility.yul\":841:1170   */\n    tag_15:\n        /* \"#utility.yul\":900:906   */\n      0x00\n        /* \"#utility.yul\":949:951   */\n      0x20\n        /* \"#utility.yul\":937:946   */\n      dup3\n        /* \"#utility.yul\":928:935   */\n      dup5\n        /* \"#utility.yul\":924:947   */\n      sub\n        /* \"#utility.yul\":920:952   */\n      slt\n        /* \"#utility.yul\":917:1036   */\n      iszero\n      tag_201\n      jumpi\n        /* \"#utility.yul\":955:1034   */\n      tag_202\n      tag_129\n      jump\t// in\n    tag_202:\n        /* \"#utility.yul\":917:1036   */\n    tag_201:\n        /* \"#utility.yul\":1075:1076   */\n      0x00\n        /* \"#utility.yul\":1100:1153   */\n      tag_203\n        /* \"#utility.yul\":1145:1152   */\n      dup5\n        /* \"#utility.yul\":1136:1142   */\n      dup3\n        /* \"#utility.yul\":1125:1134   */\n      dup6\n        /* \"#utility.yul\":1121:1143   */\n      add\n        /* \"#utility.yul\":1100:1153   */\n      tag_134\n      jump\t// in\n    tag_203:\n        /* \"#utility.yul\":1090:1153   */\n      swap2\n      pop\n        /* \"#utility.yul\":1046:1163   */\n      pop\n        /* \"#utility.yul\":841:1170   */\n      swap3\n      swap2\n      pop\n      pop\n      jump\t// out\n        /* \"#utility.yul\":1176:1294   */\n    tag_135:\n        /* \"#utility.yul\":1263:1287   */\n      tag_205\n        /* \"#utility.yul\":1281:1286   */\n      dup2\n        /* \"#utility.yul\":1263:1287   */\n      tag_132\n      jump\t// in\n    tag_205:\n        /* \"#utility.yul\":1258:1261   */\n      dup3\n        /* \"#utility.yul\":1251:1288   */\n      mstore\n        /* \"#utility.yul\":1176:1294   */\n      pop\n      pop\n      jump\t// out\n        /* \"#utility.yul\":1300:1377   */\n    tag_136:\n        /* \"#utility.yul\":1337:1344   */\n      0x00\n        /* \"#utility.yul\":1366:1371   */\n      dup2\n        /* \"#utility.yul\":1355:1371   */\n      swap1\n      pop\n        /* \"#utility.yul\":1300:1377   */\n      swap2\n      swap1\n      pop\n      jump\t// out\n        /* \"#utility.yul\":1383:1501   */\n    tag_137:\n        /* \"#utility.yul\":1470:1494   */\n      tag_208\n        /* \"#utility.yul\":1488:1493   */\n      dup2\n        /* \"#utility.yul\":1470:1494   */\n      tag_136\n      jump\t// in\n    tag_208:\n        /* \"#utility.yul\":1465:1468   */\n      dup3\n        /* \"#utility.yul\":1458:1495   */\n      mstore\n        /* \"#utility.yul\":1383:1501   */\n      pop\n      pop\n      jump\t// out\n        /* \"#utility.yul\":1507:1597   */\n    tag_138:\n        /* \"#utility.yul\":1541:1548   */\n      0x00\n        /* \"#utility.yul\":1584:1589   */\n      dup2\n        /* \"#utility.yul\":1577:1590   */\n      iszero\n        /* \"#utility.yul\":1570:1591   */\n      iszero\n        /* \"#utility.yul\":1559:1591   */\n      swap1\n      pop\n        /* \"#utility.yul\":1507:1597   */\n      swap2\n      swap1\n      pop\n      jump\t// out\n        /* \"#utility.yul\":1603:1712   */\n    tag_139:\n        /* \"#utility.yul\":1684:1705   */\n      tag_211\n        /* \"#utility.yul\":1699:1704   */\n      dup2\n        /* \"#utility.yul\":1684:1705   */\n      tag_138\n      jump\t// in\n    tag_211:\n        /* \"#utility.yul\":1679:1682   */\n      dup3\n        /* \"#utility.yul\":1672:1706   */\n      mstore\n        /* \"#utility.yul\":1603:1712   */\n      pop\n      pop\n      jump\t// out\n        /* \"#utility.yul\":1718:2481   */\n    tag_18:\n        /* \"#utility.yul\":1945:1949   */\n      0x00\n        /* \"#utility.yul\":1983:1986   */\n      0xc0\n        /* \"#utility.yul\":1972:1981   */\n      dup3\n        /* \"#utility.yul\":1968:1987   */\n      add\n        /* \"#utility.yul\":1960:1987   */\n      swap1\n      pop\n        /* \"#utility.yul\":1997:2068   */\n      tag_213\n        /* \"#utility.yul\":2065:2066   */\n      0x00\n        /* \"#utility.yul\":2054:2063   */\n      dup4\n        /* \"#utility.yul\":2050:2067   */\n      add\n        /* \"#utility.yul\":2041:2047   */\n      dup10\n        /* \"#utility.yul\":1997:2068   */\n      tag_135\n      jump\t// in\n    tag_213:\n        /* \"#utility.yul\":2078:2150   */\n      tag_214\n        /* \"#utility.yul\":2146:2148   */\n      0x20\n        /* \"#utility.yul\":2135:2144   */\n      dup4\n        /* \"#utility.yul\":2131:2149   */\n      add\n        /* \"#utility.yul\":2122:2128   */\n      dup9\n        /* \"#utility.yul\":2078:2150   */\n      tag_137\n      jump\t// in\n    tag_214:\n        /* \"#utility.yul\":2160:2232   */\n      tag_215\n        /* \"#utility.yul\":2228:2230   */\n      0x40\n        /* \"#utility.yul\":2217:2226   */\n      dup4\n        /* \"#utility.yul\":2213:2231   */\n      add\n        /* \"#utility.yul\":2204:2210   */\n      dup8\n        /* \"#utility.yul\":2160:2232   */\n      tag_137\n      jump\t// in\n    tag_215:\n        /* \"#utility.yul\":2242:2314   */\n      tag_216\n        /* \"#utility.yul\":2310:2312   */\n      0x60\n        /* \"#utility.yul\":2299:2308   */\n      dup4\n        /* \"#utility.yul\":2295:2313   */\n      add\n        /* \"#utility.yul\":2286:2292   */\n      dup7\n        /* \"#utility.yul\":2242:2314   */\n      tag_137\n      jump\t// in\n    tag_216:\n        /* \"#utility.yul\":2324:2397   */\n      tag_217\n        /* \"#utility.yul\":2392:2395   */\n      0x80\n        /* \"#utility.yul\":2381:2390   */\n      dup4\n        /* \"#utility.yul\":2377:2396   */\n      add\n        /* \"#utility.yul\":2368:2374   */\n      dup6\n        /* \"#utility.yul\":2324:2397   */\n      tag_137\n      jump\t// in\n    tag_217:\n        /* \"#utility.yul\":2407:2474   */\n      tag_218\n        /* \"#utility.yul\":2469:2472   */\n      0xa0\n        /* \"#utility.yul\":2458:2467   */\n      dup4\n        /* \"#utility.yul\":2454:2473   */\n      add\n        /* \"#utility.yul\":2445:2451   */\n      dup5\n        /* \"#utility.yul\":2407:2474   */\n      tag_139\n      jump\t// in\n    tag_218:\n        /* \"#utility.yul\":1718:2481   */\n      swap8\n      swap7\n      pop\n      pop\n      pop\n      pop\n      pop\n      pop\n      pop\n      jump\t// out\n        /* \"#utility.yul\":2487:2609   */\n    tag_140:\n        /* \"#utility.yul\":2560:2584   */\n      tag_220\n        /* \"#utility.yul\":2578:2583   */\n      dup2\n        /* \"#utility.yul\":2560:2584   */\n      tag_136\n      jump\t// in\n    tag_220:\n        /* \"#utility.yul\":2553:2558   */\n      dup2\n        /* \"#utility.yul\":2550:2585   */\n      eq\n        /* \"#utility.yul\":2540:2603   */\n      tag_221\n      jumpi\n        /* \"#utility.yul\":2599:2600   */\n      0x00\n        /* \"#utility.yul\":2596:2597   */\n      dup1\n        /* \"#utility.yul\":2589:2601   */\n      revert\n        /* \"#utility.yul\":2540:2603   */\n    tag_221:\n        /* \"#utility.yul\":2487:2609   */\n      pop\n      jump\t// out\n        /* \"#utility.yul\":2615:2754   */\n    tag_141:\n        /* \"#utility.yul\":2661:2666   */\n      0x00\n        /* \"#utility.yul\":2699:2705   */\n      dup2\n        /* \"#utility.yul\":2686:2706   */\n      calldataload\n        /* \"#utility.yul\":2677:2706   */\n      swap1\n      pop\n        /* \"#utility.yul\":2715:2748   */\n      tag_223\n        /* \"#utility.yul\":2742:2747   */\n      dup2\n        /* \"#utility.yul\":2715:2748   */\n      tag_140\n      jump\t// in\n    tag_223:\n        /* \"#utility.yul\":2615:2754   */\n      swap3\n      swap2\n      pop\n      pop\n      jump\t// out\n        /* \"#utility.yul\":2760:2877   */\n    tag_142:\n        /* \"#utility.yul\":2869:2870   */\n      0x00\n        /* \"#utility.yul\":2866:2867   */\n      dup1\n        /* \"#utility.yul\":2859:2871   */\n      revert\n        /* \"#utility.yul\":2883:3000   */\n    tag_143:\n        /* \"#utility.yul\":2992:2993   */\n      0x00\n        /* \"#utility.yul\":2989:2990   */\n      dup1\n        /* \"#utility.yul\":2982:2994   */\n      revert\n        /* \"#utility.yul\":3006:3123   */\n    tag_144:\n        /* \"#utility.yul\":3115:3116   */\n      0x00\n        /* \"#utility.yul\":3112:3113   */\n      dup1\n        /* \"#utility.yul\":3105:3117   */\n      revert\n        /* \"#utility.yul\":3143:3696   */\n    tag_145:\n        /* \"#utility.yul\":3201:3209   */\n      0x00\n        /* \"#utility.yul\":3211:3217   */\n      dup1\n        /* \"#utility.yul\":3261:3264   */\n      dup4\n        /* \"#utility.yul\":3254:3258   */\n      0x1f\n        /* \"#utility.yul\":3246:3252   */\n      dup5\n        /* \"#utility.yul\":3242:3259   */\n      add\n        /* \"#utility.yul\":3238:3265   */\n      slt\n        /* \"#utility.yul\":3228:3350   */\n      tag_228\n      jumpi\n        /* \"#utility.yul\":3269:3348   */\n      tag_229\n      tag_142\n      jump\t// in\n    tag_229:\n        /* \"#utility.yul\":3228:3350   */\n    tag_228:\n        /* \"#utility.yul\":3382:3388   */\n      dup3\n        /* \"#utility.yul\":3369:3389   */\n      calldataload\n        /* \"#utility.yul\":3359:3389   */\n      swap1\n      pop\n        /* \"#utility.yul\":3412:3430   */\n      0xffffffffffffffff\n        /* \"#utility.yul\":3404:3410   */\n      dup2\n        /* \"#utility.yul\":3401:3431   */\n      gt\n        /* \"#utility.yul\":3398:3515   */\n      iszero\n      tag_230\n      jumpi\n        /* \"#utility.yul\":3434:3513   */\n      tag_231\n      tag_143\n      jump\t// in\n    tag_231:\n        /* \"#utility.yul\":3398:3515   */\n    tag_230:\n        /* \"#utility.yul\":3548:3552   */\n      0x20\n        /* \"#utility.yul\":3540:3546   */\n      dup4\n        /* \"#utility.yul\":3536:3553   */\n      add\n        /* \"#utility.yul\":3524:3553   */\n      swap2\n      pop\n        /* \"#utility.yul\":3602:3605   */\n      dup4\n        /* \"#utility.yul\":3594:3598   */\n      0x01\n        /* \"#utility.yul\":3586:3592   */\n      dup3\n        /* \"#utility.yul\":3582:3599   */\n      mul\n        /* \"#utility.yul\":3572:3580   */\n      dup4\n        /* \"#utility.yul\":3568:3600   */\n      add\n        /* \"#utility.yul\":3565:3606   */\n      gt\n        /* \"#utility.yul\":3562:3690   */\n      iszero\n      tag_232\n      jumpi\n        /* \"#utility.yul\":3609:3688   */\n      tag_233\n      tag_144\n      jump\t// in\n    tag_233:\n        /* \"#utility.yul\":3562:3690   */\n    tag_232:\n        /* \"#utility.yul\":3143:3696   */\n      swap3\n      pop\n      swap3\n      swap1\n      pop\n      jump\t// out\n        /* \"#utility.yul\":3702:4376   */\n    tag_24:\n        /* \"#utility.yul\":3782:3788   */\n      0x00\n        /* \"#utility.yul\":3790:3796   */\n      dup1\n        /* \"#utility.yul\":3798:3804   */\n      0x00\n        /* \"#utility.yul\":3847:3849   */\n      0x40\n        /* \"#utility.yul\":3835:3844   */\n      dup5\n        /* \"#utility.yul\":3826:3833   */\n      dup7\n        /* \"#utility.yul\":3822:3845   */\n      sub\n        /* \"#utility.yul\":3818:3850   */\n      slt\n        /* \"#utility.yul\":3815:3934   */\n      iszero\n      tag_235\n      jumpi\n        /* \"#utility.yul\":3853:3932   */\n      tag_236\n      tag_129\n      jump\t// in\n    tag_236:\n        /* \"#utility.yul\":3815:3934   */\n    tag_235:\n        /* \"#utility.yul\":3973:3974   */\n      0x00\n        /* \"#utility.yul\":3998:4051   */\n      tag_237\n        /* \"#utility.yul\":4043:4050   */\n      dup7\n        /* \"#utility.yul\":4034:4040   */\n      dup3\n        /* \"#utility.yul\":4023:4032   */\n      dup8\n        /* \"#utility.yul\":4019:4041   */\n      add\n        /* \"#utility.yul\":3998:4051   */\n      tag_141\n      jump\t// in\n    tag_237:\n        /* \"#utility.yul\":3988:4051   */\n      swap4\n      pop\n        /* \"#utility.yul\":3944:4061   */\n      pop\n        /* \"#utility.yul\":4128:4130   */\n      0x20\n        /* \"#utility.yul\":4117:4126   */\n      dup5\n        /* \"#utility.yul\":4113:4131   */\n      add\n        /* \"#utility.yul\":4100:4132   */\n      calldataload\n        /* \"#utility.yul\":4159:4177   */\n      0xffffffffffffffff\n        /* \"#utility.yul\":4151:4157   */\n      dup2\n        /* \"#utility.yul\":4148:4178   */\n      gt\n        /* \"#utility.yul\":4145:4262   */\n      iszero\n      tag_238\n      jumpi\n        /* \"#utility.yul\":4181:4260   */\n      tag_239\n      tag_130\n      jump\t// in\n    tag_239:\n        /* \"#utility.yul\":4145:4262   */\n    tag_238:\n        /* \"#utility.yul\":4294:4359   */\n      tag_240\n        /* \"#utility.yul\":4351:4358   */\n      dup7\n        /* \"#utility.yul\":4342:4348   */\n      dup3\n        /* \"#utility.yul\":4331:4340   */\n      dup8\n        /* \"#utility.yul\":4327:4349   */\n      add\n        /* \"#utility.yul\":4294:4359   */\n      tag_145\n      jump\t// in\n    tag_240:\n        /* \"#utility.yul\":4276:4359   */\n      swap3\n      pop\n      swap3\n      pop\n        /* \"#utility.yul\":4071:4369   */\n      pop\n        /* \"#utility.yul\":3702:4376   */\n      swap3\n      pop\n      swap3\n      pop\n      swap3\n      jump\t// out\n        /* \"#utility.yul\":4382:4486   */\n    tag_146:\n        /* \"#utility.yul\":4427:4434   */\n      0x00\n        /* \"#utility.yul\":4456:4480   */\n      tag_242\n        /* \"#utility.yul\":4474:4479   */\n      dup3\n        /* \"#utility.yul\":4456:4480   */\n      tag_131\n      jump\t// in\n    tag_242:\n        /* \"#utility.yul\":4445:4480   */\n      swap1\n      pop\n        /* \"#utility.yul\":4382:4486   */\n      swap2\n      swap1\n      pop\n      jump\t// out\n        /* \"#utility.yul\":4492:4630   */\n    tag_147:\n        /* \"#utility.yul\":4573:4605   */\n      tag_244\n        /* \"#utility.yul\":4599:4604   */\n      dup2\n        /* \"#utility.yul\":4573:4605   */\n      tag_146\n      jump\t// in\n    tag_244:\n        /* \"#utility.yul\":4566:4571   */\n      dup2\n        /* \"#utility.yul\":4563:4606   */\n      eq\n        /* \"#utility.yul\":4553:4624   */\n      tag_245\n      jumpi\n        /* \"#utility.yul\":4620:4621   */\n      0x00\n        /* \"#utility.yul\":4617:4618   */\n      dup1\n        /* \"#utility.yul\":4610:4622   */\n      revert\n        /* \"#utility.yul\":4553:4624   */\n    tag_245:\n        /* \"#utility.yul\":4492:4630   */\n      pop\n      jump\t// out\n        /* \"#utility.yul\":4636:4791   */\n    tag_148:\n        /* \"#utility.yul\":4690:4695   */\n      0x00\n        /* \"#utility.yul\":4728:4734   */\n      dup2\n        /* \"#utility.yul\":4715:4735   */\n      calldataload\n        /* \"#utility.yul\":4706:4735   */\n      swap1\n      pop\n        /* \"#utility.yul\":4744:4785   */\n      tag_247\n        /* \"#utility.yul\":4779:4784   */\n      dup2\n        /* \"#utility.yul\":4744:4785   */\n      tag_147\n      jump\t// in\n    tag_247:\n        /* \"#utility.yul\":4636:4791   */\n      swap3\n      swap2\n      pop\n      pop\n      jump\t// out\n        /* \"#utility.yul\":4797:5287   */\n    tag_29:\n        /* \"#utility.yul\":4873:4879   */\n      0x00\n        /* \"#utility.yul\":4881:4887   */\n      dup1\n        /* \"#utility.yul\":4930:4932   */\n      0x40\n        /* \"#utility.yul\":4918:4927   */\n      dup4\n        /* \"#utility.yul\":4909:4916   */\n      dup6\n        /* \"#utility.yul\":4905:4928   */\n      sub\n        /* \"#utility.yul\":4901:4933   */\n      slt\n        /* \"#utility.yul\":4898:5017   */\n      iszero\n      tag_249\n      jumpi\n        /* \"#utility.yul\":4936:5015   */\n      tag_250\n      tag_129\n      jump\t// in\n    tag_250:\n        /* \"#utility.yul\":4898:5017   */\n    tag_249:\n        /* \"#utility.yul\":5056:5057   */\n      0x00\n        /* \"#utility.yul\":5081:5142   */\n      tag_251\n        /* \"#utility.yul\":5134:5141   */\n      dup6\n        /* \"#utility.yul\":5125:5131   */\n      dup3\n        /* \"#utility.yul\":5114:5123   */\n      dup7\n        /* \"#utility.yul\":5110:5132   */\n      add\n        /* \"#utility.yul\":5081:5142   */\n      tag_148\n      jump\t// in\n    tag_251:\n        /* \"#utility.yul\":5071:5142   */\n      swap3\n      pop\n        /* \"#utility.yul\":5027:5152   */\n      pop\n        /* \"#utility.yul\":5191:5193   */\n      0x20\n        /* \"#utility.yul\":5217:5270   */\n      tag_252\n        /* \"#utility.yul\":5262:5269   */\n      dup6\n        /* \"#utility.yul\":5253:5259   */\n      dup3\n        /* \"#utility.yul\":5242:5251   */\n      dup7\n        /* \"#utility.yul\":5238:5260   */\n      add\n        /* \"#utility.yul\":5217:5270   */\n      tag_141\n      jump\t// in\n    tag_252:\n        /* \"#utility.yul\":5207:5270   */\n      swap2\n      pop\n        /* \"#utility.yul\":5162:5280   */\n      pop\n        /* \"#utility.yul\":4797:5287   */\n      swap3\n      pop\n      swap3\n      swap1\n      pop\n      jump\t// out\n        /* \"#utility.yul\":5293:6058   */\n    tag_34:\n        /* \"#utility.yul\":5379:5385   */\n      0x00\n        /* \"#utility.yul\":5387:5393   */\n      dup1\n        /* \"#utility.yul\":5395:5401   */\n      0x00\n        /* \"#utility.yul\":5403:5409   */\n      dup1\n        /* \"#utility.yul\":5452:5455   */\n      0x80\n        /* \"#utility.yul\":5440:5449   */\n      dup6\n        /* \"#utility.yul\":5431:5438   */\n      dup8\n        /* \"#utility.yul\":5427:5450   */\n      sub\n        /* \"#utility.yul\":5423:5456   */\n      slt\n        /* \"#utility.yul\":5420:5540   */\n      iszero\n      tag_254\n      jumpi\n        /* \"#utility.yul\":5459:5538   */\n      tag_255\n      tag_129\n      jump\t// in\n    tag_255:\n        /* \"#utility.yul\":5420:5540   */\n    tag_254:\n        /* \"#utility.yul\":5579:5580   */\n      0x00\n        /* \"#utility.yul\":5604:5657   */\n      tag_256\n        /* \"#utility.yul\":5649:5656   */\n      dup8\n        /* \"#utility.yul\":5640:5646   */\n      dup3\n        /* \"#utility.yul\":5629:5638   */\n      dup9\n        /* \"#utility.yul\":5625:5647   */\n      add\n        /* \"#utility.yul\":5604:5657   */\n      tag_134\n      jump\t// in\n    tag_256:\n        /* \"#utility.yul\":5594:5657   */\n      swap5\n      pop\n        /* \"#utility.yul\":5550:5667   */\n      pop\n        /* \"#utility.yul\":5706:5708   */\n      0x20\n        /* \"#utility.yul\":5732:5785   */\n      tag_257\n        /* \"#utility.yul\":5777:5784   */\n      dup8\n        /* \"#utility.yul\":5768:5774   */\n      dup3\n        /* \"#utility.yul\":5757:5766   */\n      dup9\n        /* \"#utility.yul\":5753:5775   */\n      add\n        /* \"#utility.yul\":5732:5785   */\n      tag_141\n      jump\t// in\n    tag_257:\n        /* \"#utility.yul\":5722:5785   */\n      swap4\n      pop\n        /* \"#utility.yul\":5677:5795   */\n      pop\n        /* \"#utility.yul\":5834:5836   */\n      0x40\n        /* \"#utility.yul\":5860:5913   */\n      tag_258\n        /* \"#utility.yul\":5905:5912   */\n      dup8\n        /* \"#utility.yul\":5896:5902   */\n      dup3\n        /* \"#utility.yul\":5885:5894   */\n      dup9\n        /* \"#utility.yul\":5881:5903   */\n      add\n        /* \"#utility.yul\":5860:5913   */\n      tag_141\n      jump\t// in\n    tag_258:\n        /* \"#utility.yul\":5850:5913   */\n      swap3\n      pop\n        /* \"#utility.yul\":5805:5923   */\n      pop\n        /* \"#utility.yul\":5962:5964   */\n      0x60\n        /* \"#utility.yul\":5988:6041   */\n      tag_259\n        /* \"#utility.yul\":6033:6040   */\n      dup8\n        /* \"#utility.yul\":6024:6030   */\n      dup3\n        /* \"#utility.yul\":6013:6022   */\n      dup9\n        /* \"#utility.yul\":6009:6031   */\n      add\n        /* \"#utility.yul\":5988:6041   */\n      tag_141\n      jump\t// in\n    tag_259:\n        /* \"#utility.yul\":5978:6041   */\n      swap2\n      pop\n        /* \"#utility.yul\":5933:6051   */\n      pop\n        /* \"#utility.yul\":5293:6058   */\n      swap3\n      swap6\n      swap2\n      swap5\n      pop\n      swap3\n      pop\n      jump\t// out\n        /* \"#utility.yul\":6064:6538   */\n    tag_39:\n        /* \"#utility.yul\":6132:6138   */\n      0x00\n        /* \"#utility.yul\":6140:6146   */\n      dup1\n        /* \"#utility.yul\":6189:6191   */\n      0x40\n        /* \"#utility.yul\":6177:6186   */\n      dup4\n        /* \"#utility.yul\":6168:6175   */\n      dup6\n        /* \"#utility.yul\":6164:6187   */\n      sub\n        /* \"#utility.yul\":6160:6192   */\n      slt\n        /* \"#utility.yul\":6157:6276   */\n      iszero\n      tag_261\n      jumpi\n        /* \"#utility.yul\":6195:6274   */\n      tag_262\n      tag_129\n      jump\t// in\n    tag_262:\n        /* \"#utility.yul\":6157:6276   */\n    tag_261:\n        /* \"#utility.yul\":6315:6316   */\n      0x00\n        /* \"#utility.yul\":6340:6393   */\n      tag_263\n        /* \"#utility.yul\":6385:6392   */\n      dup6\n        /* \"#utility.yul\":6376:6382   */\n      dup3\n        /* \"#utility.yul\":6365:6374   */\n      dup7\n        /* \"#utility.yul\":6361:6383   */\n      add\n        /* \"#utility.yul\":6340:6393   */\n      tag_134\n      jump\t// in\n    tag_263:\n        /* \"#utility.yul\":6330:6393   */\n      swap3\n      pop\n        /* \"#utility.yul\":6286:6403   */\n      pop\n        /* \"#utility.yul\":6442:6444   */\n      0x20\n        /* \"#utility.yul\":6468:6521   */\n      tag_264\n        /* \"#utility.yul\":6513:6520   */\n      dup6\n        /* \"#utility.yul\":6504:6510   */\n      dup3\n        /* \"#utility.yul\":6493:6502   */\n      dup7\n        /* \"#utility.yul\":6489:6511   */\n      add\n        /* \"#utility.yul\":6468:6521   */\n      tag_141\n      jump\t// in\n    tag_264:\n        /* \"#utility.yul\":6458:6521   */\n      swap2\n      pop\n        /* \"#utility.yul\":6413:6531   */\n      pop\n        /* \"#utility.yul\":6064:6538   */\n      swap3\n      pop\n      swap3\n      swap1\n      pop\n      jump\t// out\n        /* \"#utility.yul\":6544:6643   */\n    tag_149:\n        /* \"#utility.yul\":6596:6602   */\n      0x00\n        /* \"#utility.yul\":6630:6635   */\n      dup2\n        /* \"#utility.yul\":6624:6636   */\n      mload\n        /* \"#utility.yul\":6614:6636   */\n      swap1\n      pop\n        /* \"#utility.yul\":6544:6643   */\n      swap2\n      swap1\n      pop\n      jump\t// out\n        /* \"#utility.yul\":6649:6818   */\n    tag_150:\n        /* \"#utility.yul\":6733:6744   */\n      0x00\n        /* \"#utility.yul\":6767:6773   */\n      dup3\n        /* \"#utility.yul\":6762:6765   */\n      dup3\n        /* \"#utility.yul\":6755:6774   */\n      mstore\n        /* \"#utility.yul\":6807:6811   */\n      0x20\n        /* \"#utility.yul\":6802:6805   */\n      dup3\n        /* \"#utility.yul\":6798:6812   */\n      add\n        /* \"#utility.yul\":6783:6812   */\n      swap1\n      pop\n        /* \"#utility.yul\":6649:6818   */\n      swap3\n      swap2\n      pop\n      pop\n      jump\t// out\n        /* \"#utility.yul\":6824:6963   */\n    tag_151:\n        /* \"#utility.yul\":6913:6919   */\n      dup3\n        /* \"#utility.yul\":6908:6911   */\n      dup2\n        /* \"#utility.yul\":6903:6906   */\n      dup4\n        /* \"#utility.yul\":6897:6920   */\n      mcopy\n        /* \"#utility.yul\":6954:6955   */\n      0x00\n        /* \"#utility.yul\":6945:6951   */\n      dup4\n        /* \"#utility.yul\":6940:6943   */\n      dup4\n        /* \"#utility.yul\":6936:6952   */\n      add\n        /* \"#utility.yul\":6929:6956   */\n      mstore\n        /* \"#utility.yul\":6824:6963   */\n      pop\n      pop\n      pop\n      jump\t// out\n        /* \"#utility.yul\":6969:7071   */\n    tag_152:\n        /* \"#utility.yul\":7010:7016   */\n      0x00\n        /* \"#utility.yul\":7061:7063   */\n      0x1f\n        /* \"#utility.yul\":7057:7064   */\n      not\n        /* \"#utility.yul\":7052:7054   */\n      0x1f\n        /* \"#utility.yul\":7045:7050   */\n      dup4\n        /* \"#utility.yul\":7041:7055   */\n      add\n        /* \"#utility.yul\":7037:7065   */\n      and\n        /* \"#utility.yul\":7027:7065   */\n      swap1\n      pop\n        /* \"#utility.yul\":6969:7071   */\n      swap2\n      swap1\n      pop\n      jump\t// out\n        /* \"#utility.yul\":7077:7454   */\n    tag_153:\n        /* \"#utility.yul\":7165:7168   */\n      0x00\n        /* \"#utility.yul\":7193:7232   */\n      tag_270\n        /* \"#utility.yul\":7226:7231   */\n      dup3\n        /* \"#utility.yul\":7193:7232   */\n      tag_149\n      jump\t// in\n    tag_270:\n        /* \"#utility.yul\":7248:7319   */\n      tag_271\n        /* \"#utility.yul\":7312:7318   */\n      dup2\n        /* \"#utility.yul\":7307:7310   */\n      dup6\n        /* \"#utility.yul\":7248:7319   */\n      tag_150\n      jump\t// in\n    tag_271:\n        /* \"#utility.yul\":7241:7319   */\n      swap4\n      pop\n        /* \"#utility.yul\":7328:7393   */\n      tag_272\n        /* \"#utility.yul\":7386:7392   */\n      dup2\n        /* \"#utility.yul\":7381:7384   */\n      dup6\n        /* \"#utility.yul\":7374:7378   */\n      0x20\n        /* \"#utility.yul\":7367:7372   */\n      dup7\n        /* \"#utility.yul\":7363:7379   */\n      add\n        /* \"#utility.yul\":7328:7393   */\n      tag_151\n      jump\t// in\n    tag_272:\n        /* \"#utility.yul\":7418:7447   */\n      tag_273\n        /* \"#utility.yul\":7440:7446   */\n      dup2\n        /* \"#utility.yul\":7418:7447   */\n      tag_152\n      jump\t// in\n    tag_273:\n        /* \"#utility.yul\":7413:7416   */\n      dup5\n        /* \"#utility.yul\":7409:7448   */\n      add\n        /* \"#utility.yul\":7402:7448   */\n      swap2\n      pop\n        /* \"#utility.yul\":7169:7454   */\n      pop\n        /* \"#utility.yul\":7077:7454   */\n      swap3\n      swap2\n      pop\n      pop\n      jump\t// out\n        /* \"#utility.yul\":7460:8080   */\n    tag_42:\n        /* \"#utility.yul\":7645:7649   */\n      0x00\n        /* \"#utility.yul\":7683:7686   */\n      0x80\n        /* \"#utility.yul\":7672:7681   */\n      dup3\n        /* \"#utility.yul\":7668:7687   */\n      add\n        /* \"#utility.yul\":7660:7687   */\n      swap1\n      pop\n        /* \"#utility.yul\":7697:7768   */\n      tag_275\n        /* \"#utility.yul\":7765:7766   */\n      0x00\n        /* \"#utility.yul\":7754:7763   */\n      dup4\n        /* \"#utility.yul\":7750:7767   */\n      add\n        /* \"#utility.yul\":7741:7747   */\n      dup8\n        /* \"#utility.yul\":7697:7768   */\n      tag_137\n      jump\t// in\n    tag_275:\n        /* \"#utility.yul\":7815:7824   */\n      dup2\n        /* \"#utility.yul\":7809:7813   */\n      dup2\n        /* \"#utility.yul\":7805:7825   */\n      sub\n        /* \"#utility.yul\":7800:7802   */\n      0x20\n        /* \"#utility.yul\":7789:7798   */\n      dup4\n        /* \"#utility.yul\":7785:7803   */\n      add\n        /* \"#utility.yul\":7778:7826   */\n      mstore\n        /* \"#utility.yul\":7843:7921   */\n      tag_276\n        /* \"#utility.yul\":7916:7920   */\n      dup2\n        /* \"#utility.yul\":7907:7913   */\n      dup7\n        /* \"#utility.yul\":7843:7921   */\n      tag_153\n      jump\t// in\n    tag_276:\n        /* \"#utility.yul\":7835:7921   */\n      swap1\n      pop\n        /* \"#utility.yul\":7931:7997   */\n      tag_277\n        /* \"#utility.yul\":7993:7995   */\n      0x40\n        /* \"#utility.yul\":7982:7991   */\n      dup4\n        /* \"#utility.yul\":7978:7996   */\n      add\n        /* \"#utility.yul\":7969:7975   */\n      dup6\n        /* \"#utility.yul\":7931:7997   */\n      tag_139\n      jump\t// in\n    tag_277:\n        /* \"#utility.yul\":8007:8073   */\n      tag_278\n        /* \"#utility.yul\":8069:8071   */\n      0x60\n        /* \"#utility.yul\":8058:8067   */\n      dup4\n        /* \"#utility.yul\":8054:8072   */\n      add\n        /* \"#utility.yul\":8045:8051   */\n      dup5\n        /* \"#utility.yul\":8007:8073   */\n      tag_139\n      jump\t// in\n    tag_278:\n        /* \"#utility.yul\":7460:8080   */\n      swap6\n      swap5\n      pop\n      pop\n      pop\n      pop\n      pop\n      jump\t// out\n        /* \"#utility.yul\":8086:8308   */\n    tag_47:\n        /* \"#utility.yul\":8179:8183   */\n      0x00\n        /* \"#utility.yul\":8217:8219   */\n      0x20\n        /* \"#utility.yul\":8206:8215   */\n      dup3\n        /* \"#utility.yul\":8202:8220   */\n      add\n        /* \"#utility.yul\":8194:8220   */\n      swap1\n      pop\n        /* \"#utility.yul\":8230:8301   */\n      tag_280\n        /* \"#utility.yul\":8298:8299   */\n      0x00\n        /* \"#utility.yul\":8287:8296   */\n      dup4\n        /* \"#utility.yul\":8283:8300   */\n      add\n        /* \"#utility.yul\":8274:8280   */\n      dup5\n        /* \"#utility.yul\":8230:8301   */\n      tag_135\n      jump\t// in\n    tag_280:\n        /* \"#utility.yul\":8086:8308   */\n      swap3\n      swap2\n      pop\n      pop\n      jump\t// out\n        /* \"#utility.yul\":8314:8524   */\n    tag_53:\n        /* \"#utility.yul\":8401:8405   */\n      0x00\n        /* \"#utility.yul\":8439:8441   */\n      0x20\n        /* \"#utility.yul\":8428:8437   */\n      dup3\n        /* \"#utility.yul\":8424:8442   */\n      add\n        /* \"#utility.yul\":8416:8442   */\n      swap1\n      pop\n        /* \"#utility.yul\":8452:8517   */\n      tag_282\n        /* \"#utility.yul\":8514:8515   */\n      0x00\n        /* \"#utility.yul\":8503:8512   */\n      dup4\n        /* \"#utility.yul\":8499:8516   */\n      add\n        /* \"#utility.yul\":8490:8496   */\n      dup5\n        /* \"#utility.yul\":8452:8517   */\n      tag_139\n      jump\t// in\n    tag_282:\n        /* \"#utility.yul\":8314:8524   */\n      swap3\n      swap2\n      pop\n      pop\n      jump\t// out\n        /* \"#utility.yul\":8530:8695   */\n    tag_154:\n        /* \"#utility.yul\":8670:8687   */\n      0x506f6c69637920696e6163746976650000000000000000000000000000000000\n        /* \"#utility.yul\":8666:8667   */\n      0x00\n        /* \"#utility.yul\":8658:8664   */\n      dup3\n        /* \"#utility.yul\":8654:8668   */\n      add\n        /* \"#utility.yul\":8647:8688   */\n      mstore\n        /* \"#utility.yul\":8530:8695   */\n      pop\n      jump\t// out\n        /* \"#utility.yul\":8701:9067   */\n    tag_155:\n        /* \"#utility.yul\":8843:8846   */\n      0x00\n        /* \"#utility.yul\":8864:8931   */\n      tag_285\n        /* \"#utility.yul\":8928:8930   */\n      0x0f\n        /* \"#utility.yul\":8923:8926   */\n      dup4\n        /* \"#utility.yul\":8864:8931   */\n      tag_150\n      jump\t// in\n    tag_285:\n        /* \"#utility.yul\":8857:8931   */\n      swap2\n      pop\n        /* \"#utility.yul\":8940:9033   */\n      tag_286\n        /* \"#utility.yul\":9029:9032   */\n      dup3\n        /* \"#utility.yul\":8940:9033   */\n      tag_154\n      jump\t// in\n    tag_286:\n        /* \"#utility.yul\":9058:9060   */\n      0x20\n        /* \"#utility.yul\":9053:9056   */\n      dup3\n        /* \"#utility.yul\":9049:9061   */\n      add\n        /* \"#utility.yul\":9042:9061   */\n      swap1\n      pop\n        /* \"#utility.yul\":8701:9067   */\n      swap2\n      swap1\n      pop\n      jump\t// out\n        /* \"#utility.yul\":9073:9492   */\n    tag_61:\n        /* \"#utility.yul\":9239:9243   */\n      0x00\n        /* \"#utility.yul\":9277:9279   */\n      0x20\n        /* \"#utility.yul\":9266:9275   */\n      dup3\n        /* \"#utility.yul\":9262:9280   */\n      add\n        /* \"#utility.yul\":9254:9280   */\n      swap1\n      pop\n        /* \"#utility.yul\":9326:9335   */\n      dup2\n        /* \"#utility.yul\":9320:9324   */\n      dup2\n        /* \"#utility.yul\":9316:9336   */\n      sub\n        /* \"#utility.yul\":9312:9313   */\n      0x00\n        /* \"#utility.yul\":9301:9310   */\n      dup4\n        /* \"#utility.yul\":9297:9314   */\n      add\n        /* \"#utility.yul\":9290:9337   */\n      mstore\n        /* \"#utility.yul\":9354:9485   */\n      tag_288\n        /* \"#utility.yul\":9480:9484   */\n      dup2\n        /* \"#utility.yul\":9354:9485   */\n      tag_155\n      jump\t// in\n    tag_288:\n        /* \"#utility.yul\":9346:9485   */\n      swap1\n      pop\n        /* \"#utility.yul\":9073:9492   */\n      swap2\n      swap1\n      pop\n      jump\t// out\n        /* \"#utility.yul\":9498:9678   */\n    tag_156:\n        /* \"#utility.yul\":9546:9623   */\n      0x4e487b7100000000000000000000000000000000000000000000000000000000\n        /* \"#utility.yul\":9543:9544   */\n      0x00\n        /* \"#utility.yul\":9536:9624   */\n      mstore\n        /* \"#utility.yul\":9643:9647   */\n      0x11\n        /* \"#utility.yul\":9640:9641   */\n      0x04\n        /* \"#utility.yul\":9633:9648   */\n      mstore\n        /* \"#utility.yul\":9667:9671   */\n      0x24\n        /* \"#utility.yul\":9664:9665   */\n      0x00\n        /* \"#utility.yul\":9657:9672   */\n      revert\n        /* \"#utility.yul\":9684:9875   */\n    tag_63:\n        /* \"#utility.yul\":9724:9727   */\n      0x00\n        /* \"#utility.yul\":9743:9763   */\n      tag_291\n        /* \"#utility.yul\":9761:9762   */\n      dup3\n        /* \"#utility.yul\":9743:9763   */\n      tag_136\n      jump\t// in\n    tag_291:\n        /* \"#utility.yul\":9738:9763   */\n      swap2\n      pop\n        /* \"#utility.yul\":9777:9797   */\n      tag_292\n        /* \"#utility.yul\":9795:9796   */\n      dup4\n        /* \"#utility.yul\":9777:9797   */\n      tag_136\n      jump\t// in\n    tag_292:\n        /* \"#utility.yul\":9772:9797   */\n      swap3\n      pop\n        /* \"#utility.yul\":9820:9821   */\n      dup3\n        /* \"#utility.yul\":9817:9818   */\n      dup3\n        /* \"#utility.yul\":9813:9822   */\n      add\n        /* \"#utility.yul\":9806:9822   */\n      swap1\n      pop\n        /* \"#utility.yul\":9841:9844   */\n      dup1\n        /* \"#utility.yul\":9838:9839   */\n      dup3\n        /* \"#utility.yul\":9835:9845   */\n      gt\n        /* \"#utility.yul\":9832:9868   */\n      iszero\n      tag_293\n      jumpi\n        /* \"#utility.yul\":9848:9866   */\n      tag_294\n      tag_156\n      jump\t// in\n    tag_294:\n        /* \"#utility.yul\":9832:9868   */\n    tag_293:\n        /* \"#utility.yul\":9684:9875   */\n      swap3\n      swap2\n      pop\n      pop\n      jump\t// out\n        /* \"#utility.yul\":9881:10045   */\n    tag_157:\n        /* \"#utility.yul\":10021:10037   */\n      0x506f6c6963792065787069726564000000000000000000000000000000000000\n        /* \"#utility.yul\":10017:10018   */\n      0x00\n        /* \"#utility.yul\":10009:10015   */\n      dup3\n        /* \"#utility.yul\":10005:10019   */\n      add\n        /* \"#utility.yul\":9998:10038   */\n      mstore\n        /* \"#utility.yul\":9881:10045   */\n      pop\n      jump\t// out\n        /* \"#utility.yul\":10051:10417   */\n    tag_158:\n        /* \"#utility.yul\":10193:10196   */\n      0x00\n        /* \"#utility.yul\":10214:10281   */\n      tag_297\n        /* \"#utility.yul\":10278:10280   */\n      0x0e\n        /* \"#utility.yul\":10273:10276   */\n      dup4\n        /* \"#utility.yul\":10214:10281   */\n      tag_150\n      jump\t// in\n    tag_297:\n        /* \"#utility.yul\":10207:10281   */\n      swap2\n      pop\n        /* \"#utility.yul\":10290:10383   */\n      tag_298\n        /* \"#utility.yul\":10379:10382   */\n      dup3\n        /* \"#utility.yul\":10290:10383   */\n      tag_157\n      jump\t// in\n    tag_298:\n        /* \"#utility.yul\":10408:10410   */\n      0x20\n        /* \"#utility.yul\":10403:10406   */\n      dup3\n        /* \"#utility.yul\":10399:10411   */\n      add\n        /* \"#utility.yul\":10392:10411   */\n      swap1\n      pop\n        /* \"#utility.yul\":10051:10417   */\n      swap2\n      swap1\n      pop\n      jump\t// out\n        /* \"#utility.yul\":10423:10842   */\n    tag_66:\n        /* \"#utility.yul\":10589:10593   */\n      0x00\n        /* \"#utility.yul\":10627:10629   */\n      0x20\n        /* \"#utility.yul\":10616:10625   */\n      dup3\n        /* \"#utility.yul\":10612:10630   */\n      add\n        /* \"#utility.yul\":10604:10630   */\n      swap1\n      pop\n        /* \"#utility.yul\":10676:10685   */\n      dup2\n        /* \"#utility.yul\":10670:10674   */\n      dup2\n        /* \"#utility.yul\":10666:10686   */\n      sub\n        /* \"#utility.yul\":10662:10663   */\n      0x00\n        /* \"#utility.yul\":10651:10660   */\n      dup4\n        /* \"#utility.yul\":10647:10664   */\n      add\n        /* \"#utility.yul\":10640:10687   */\n      mstore\n        /* \"#utility.yul\":10704:10835   */\n      tag_300\n        /* \"#utility.yul\":10830:10834   */\n      dup2\n        /* \"#utility.yul\":10704:10835   */\n      tag_158\n      jump\t// in\n    tag_300:\n        /* \"#utility.yul\":10696:10835   */\n      swap1\n      pop\n        /* \"#utility.yul\":10423:10842   */\n      swap2\n      swap1\n      pop\n      jump\t// out\n        /* \"#utility.yul\":10848:11015   */\n    tag_159:\n        /* \"#utility.yul\":10988:11007   */\n      0x496e636f7272656374207072656d69756d000000000000000000000000000000\n        /* \"#utility.yul\":10984:10985   */\n      0x00\n        /* \"#utility.yul\":10976:10982   */\n      dup3\n        /* \"#utility.yul\":10972:10986   */\n      add\n        /* \"#utility.yul\":10965:11008   */\n      mstore\n        /* \"#utility.yul\":10848:11015   */\n      pop\n      jump\t// out\n        /* \"#utility.yul\":11021:11387   */\n    tag_160:\n        /* \"#utility.yul\":11163:11166   */\n      0x00\n        /* \"#utility.yul\":11184:11251   */\n      tag_303\n        /* \"#utility.yul\":11248:11250   */\n      0x11\n        /* \"#utility.yul\":11243:11246   */\n      dup4\n        /* \"#utility.yul\":11184:11251   */\n      tag_150\n      jump\t// in\n    tag_303:\n        /* \"#utility.yul\":11177:11251   */\n      swap2\n      pop\n        /* \"#utility.yul\":11260:11353   */\n      tag_304\n        /* \"#utility.yul\":11349:11352   */\n      dup3\n        /* \"#utility.yul\":11260:11353   */\n      tag_159\n      jump\t// in\n    tag_304:\n        /* \"#utility.yul\":11378:11380   */\n      0x20\n        /* \"#utility.yul\":11373:11376   */\n      dup3\n        /* \"#utility.yul\":11369:11381   */\n      add\n        /* \"#utility.yul\":11362:11381   */\n      swap1\n      pop\n        /* \"#utility.yul\":11021:11387   */\n      swap2\n      swap1\n      pop\n      jump\t// out\n        /* \"#utility.yul\":11393:11812   */\n    tag_69:\n        /* \"#utility.yul\":11559:11563   */\n      0x00\n        /* \"#utility.yul\":11597:11599   */\n      0x20\n        /* \"#utility.yul\":11586:11595   */\n      dup3\n        /* \"#utility.yul\":11582:11600   */\n      add\n        /* \"#utility.yul\":11574:11600   */\n      swap1\n      pop\n        /* \"#utility.yul\":11646:11655   */\n      dup2\n        /* \"#utility.yul\":11640:11644   */\n      dup2\n        /* \"#utility.yul\":11636:11656   */\n      sub\n        /* \"#utility.yul\":11632:11633   */\n      0x00\n        /* \"#utility.yul\":11621:11630   */\n      dup4\n        /* \"#utility.yul\":11617:11634   */\n      add\n        /* \"#utility.yul\":11610:11657   */\n      mstore\n        /* \"#utility.yul\":11674:11805   */\n      tag_306\n        /* \"#utility.yul\":11800:11804   */\n      dup2\n        /* \"#utility.yul\":11674:11805   */\n      tag_160\n      jump\t// in\n    tag_306:\n        /* \"#utility.yul\":11666:11805   */\n      swap1\n      pop\n        /* \"#utility.yul\":11393:11812   */\n      swap2\n      swap1\n      pop\n      jump\t// out\n        /* \"#utility.yul\":11818:12040   */\n    tag_71:\n        /* \"#utility.yul\":11911:11915   */\n      0x00\n        /* \"#utility.yul\":11949:11951   */\n      0x20\n        /* \"#utility.yul\":11938:11947   */\n      dup3\n        /* \"#utility.yul\":11934:11952   */\n      add\n        /* \"#utility.yul\":11926:11952   */\n      swap1\n      pop\n        /* \"#utility.yul\":11962:12033   */\n      tag_308\n        /* \"#utility.yul\":12030:12031   */\n      0x00\n        /* \"#utility.yul\":12019:12028   */\n      dup4\n        /* \"#utility.yul\":12015:12032   */\n      add\n        /* \"#utility.yul\":12006:12012   */\n      dup5\n        /* \"#utility.yul\":11962:12033   */\n      tag_137\n      jump\t// in\n    tag_308:\n        /* \"#utility.yul\":11818:12040   */\n      swap3\n      swap2\n      pop\n      pop\n      jump\t// out\n        /* \"#utility.yul\":12046:12226   */\n    tag_161:\n        /* \"#utility.yul\":12094:12171   */\n      0x4e487b7100000000000000000000000000000000000000000000000000000000\n        /* \"#utility.yul\":12091:12092   */\n      0x00\n        /* \"#utility.yul\":12084:12172   */\n      mstore\n        /* \"#utility.yul\":12191:12195   */\n      0x41\n        /* \"#utility.yul\":12188:12189   */\n      0x04\n        /* \"#utility.yul\":12181:12196   */\n      mstore\n        /* \"#utility.yul\":12215:12219   */\n      0x24\n        /* \"#utility.yul\":12212:12213   */\n      0x00\n        /* \"#utility.yul\":12205:12220   */\n      revert\n        /* \"#utility.yul\":12232:12412   */\n    tag_162:\n        /* \"#utility.yul\":12280:12357   */\n      0x4e487b7100000000000000000000000000000000000000000000000000000000\n        /* \"#utility.yul\":12277:12278   */\n      0x00\n        /* \"#utility.yul\":12270:12358   */\n      mstore\n        /* \"#utility.yul\":12377:12381   */\n      0x22\n        /* \"#utility.yul\":12374:12375   */\n      0x04\n        /* \"#utility.yul\":12367:12382   */\n      mstore\n        /* \"#utility.yul\":12401:12405   */\n      0x24\n        /* \"#utility.yul\":12398:12399   */\n      0x00\n        /* \"#utility.yul\":12391:12406   */\n      revert\n        /* \"#utility.yul\":12418:12738   */\n    tag_110:\n        /* \"#utility.yul\":12462:12468   */\n      0x00\n        /* \"#utility.yul\":12499:12500   */\n      0x02\n        /* \"#utility.yul\":12493:12497   */\n      dup3\n        /* \"#utility.yul\":12489:12501   */\n      div\n        /* \"#utility.yul\":12479:12501   */\n      swap1\n      pop\n        /* \"#utility.yul\":12546:12547   */\n      0x01\n        /* \"#utility.yul\":12540:12544   */\n      dup3\n        /* \"#utility.yul\":12536:12548   */\n      and\n        /* \"#utility.yul\":12567:12585   */\n      dup1\n        /* \"#utility.yul\":12557:12638   */\n      tag_312\n      jumpi\n        /* \"#utility.yul\":12623:12627   */\n      0x7f\n        /* \"#utility.yul\":12615:12621   */\n      dup3\n        /* \"#utility.yul\":12611:12628   */\n      and\n        /* \"#utility.yul\":12601:12628   */\n      swap2\n      pop\n        /* \"#utility.yul\":12557:12638   */\n    tag_312:\n        /* \"#utility.yul\":12685:12687   */\n      0x20\n        /* \"#utility.yul\":12677:12683   */\n      dup3\n        /* \"#utility.yul\":12674:12688   */\n      lt\n        /* \"#utility.yul\":12654:12672   */\n      dup2\n        /* \"#utility.yul\":12651:12689   */\n      sub\n        /* \"#utility.yul\":12648:12732   */\n      tag_313\n      jumpi\n        /* \"#utility.yul\":12704:12722   */\n      tag_314\n      tag_162\n      jump\t// in\n    tag_314:\n        /* \"#utility.yul\":12648:12732   */\n    tag_313:\n        /* \"#utility.yul\":12469:12738   */\n      pop\n        /* \"#utility.yul\":12418:12738   */\n      swap2\n      swap1\n      pop\n      jump\t// out\n        /* \"#utility.yul\":12744:12885   */\n    tag_163:\n        /* \"#utility.yul\":12793:12797   */\n      0x00\n        /* \"#utility.yul\":12816:12819   */\n      dup2\n        /* \"#utility.yul\":12808:12819   */\n      swap1\n      pop\n        /* \"#utility.yul\":12839:12842   */\n      dup2\n        /* \"#utility.yul\":12836:12837   */\n      0x00\n        /* \"#utility.yul\":12829:12843   */\n      mstore\n        /* \"#utility.yul\":12873:12877   */\n      0x20\n        /* \"#utility.yul\":12870:12871   */\n      0x00\n        /* \"#utility.yul\":12860:12878   */\n      keccak256\n        /* \"#utility.yul\":12852:12878   */\n      swap1\n      pop\n        /* \"#utility.yul\":12744:12885   */\n      swap2\n      swap1\n      pop\n      jump\t// out\n        /* \"#utility.yul\":12891:12984   */\n    tag_164:\n        /* \"#utility.yul\":12928:12934   */\n      0x00\n        /* \"#utility.yul\":12975:12977   */\n      0x20\n        /* \"#utility.yul\":12970:12972   */\n      0x1f\n        /* \"#utility.yul\":12963:12968   */\n      dup4\n        /* \"#utility.yul\":12959:12973   */\n      add\n        /* \"#utility.yul\":12955:12978   */\n      div\n        /* \"#utility.yul\":12945:12978   */\n      swap1\n      pop\n        /* \"#utility.yul\":12891:12984   */\n      swap2\n      swap1\n      pop\n      jump\t// out\n        /* \"#utility.yul\":12990:13097   */\n    tag_165:\n        /* \"#utility.yul\":13034:13042   */\n      0x00\n        /* \"#utility.yul\":13084:13089   */\n      dup3\n        /* \"#utility.yul\":13078:13082   */\n      dup3\n        /* \"#utility.yul\":13074:13090   */\n      shl\n        /* \"#utility.yul\":13053:13090   */\n      swap1\n      pop\n        /* \"#utility.yul\":12990:13097   */\n      swap3\n      swap2\n      pop\n      pop\n      jump\t// out\n        /* \"#utility.yul\":13103:13496   */\n    tag_166:\n        /* \"#utility.yul\":13172:13178   */\n      0x00\n        /* \"#utility.yul\":13222:13223   */\n      0x08\n        /* \"#utility.yul\":13210:13220   */\n      dup4\n        /* \"#utility.yul\":13206:13224   */\n      mul\n        /* \"#utility.yul\":13245:13342   */\n      tag_319\n        /* \"#utility.yul\":13275:13341   */\n      0xffffffffffffffffffffffffffffffffffffffffffffffffffffffffffffffff\n        /* \"#utility.yul\":13264:13273   */\n      dup3\n        /* \"#utility.yul\":13245:13342   */\n      tag_165\n      jump\t// in\n    tag_319:\n        /* \"#utility.yul\":13363:13402   */\n      tag_320\n        /* \"#utility.yul\":13393:13401   */\n      dup7\n        /* \"#utility.yul\":13382:13391   */\n      dup4\n        /* \"#utility.yul\":13363:13402   */\n      tag_165\n      jump\t// in\n    tag_320:\n        /* \"#utility.yul\":13351:13402   */\n      swap6\n      pop\n        /* \"#utility.yul\":13435:13439   */\n      dup1\n        /* \"#utility.yul\":13431:13440   */\n      not\n        /* \"#utility.yul\":13424:13429   */\n      dup5\n        /* \"#utility.yul\":13420:13441   */\n      and\n        /* \"#utility.yul\":13411:13441   */\n      swap4\n      pop\n        /* \"#utility.yul\":13484:13488   */\n      dup1\n        /* \"#utility.yul\":13474:13482   */\n      dup7\n        /* \"#utility.yul\":13470:13489   */\n      and\n        /* \"#utility.yul\":13463:13468   */\n      dup5\n        /* \"#utility.yul\":13460:13490   */\n      or\n        /* \"#utility.yul\":13450:13490   */\n      swap3\n      pop\n        /* \"#utility.yul\":13179:13496   */\n      pop\n      pop\n        /* \"#utility.yul\":13103:13496   */\n      swap4\n      swap3\n      pop\n      pop\n      pop\n      jump\t// out\n        /* \"#utility.yul\":13502:13562   */\n    tag_167:\n        /* \"#utility.yul\":13530:13533   */\n      0x00\n        /* \"#utility.yul\":13551:13556   */\n      dup2\n        /* \"#utility.yul\":13544:13556   */\n      swap1\n      pop\n        /* \"#utility.yul\":13502:13562   */\n      swap2\n      swap1\n      pop\n      jump\t// out\n        /* \"#utility.yul\":13568:13710   */\n    tag_168:\n        /* \"#utility.yul\":13618:13627   */\n      0x00\n        /* \"#utility.yul\":13651:13704   */\n      tag_323\n        /* \"#utility.yul\":13669:13703   */\n      tag_324\n        /* \"#utility.yul\":13678:13702   */\n      tag_325\n        /* \"#utility.yul\":13696:13701   */\n      dup5\n        /* \"#utility.yul\":13678:13702   */\n      tag_136\n      jump\t// in\n    tag_325:\n        /* \"#utility.yul\":13669:13703   */\n      tag_167\n      jump\t// in\n    tag_324:\n        /* \"#utility.yul\":13651:13704   */\n      tag_136\n      jump\t// in\n    tag_323:\n        /* \"#utility.yul\":13638:13704   */\n      swap1\n      pop\n        /* \"#utility.yul\":13568:13710   */\n      swap2\n      swap1\n      pop\n      jump\t// out\n        /* \"#utility.yul\":13716:13791   */\n    tag_169:\n        /* \"#utility.yul\":13759:13762   */\n      0x00\n        /* \"#utility.yul\":13780:13785   */\n      dup2\n        /* \"#utility.yul\":13773:13785   */\n      swap1\n      pop\n        /* \"#utility.yul\":13716:13791   */\n      swap2\n      swap1\n      pop\n      jump\t// out\n        /* \"#utility.yul\":13797:14066   */\n    tag_170:\n        /* \"#utility.yul\":13907:13946   */\n      tag_328\n        /* \"#utility.yul\":13938:13945   */\n      dup4\n        /* \"#utility.yul\":13907:13946   */\n      tag_168\n      jump\t// in\n    tag_328:\n        /* \"#utility.yul\":13968:14059   */\n      tag_329\n        /* \"#utility.yul\":14017:14058   */\n      tag_330\n        /* \"#utility.yul\":14041:14057   */\n      dup3\n        /* \"#utility.yul\":14017:14058   */\n      tag_169\n      jump\t// in\n    tag_330:\n        /* \"#utility.yul\":14009:14015   */\n      dup5\n        /* \"#utility.yul\":14002:14006   */\n      dup5\n        /* \"#utility.yul\":13996:14007   */\n      sload\n        /* \"#utility.yul\":13968:14059   */\n      tag_166\n      jump\t// in\n    tag_329:\n        /* \"#utility.yul\":13962:13966   */\n      dup3\n        /* \"#utility.yul\":13955:14060   */\n      sstore\n        /* \"#utility.yul\":13873:14066   */\n      pop\n        /* \"#utility.yul\":13797:14066   */\n      pop\n      pop\n      pop\n      jump\t// out\n        /* \"#utility.yul\":14072:14145   */\n    tag_171:\n        /* \"#utility.yul\":14117:14120   */\n      0x00\n        /* \"#utility.yul\":14072:14145   */\n      swap1\n      jump\t// out\n        /* \"#utility.yul\":14151:14340   */\n    tag_172:\n        /* \"#utility.yul\":14228:14260   */\n      tag_333\n      tag_171\n      jump\t// in\n    tag_333:\n        /* \"#utility.yul\":14269:14334   */\n      tag_334\n        /* \"#utility.yul\":14327:14333   */\n      dup2\n        /* \"#utility.yul\":14319:14325   */\n      dup5\n        /* \"#utility.yul\":14313:14317   */\n      dup5\n        /* \"#utility.yul\":14269:14334   */\n      tag_170\n      jump\t// in\n    tag_334:\n        /* \"#utility.yul\":14204:14340   */\n      pop\n        /* \"#utility.yul\":14151:14340   */\n      pop\n      pop\n      jump\t// out\n        /* \"#utility.yul\":14346:14532   */\n    tag_173:\n        /* \"#utility.yul\":14406:14526   */\n    tag_336:\n        /* \"#utility.yul\":14423:14426   */\n      dup2\n        /* \"#utility.yul\":14416:14421   */\n      dup2\n        /* \"#utility.yul\":14413:14427   */\n      lt\n        /* \"#utility.yul\":14406:14526   */\n      iszero\n      tag_338\n      jumpi\n        /* \"#utility.yul\":14477:14516   */\n      tag_339\n        /* \"#utility.yul\":14514:14515   */\n      0x00\n        /* \"#utility.yul\":14507:14512   */\n      dup3\n        /* \"#utility.yul\":14477:14516   */\n      tag_172\n      jump\t// in\n    tag_339:\n        /* \"#utility.yul\":14450:14451   */\n      0x01\n        /* \"#utility.yul\":14443:14448   */\n      dup2\n        /* \"#utility.yul\":14439:14452   */\n      add\n        /* \"#utility.yul\":14430:14452   */\n      swap1\n      pop\n        /* \"#utility.yul\":14406:14526   */\n      jump(tag_336)\n    tag_338:\n        /* \"#utility.yul\":14346:14532   */\n      pop\n      pop\n      jump\t// out\n        /* \"#utility.yul\":14538:15081   */\n    tag_174:\n        /* \"#utility.yul\":14639:14641   */\n      0x1f\n        /* \"#utility.yul\":14634:14637   */\n      dup3\n        /* \"#utility.yul\":14631:14642   */\n      gt\n        /* \"#utility.yul\":14628:15074   */\n      iszero\n      tag_341\n      jumpi\n        /* \"#utility.yul\":14673:14711   */\n      tag_342\n        /* \"#utility.yul\":14705:14710   */\n      dup2\n        /* \"#utility.yul\":14673:14711   */\n      tag_163\n      jump\t// in\n    tag_342:\n        /* \"#utility.yul\":14757:14786   */\n      tag_343\n        /* \"#utility.yul\":14775:14785   */\n      dup5\n        /* \"#utility.yul\":14757:14786   */\n      tag_164\n      jump\t// in\n    tag_343:\n        /* \"#utility.yul\":14747:14755   */\n      dup2\n        /* \"#utility.yul\":14743:14787   */\n      add\n        /* \"#utility.yul\":14940:14942   */\n      0x20\n        /* \"#utility.yul\":14928:14938   */\n      dup6\n        /* \"#utility.yul\":14925:14943   */\n      lt\n        /* \"#utility.yul\":14922:14971   */\n      iszero\n      tag_344\n      jumpi\n        /* \"#utility.yul\":14961:14969   */\n      dup2\n        /* \"#utility.yul\":14946:14969   */\n      swap1\n      pop\n        /* \"#utility.yul\":14922:14971   */\n    tag_344:\n        /* \"#utility.yul\":14984:15064   */\n      tag_345\n        /* \"#utility.yul\":15040:15062   */\n      tag_346\n        /* \"#utility.yul\":15058:15061   */\n      dup6\n        /* \"#utility.yul\":15040:15062   */\n      tag_164\n      jump\t// in\n    tag_346:\n        /* \"#utility.yul\":15030:15038   */\n      dup4\n        /* \"#utility.yul\":15026:15063   */\n      add\n        /* \"#utility.yul\":15013:15024   */\n      dup3\n        /* \"#utility.yul\":14984:15064   */\n      tag_173\n      jump\t// in\n    tag_345:\n        /* \"#utility.yul\":14643:15074   */\n      pop\n      pop\n        /* \"#utility.yul\":14628:15074   */\n    tag_341:\n        /* \"#utility.yul\":14538:15081   */\n      pop\n      pop\n      pop\n      jump\t// out\n        /* \"#utility.yul\":15087:15204   */\n    tag_175:\n        /* \"#utility.yul\":15141:15149   */\n      0x00\n        /* \"#utility.yul\":15191:15196   */\n      dup3\n        /* \"#utility.yul\":15185:15189   */\n      dup3\n        /* \"#utility.yul\":15181:15197   */\n      shr\n        /* \"#utility.yul\":15160:15197   */\n      swap1\n      pop\n        /* \"#utility.yul\":15087:15204   */\n      swap3\n      swap2\n      pop\n      pop\n      jump\t// out\n        /* \"#utility.yul\":15210:15379   */\n    tag_176:\n        /* \"#utility.yul\":15254:15260   */\n      0x00\n        /* \"#utility.yul\":15287:15338   */\n      tag_349\n        /* \"#utility.yul\":15335:15336   */\n      0x00\n        /* \"#utility.yul\":15331:15337   */\n      not\n        /* \"#utility.yul\":15323:15328   */\n      dup5\n        /* \"#utility.yul\":15320:15321   */\n      0x08\n        /* \"#utility.yul\":15316:15329   */\n      mul\n        /* \"#utility.yul\":15287:15338   */\n      tag_175\n      jump\t// in\n    tag_349:\n        /* \"#utility.yul\":15283:15339   */\n      not\n        /* \"#utility.yul\":15368:15372   */\n      dup1\n        /* \"#utility.yul\":15362:15366   */\n      dup4\n        /* \"#utility.yul\":15358:15373   */\n      and\n        /* \"#utility.yul\":15348:15373   */\n      swap2\n      pop\n        /* \"#utility.yul\":15261:15379   */\n      pop\n        /* \"#utility.yul\":15210:15379   */\n      swap3\n      swap2\n      pop\n      pop\n      jump\t// out\n        /* \"#utility.yul\":15384:15679   */\n    tag_177:\n        /* \"#utility.yul\":15460:15464   */\n      0x00\n        /* \"#utility.yul\":15606:15635   */\n      tag_351\n        /* \"#utility.yul\":15631:15634   */\n      dup4\n        /* \"#utility.yul\":15625:15629   */\n      dup4\n        /* \"#utility.yul\":15606:15635   */\n      tag_176\n      jump\t// in\n    tag_351:\n        /* \"#utility.yul\":15598:15635   */\n      swap2\n      pop\n        /* \"#utility.yul\":15668:15671   */\n      dup3\n        /* \"#utility.yul\":15665:15666   */\n      0x02\n        /* \"#utility.yul\":15661:15672   */\n      mul\n        /* \"#utility.yul\":15655:15659   */\n      dup3\n        /* \"#utility.yul\":15652:15673   */\n      or\n        /* \"#utility.yul\":15644:15673   */\n      swap1\n      pop\n        /* \"#utility.yul\":15384:15679   */\n      swap3\n      swap2\n      pop\n      pop\n      jump\t// out\n        /* \"#utility.yul\":15684:17079   */\n    tag_80:\n        /* \"#utility.yul\":15801:15838   */\n      tag_353\n        /* \"#utility.yul\":15834:15837   */\n      dup3\n        /* \"#utility.yul\":15801:15838   */\n      tag_149\n      jump\t// in\n    tag_353:\n        /* \"#utility.yul\":15903:15921   */\n      0xffffffffffffffff\n        /* \"#utility.yul\":15895:15901   */\n      dup2\n        /* \"#utility.yul\":15892:15922   */\n      gt\n        /* \"#utility.yul\":15889:15945   */\n      iszero\n      tag_354\n      jumpi\n        /* \"#utility.yul\":15925:15943   */\n      tag_355\n      tag_161\n      jump\t// in\n    tag_355:\n        /* \"#utility.yul\":15889:15945   */\n    tag_354:\n        /* \"#utility.yul\":15969:16007   */\n      tag_356\n        /* \"#utility.yul\":16001:16005   */\n      dup3\n        /* \"#utility.yul\":15995:16006   */\n      sload\n        /* \"#utility.yul\":15969:16007   */\n      tag_110\n      jump\t// in\n    tag_356:\n        /* \"#utility.yul\":16054:16121   */\n      tag_357\n        /* \"#utility.yul\":16114:16120   */\n      dup3\n        /* \"#utility.yul\":16106:16112   */\n      dup3\n        /* \"#utility.yul\":16100:16104   */\n      dup6\n        /* \"#utility.yul\":16054:16121   */\n      tag_174\n      jump\t// in\n    tag_357:\n        /* \"#utility.yul\":16148:16149   */\n      0x00\n        /* \"#utility.yul\":16172:16176   */\n      0x20\n        /* \"#utility.yul\":16159:16176   */\n      swap1\n      pop\n        /* \"#utility.yul\":16204:16206   */\n      0x1f\n        /* \"#utility.yul\":16196:16202   */\n      dup4\n        /* \"#utility.yul\":16193:16207   */\n      gt\n        /* \"#utility.yul\":16221:16222   */\n      0x01\n        /* \"#utility.yul\":16216:16834   */\n      dup2\n      eq\n      tag_359\n      jumpi\n        /* \"#utility.yul\":16878:16879   */\n      0x00\n        /* \"#utility.yul\":16895:16901   */\n      dup5\n        /* \"#utility.yul\":16892:16969   */\n      iszero\n      tag_360\n      jumpi\n        /* \"#utility.yul\":16944:16953   */\n      dup3\n        /* \"#utility.yul\":16939:16942   */\n      dup8\n        /* \"#utility.yul\":16935:16954   */\n      add\n        /* \"#utility.yul\":16929:16955   */\n      mload\n        /* \"#utility.yul\":16920:16955   */\n      swap1\n      pop\n        /* \"#utility.yul\":16892:16969   */\n    tag_360:\n        /* \"#utility.yul\":16995:17062   */\n      tag_361\n        /* \"#utility.yul\":17055:17061   */\n      dup6\n        /* \"#utility.yul\":17048:17053   */\n      dup3\n        /* \"#utility.yul\":16995:17062   */\n      tag_177\n      jump\t// in\n    tag_361:\n        /* \"#utility.yul\":16989:16993   */\n      dup7\n        /* \"#utility.yul\":16982:17063   */\n      sstore\n        /* \"#utility.yul\":16851:17073   */\n      pop\n        /* \"#utility.yul\":16186:17073   */\n      jump(tag_358)\n        /* \"#utility.yul\":16216:16834   */\n    tag_359:\n        /* \"#utility.yul\":16268:16272   */\n      0x1f\n        /* \"#utility.yul\":16264:16273   */\n      not\n        /* \"#utility.yul\":16256:16262   */\n      dup5\n        /* \"#utility.yul\":16252:16274   */\n      and\n        /* \"#utility.yul\":16302:16339   */\n      tag_362\n        /* \"#utility.yul\":16334:16338   */\n      dup7\n        /* \"#utility.yul\":16302:16339   */\n      tag_163\n      jump\t// in\n    tag_362:\n        /* \"#utility.yul\":16361:16362   */\n      0x00\n        /* \"#utility.yul\":16375:16583   */\n    tag_363:\n        /* \"#utility.yul\":16389:16396   */\n      dup3\n        /* \"#utility.yul\":16386:16387   */\n      dup2\n        /* \"#utility.yul\":16383:16397   */\n      lt\n        /* \"#utility.yul\":16375:16583   */\n      iszero\n      tag_365\n      jumpi\n        /* \"#utility.yul\":16468:16477   */\n      dup5\n        /* \"#utility.yul\":16463:16466   */\n      dup10\n        /* \"#utility.yul\":16459:16478   */\n      add\n        /* \"#utility.yul\":16453:16479   */\n      mload\n        /* \"#utility.yul\":16445:16451   */\n      dup3\n        /* \"#utility.yul\":16438:16480   */\n      sstore\n        /* \"#utility.yul\":16519:16520   */\n      0x01\n        /* \"#utility.yul\":16511:16517   */\n      dup3\n        /* \"#utility.yul\":16507:16521   */\n      add\n        /* \"#utility.yul\":16497:16521   */\n      swap2\n      pop\n        /* \"#utility.yul\":16566:16568   */\n      0x20\n        /* \"#utility.yul\":16555:16564   */\n      dup6\n        /* \"#utility.yul\":16551:16569   */\n      add\n        /* \"#utility.yul\":16538:16569   */\n      swap5\n      pop\n        /* \"#utility.yul\":16412:16416   */\n      0x20\n        /* \"#utility.yul\":16409:16410   */\n      dup2\n        /* \"#utility.yul\":16405:16417   */\n      add\n        /* \"#utility.yul\":16400:16417   */\n      swap1\n      pop\n        /* \"#utility.yul\":16375:16583   */\n      jump(tag_363)\n    tag_365:\n        /* \"#utility.yul\":16611:16617   */\n      dup7\n        /* \"#utility.yul\":16602:16609   */\n      dup4\n        /* \"#utility.yul\":16599:16618   */\n      lt\n        /* \"#utility.yul\":16596:16775   */\n      iszero\n      tag_366\n      jumpi\n        /* \"#utility.yul\":16669:16678   */\n      dup5\n        /* \"#utility.yul\":16664:16667   */\n      dup10\n        /* \"#utility.yul\":16660:16679   */\n      add\n        /* \"#utility.yul\":16654:16680   */\n      mload\n        /* \"#utility.yul\":16712:16760   */\n      tag_367\n        /* \"#utility.yul\":16754:16758   */\n      0x1f\n        /* \"#utility.yul\":16746:16752   */\n      dup10\n        /* \"#utility.yul\":16742:16759   */\n      and\n        /* \"#utility.yul\":16731:16740   */\n      dup3\n        /* \"#utility.yul\":16712:16760   */\n      tag_176\n      jump\t// in\n    tag_367:\n        /* \"#utility.yul\":16704:16710   */\n      dup4\n        /* \"#utility.yul\":16697:16761   */\n      sstore\n        /* \"#utility.yul\":16619:16775   */\n      pop\n        /* \"#utility.yul\":16596:16775   */\n    tag_366:\n        /* \"#utility.yul\":16821:16822   */\n      0x01\n        /* \"#utility.yul\":16817:16818   */\n      0x02\n        /* \"#utility.yul\":16809:16815   */\n      dup9\n        /* \"#utility.yul\":16805:16819   */\n      mul\n        /* \"#utility.yul\":16801:16823   */\n      add\n        /* \"#utility.yul\":16795:16799   */\n      dup9\n        /* \"#utility.yul\":16788:16824   */\n      sstore\n        /* \"#utility.yul\":16223:16834   */\n      pop\n      pop\n      pop\n        /* \"#utility.yul\":16186:17073   */\n    tag_358:\n      pop\n        /* \"#utility.yul\":15776:17079   */\n      pop\n      pop\n      pop\n        /* \"#utility.yul\":15684:17079   */\n      pop\n      pop\n      jump\t// out\n        /* \"#utility.yul\":17085:17233   */\n    tag_178:\n        /* \"#utility.yul\":17183:17189   */\n      dup3\n        /* \"#utility.yul\":17178:17181   */\n      dup2\n        /* \"#utility.yul\":17173:17176   */\n      dup4\n        /* \"#utility.yul\":17160:17190   */\n      calldatacopy\n        /* \"#utility.yul\":17224:17225   */\n      0x00\n        /* \"#utility.yul\":17215:17221   */\n      dup4\n        /* \"#utility.yul\":17210:17213   */\n      dup4\n        /* \"#utility.yul\":17206:17222   */\n      add\n        /* \"#utility.yul\":17199:17226   */\n      mstore\n        /* \"#utility.yul\":17085:17233   */\n      pop\n      pop\n      pop\n      jump\t// out\n        /* \"#utility.yul\":17263:17580   */\n    tag_179:\n        /* \"#utility.yul\":17361:17364   */\n      0x00\n        /* \"#utility.yul\":17382:17453   */\n      tag_370\n        /* \"#utility.yul\":17446:17452   */\n      dup4\n        /* \"#utility.yul\":17441:17444   */\n      dup6\n        /* \"#utility.yul\":17382:17453   */\n      tag_150\n      jump\t// in\n    tag_370:\n        /* \"#utility.yul\":17375:17453   */\n      swap4\n      pop\n        /* \"#utility.yul\":17463:17519   */\n      tag_371\n        /* \"#utility.yul\":17512:17518   */\n      dup4\n        /* \"#utility.yul\":17507:17510   */\n      dup6\n        /* \"#utility.yul\":17500:17505   */\n      dup5\n        /* \"#utility.yul\":17463:17519   */\n      tag_178\n      jump\t// in\n    tag_371:\n        /* \"#utility.yul\":17544:17573   */\n      tag_372\n        /* \"#utility.yul\":17566:17572   */\n      dup4\n        /* \"#utility.yul\":17544:17573   */\n      tag_152\n      jump\t// in\n    tag_372:\n        /* \"#utility.yul\":17539:17542   */\n      dup5\n        /* \"#utility.yul\":17535:17574   */\n      add\n        /* \"#utility.yul\":17528:17574   */\n      swap1\n      pop\n        /* \"#utility.yul\":17263:17580   */\n      swap4\n      swap3\n      pop\n      pop\n      pop\n      jump\t// out\n        /* \"#utility.yul\":17586:18029   */\n    tag_82:\n        /* \"#utility.yul\":17737:17741   */\n      0x00\n        /* \"#utility.yul\":17775:17777   */\n      0x40\n        /* \"#utility.yul\":17764:17773   */\n      dup3\n        /* \"#utility.yul\":17760:17778   */\n      add\n        /* \"#utility.yul\":17752:17778   */\n      swap1\n      pop\n        /* \"#utility.yul\":17788:17859   */\n      tag_374\n        /* \"#utility.yul\":17856:17857   */\n      0x00\n        /* \"#utility.yul\":17845:17854   */\n      dup4\n        /* \"#utility.yul\":17841:17858   */\n      add\n        /* \"#utility.yul\":17832:17838   */\n      dup7\n        /* \"#utility.yul\":17788:17859   */\n      tag_137\n      jump\t// in\n    tag_374:\n        /* \"#utility.yul\":17906:17915   */\n      dup2\n        /* \"#utility.yul\":17900:17904   */\n      dup2\n        /* \"#utility.yul\":17896:17916   */\n      sub\n        /* \"#utility.yul\":17891:17893   */\n      0x20\n        /* \"#utility.yul\":17880:17889   */\n      dup4\n        /* \"#utility.yul\":17876:17894   */\n      add\n        /* \"#utility.yul\":17869:17917   */\n      mstore\n        /* \"#utility.yul\":17934:18022   */\n      tag_375\n        /* \"#utility.yul\":18017:18021   */\n      dup2\n        /* \"#utility.yul\":18008:18014   */\n      dup5\n        /* \"#utility.yul\":18000:18006   */\n      dup7\n        /* \"#utility.yul\":17934:18022   */\n      tag_179\n      jump\t// in\n    tag_375:\n        /* \"#utility.yul\":17926:18022   */\n      swap1\n      pop\n        /* \"#utility.yul\":17586:18029   */\n      swap5\n      swap4\n      pop\n      pop\n      pop\n      pop\n      jump\t// out\n        /* \"#utility.yul\":18035:18199   */\n    tag_180:\n        /* \"#utility.yul\":18175:18191   */\n      0x4e6f7420617574686f72697a6564000000000000000000000000000000000000\n        /* \"#utility.yul\":18171:18172   */\n      0x00\n        /* \"#utility.yul\":18163:18169   */\n      dup3\n        /* \"#utility.yul\":18159:18173   */\n      add\n        /* \"#utility.yul\":18152:18192   */\n      mstore\n        /* \"#utility.yul\":18035:18199   */\n      pop\n      jump\t// out\n        /* \"#utility.yul\":18205:18571   */\n    tag_181:\n        /* \"#utility.yul\":18347:18350   */\n      0x00\n        /* \"#utility.yul\":18368:18435   */\n      tag_378\n        /* \"#utility.yul\":18432:18434   */\n      0x0e\n        /* \"#utility.yul\":18427:18430   */\n      dup4\n        /* \"#utility.yul\":18368:18435   */\n      tag_150\n      jump\t// in\n    tag_378:\n        /* \"#utility.yul\":18361:18435   */\n      swap2\n      pop\n        /* \"#utility.yul\":18444:18537   */\n      tag_379\n        /* \"#utility.yul\":18533:18536   */\n      dup3\n        /* \"#utility.yul\":18444:18537   */\n      tag_180\n      jump\t// in\n    tag_379:\n        /* \"#utility.yul\":18562:18564   */\n      0x20\n        /* \"#utility.yul\":18557:18560   */\n      dup3\n        /* \"#utility.yul\":18553:18565   */\n      add\n        /* \"#utility.yul\":18546:18565   */\n      swap1\n      pop\n        /* \"#utility.yul\":18205:18571   */\n      swap2\n      swap1\n      pop\n      jump\t// out\n        /* \"#utility.yul\":18577:18996   */\n    tag_86:\n        /* \"#utility.yul\":18743:18747   */\n      0x00\n        /* \"#utility.yul\":18781:18783   */\n      0x20\n        /* \"#utility.yul\":18770:18779   */\n      dup3\n        /* \"#utility.yul\":18766:18784   */\n      add\n        /* \"#utility.yul\":18758:18784   */\n      swap1\n      pop\n        /* \"#utility.yul\":18830:18839   */\n      dup2\n        /* \"#utility.yul\":18824:18828   */\n      dup2\n        /* \"#utility.yul\":18820:18840   */\n      sub\n        /* \"#utility.yul\":18816:18817   */\n      0x00\n        /* \"#utility.yul\":18805:18814   */\n      dup4\n        /* \"#utility.yul\":18801:18818   */\n      add\n        /* \"#utility.yul\":18794:18841   */\n      mstore\n        /* \"#utility.yul\":18858:18989   */\n      tag_381\n        /* \"#utility.yul\":18984:18988   */\n      dup2\n        /* \"#utility.yul\":18858:18989   */\n      tag_181\n      jump\t// in\n    tag_381:\n        /* \"#utility.yul\":18850:18989   */\n      swap1\n      pop\n        /* \"#utility.yul\":18577:18996   */\n      swap2\n      swap1\n      pop\n      jump\t// out\n        /* \"#utility.yul\":19002:19182   */\n    tag_90:\n        /* \"#utility.yul\":19050:19127   */\n      0x4e487b7100000000000000000000000000000000000000000000000000000000\n        /* \"#utility.yul\":19047:19048   */\n      0x00\n        /* \"#utility.yul\":19040:19128   */\n      mstore\n        /* \"#utility.yul\":19147:19151   */\n      0x32\n        /* \"#utility.yul\":19144:19145   */\n      0x04\n        /* \"#utility.yul\":19137:19152   */\n      mstore\n        /* \"#utility.yul\":19171:19175   */\n      0x24\n        /* \"#utility.yul\":19168:19169   */\n      0x00\n        /* \"#utility.yul\":19161:19176   */\n      revert\n        /* \"#utility.yul\":19188:19356   */\n    tag_182:\n        /* \"#utility.yul\":19328:19348   */\n      0x436c61696d206e6f7420617070726f7665640000000000000000000000000000\n        /* \"#utility.yul\":19324:19325   */\n      0x00\n        /* \"#utility.yul\":19316:19322   */\n      dup3\n        /* \"#utility.yul\":19312:19326   */\n      add\n        /* \"#utility.yul\":19305:19349   */\n      mstore\n        /* \"#utility.yul\":19188:19356   */\n      pop\n      jump\t// out\n        /* \"#utility.yul\":19362:19728   */\n    tag_183:\n        /* \"#utility.yul\":19504:19507   */\n      0x00\n        /* \"#utility.yul\":19525:19592   */\n      tag_385\n        /* \"#utility.yul\":19589:19591   */\n      0x12\n        /* \"#utility.yul\":19584:19587   */\n      dup4\n        /* \"#utility.yul\":19525:19592   */\n      tag_150\n      jump\t// in\n    tag_385:\n        /* \"#utility.yul\":19518:19592   */\n      swap2\n      pop\n        /* \"#utility.yul\":19601:19694   */\n      tag_386\n        /* \"#utility.yul\":19690:19693   */\n      dup3\n        /* \"#utility.yul\":19601:19694   */\n      tag_182\n      jump\t// in\n    tag_386:\n        /* \"#utility.yul\":19719:19721   */\n      0x20\n        /* \"#utility.yul\":19714:19717   */\n      dup3\n        /* \"#utility.yul\":19710:19722   */\n      add\n        /* \"#utility.yul\":19703:19722   */\n      swap1\n      pop\n        /* \"#utility.yul\":19362:19728   */\n      swap2\n      swap1\n      pop\n      jump\t// out\n        /* \"#utility.yul\":19734:20153   */\n    tag_94:\n        /* \"#utility.yul\":19900:19904   */\n      0x00\n        /* \"#utility.yul\":19938:19940   */\n      0x20\n        /* \"#utility.yul\":19927:19936   */\n      dup3\n        /* \"#utility.yul\":19923:19941   */\n      add\n        /* \"#utility.yul\":19915:19941   */\n      swap1\n      pop\n        /* \"#utility.yul\":19987:19996   */\n      dup2\n        /* \"#utility.yul\":19981:19985   */\n      dup2\n        /* \"#utility.yul\":19977:19997   */\n      sub\n        /* \"#utility.yul\":19973:19974   */\n      0x00\n        /* \"#utility.yul\":19962:19971   */\n      dup4\n        /* \"#utility.yul\":19958:19975   */\n      add\n        /* \"#utility.yul\":19951:19998   */\n      mstore\n        /* \"#utility.yul\":20015:20146   */\n      tag_388\n        /* \"#utility.yul\":20141:20145   */\n      dup2\n        /* \"#utility.yul\":20015:20146   */\n      tag_183\n      jump\t// in\n    tag_388:\n        /* \"#utility.yul\":20007:20146   */\n      swap1\n      pop\n        /* \"#utility.yul\":19734:20153   */\n      swap2\n      swap1\n      pop\n      jump\t// out\n        /* \"#utility.yul\":20159:20327   */\n    tag_184:\n        /* \"#utility.yul\":20299:20319   */\n      0x436c61696d20616c726561647920706169640000000000000000000000000000\n        /* \"#utility.yul\":20295:20296   */\n      0x00\n        /* \"#utility.yul\":20287:20293   */\n      dup3\n        /* \"#utility.yul\":20283:20297   */\n      add\n        /* \"#utility.yul\":20276:20320   */\n      mstore\n        /* \"#utility.yul\":20159:20327   */\n      pop\n      jump\t// out\n        /* \"#utility.yul\":20333:20699   */\n    tag_185:\n        /* \"#utility.yul\":20475:20478   */\n      0x00\n        /* \"#utility.yul\":20496:20563   */\n      tag_391\n        /* \"#utility.yul\":20560:20562   */\n      0x12\n        /* \"#utility.yul\":20555:20558   */\n      dup4\n        /* \"#utility.yul\":20496:20563   */\n      tag_150\n      jump\t// in\n    tag_391:\n        /* \"#utility.yul\":20489:20563   */\n      swap2\n      pop\n        /* \"#utility.yul\":20572:20665   */\n      tag_392\n        /* \"#utility.yul\":20661:20664   */\n      dup3\n        /* \"#utility.yul\":20572:20665   */\n      tag_184\n      jump\t// in\n    tag_392:\n        /* \"#utility.yul\":20690:20692   */\n      0x20\n        /* \"#utility.yul\":20685:20688   */\n      dup3\n        /* \"#utility.yul\":20681:20693   */\n      add\n        /* \"#utility.yul\":20674:20693   */\n      swap1\n      pop\n        /* \"#utility.yul\":20333:20699   */\n      swap2\n      swap1\n      pop\n      jump\t// out\n        /* \"#utility.yul\":20705:21124   */\n    tag_97:\n        /* \"#utility.yul\":20871:20875   */\n      0x00\n        /* \"#utility.yul\":20909:20911   */\n      0x20\n        /* \"#utility.yul\":20898:20907   */\n      dup3\n        /* \"#utility.yul\":20894:20912   */\n      add\n        /* \"#utility.yul\":20886:20912   */\n      swap1\n      pop\n        /* \"#utility.yul\":20958:20967   */\n      dup2\n        /* \"#utility.yul\":20952:20956   */\n      dup2\n        /* \"#utility.yul\":20948:20968   */\n      sub\n        /* \"#utility.yul\":20944:20945   */\n      0x00\n        /* \"#utility.yul\":20933:20942   */\n      dup4\n        /* \"#utility.yul\":20929:20946   */\n      add\n        /* \"#utility.yul\":20922:20969   */\n      mstore\n        /* \"#utility.yul\":20986:21117   */\n      tag_394\n        /* \"#utility.yul\":21112:21116   */\n      dup2\n        /* \"#utility.yul\":20986:21117   */\n      tag_185\n      jump\t// in\n    tag_394:\n        /* \"#utility.yul\":20978:21117   */\n      swap1\n      pop\n        /* \"#utility.yul\":20705:21124   */\n      swap2\n      swap1\n      pop\n      jump\t// out\n        /* \"#utility.yul\":21130:21572   */\n    tag_106:\n        /* \"#utility.yul\":21279:21283   */\n      0x00\n        /* \"#utility.yul\":21317:21319   */\n      0x60\n        /* \"#utility.yul\":21306:21315   */\n      dup3\n        /* \"#utility.yul\":21302:21320   */\n      add\n        /* \"#utility.yul\":21294:21320   */\n      swap1\n      pop\n        /* \"#utility.yul\":21330:21401   */\n      tag_396\n        /* \"#utility.yul\":21398:21399   */\n      0x00\n        /* \"#utility.yul\":21387:21396   */\n      dup4\n        /* \"#utility.yul\":21383:21400   */\n      add\n        /* \"#utility.yul\":21374:21380   */\n      dup7\n        /* \"#utility.yul\":21330:21401   */\n      tag_137\n      jump\t// in\n    tag_396:\n        /* \"#utility.yul\":21411:21483   */\n      tag_397\n        /* \"#utility.yul\":21479:21481   */\n      0x20\n        /* \"#utility.yul\":21468:21477   */\n      dup4\n        /* \"#utility.yul\":21464:21482   */\n      add\n        /* \"#utility.yul\":21455:21461   */\n      dup6\n        /* \"#utility.yul\":21411:21483   */\n      tag_137\n      jump\t// in\n    tag_397:\n        /* \"#utility.yul\":21493:21565   */\n      tag_398\n        /* \"#utility.yul\":21561:21563   */\n      0x40\n        /* \"#utility.yul\":21550:21559   */\n      dup4\n        /* \"#utility.yul\":21546:21564   */\n      add\n        /* \"#utility.yul\":21537:21543   */\n      dup5\n        /* \"#utility.yul\":21493:21565   */\n      tag_137\n      jump\t// in\n    tag_398:\n        /* \"#utility.yul\":21130:21572   */\n      swap5\n      swap4\n      pop\n      pop\n      pop\n      pop\n      jump\t// out\n        /* \"#utility.yul\":21578:21747   */\n    tag_186:\n        /* \"#utility.yul\":21718:21739   */\n      0x496e76616c696420636c61696d20696e64657800000000000000000000000000\n        /* \"#utility.yul\":21714:21715   */\n      0x00\n        /* \"#utility.yul\":21706:21712   */\n      dup3\n        /* \"#utility.yul\":21702:21716   */\n      add\n        /* \"#utility.yul\":21695:21740   */\n      mstore\n        /* \"#utility.yul\":21578:21747   */\n      pop\n      jump\t// out\n        /* \"#utility.yul\":21753:22119   */\n    tag_187:\n        /* \"#utility.yul\":21895:21898   */\n      0x00\n        /* \"#utility.yul\":21916:21983   */\n      tag_401\n        /* \"#utility.yul\":21980:21982   */\n      0x13\n        /* \"#utility.yul\":21975:21978   */\n      dup4\n        /* \"#utility.yul\":21916:21983   */\n      tag_150\n      jump\t// in\n    tag_401:\n        /* \"#utility.yul\":21909:21983   */\n      swap2\n      pop\n        /* \"#utility.yul\":21992:22085   */\n      tag_402\n        /* \"#utility.yul\":22081:22084   */\n      dup3\n        /* \"#utility.yul\":21992:22085   */\n      tag_186\n      jump\t// in\n    tag_402:\n        /* \"#utility.yul\":22110:22112   */\n      0x20\n        /* \"#utility.yul\":22105:22108   */\n      dup3\n        /* \"#utility.yul\":22101:22113   */\n      add\n        /* \"#utility.yul\":22094:22113   */\n      swap1\n      pop\n        /* \"#utility.yul\":21753:22119   */\n      swap2\n      swap1\n      pop\n      jump\t// out\n        /* \"#utility.yul\":22125:22544   */\n    tag_124:\n        /* \"#utility.yul\":22291:22295   */\n      0x00\n        /* \"#utility.yul\":22329:22331   */\n      0x20\n        /* \"#utility.yul\":22318:22327   */\n      dup3\n        /* \"#utility.yul\":22314:22332   */\n      add\n        /* \"#utility.yul\":22306:22332   */\n      swap1\n      pop\n        /* \"#utility.yul\":22378:22387   */\n      dup2\n        /* \"#utility.yul\":22372:22376   */\n      dup2\n        /* \"#utility.yul\":22368:22388   */\n      sub\n        /* \"#utility.yul\":22364:22365   */\n      0x00\n        /* \"#utility.yul\":22353:22362   */\n      dup4\n        /* \"#utility.yul\":22349:22366   */\n      add\n        /* \"#utility.yul\":22342:22389   */\n      mstore\n        /* \"#utility.yul\":22406:22537   */\n      tag_404\n        /* \"#utility.yul\":22532:22536   */\n      dup2\n        /* \"#utility.yul\":22406:22537   */\n      tag_187\n      jump\t// in\n    tag_404:\n        /* \"#utility.yul\":22398:22537   */\n      swap1\n      pop\n        /* \"#utility.yul\":22125:22544   */\n      swap2\n      swap1\n      pop\n      jump\t// out\n\n    auxdata: 0xa2646970667358221220b962acaab7ca5a39b615ee79918064c620d373ae91aa1eabb2ea8f10ab571b3464736f6c634300081a0033\n}\n",
				"bytecode": {
					"linkReferences": {},
					"object": "6080604052348015600e575f80fd5b50335f806101000a81548173ffffffffffffffffffffffffffffffffffffffff021916908373ffffffffffffffffffffffffffffffffffffffff160217905550611a778061005b5f395ff3fe608060405260043610610085575f3560e01c8063a0b08cfa11610058578063a0b08cfa14610124578063ab541a851461014c578063dbc837c51461018b578063e52223bb146101b5578063f2ad7908146101f157610085565b806320e986981461008957806329c08ba2146100ca57806345b46525146100d457806350802e3f146100fc575b5f80fd5b348015610094575f80fd5b506100af60048036038101906100aa9190610f74565b610219565b6040516100c196959493929190610fe0565b60405180910390f35b6100d261027c565b005b3480156100df575f80fd5b506100fa60048036038101906100f591906110ca565b6103f8565b005b348015610107575f80fd5b50610122600480360381019061011d9190611162565b6106f4565b005b34801561012f575f80fd5b5061014a600480360381019061014591906111a0565b61093b565b005b348015610157575f80fd5b50610172600480360381019061016d9190611204565b610b31565b60405161018294939291906112b2565b60405180910390f35b348015610196575f80fd5b5061019f610c16565b6040516101ac91906112fc565b60405180910390f35b3480156101c0575f80fd5b506101db60048036038101906101d69190610f74565b610c39565b6040516101e89190611315565b60405180910390f35b3480156101fc575f80fd5b5061021760048036038101906102129190611204565b610d46565b005b6001602052805f5260405f205f91509050805f015f9054906101000a900473ffffffffffffffffffffffffffffffffffffffff1690806001015490806002015490806003015490806004015490806005015f9054906101000a900460ff16905086565b5f60015f3373ffffffffffffffffffffffffffffffffffffffff1673ffffffffffffffffffffffffffffffffffffffff1681526020019081526020015f209050806005015f9054906101000a900460ff1661030c576040517f08c379a000000000000000000000000000000000000000000000000000000000815260040161030390611378565b60405180910390fd5b8060030154816004015461032091906113c3565b4210610361576040517f08c379a000000000000000000000000000000000000000000000000000000000815260040161035890611440565b60405180910390fd5b806001015434146103a7576040517f08c379a000000000000000000000000000000000000000000000000000000000815260040161039e906114a8565b60405180910390fd5b3373ffffffffffffffffffffffffffffffffffffffff167fa21795436a9f6a3b412fd6780f01a49907f2181e76e938496b0a41991d99b61c346040516103ed91906114c6565b60405180910390a250565b5f60015f3373ffffffffffffffffffffffffffffffffffffffff1673ffffffffffffffffffffffffffffffffffffffff1681526020019081526020015f206040518060c00160405290815f82015f9054906101000a900473ffffffffffffffffffffffffffffffffffffffff1673ffffffffffffffffffffffffffffffffffffffff1673ffffffffffffffffffffffffffffffffffffffff16815260200160018201548152602001600282015481526020016003820154815260200160048201548152602001600582015f9054906101000a900460ff16151515158152505090508060a0015161051d576040517f08c379a000000000000000000000000000000000000000000000000000000000815260040161051490611378565b60405180910390fd5b8060600151816080015161053191906113c3565b4210610572576040517f08c379a000000000000000000000000000000000000000000000000000000000815260040161056990611440565b60405180910390fd5b60025f3373ffffffffffffffffffffffffffffffffffffffff1673ffffffffffffffffffffffffffffffffffffffff1681526020019081526020015f20604051806080016040528086815260200185858080601f0160208091040260200160405190810160405280939291908181526020018383808284375f81840152601f19601f8201169050808301925050505050505081526020015f151581526020015f1515815250908060018154018082558091505060019003905f5260205f2090600302015f909190919091505f820151815f0155602082015181600101908161065a9190611706565b506040820151816002015f6101000a81548160ff02191690831515021790555060608201518160020160016101000a81548160ff02191690831515021790555050503373ffffffffffffffffffffffffffffffffffffffff167fed2a4bd7266fcc54ee2f031542ea6e3830c4e013441bfb0c8969898456c7c6df8585856040516106e69392919061180f565b60405180910390a250505050565b5f8054906101000a900473ffffffffffffffffffffffffffffffffffffffff1673ffffffffffffffffffffffffffffffffffffffff163373ffffffffffffffffffffffffffffffffffffffff1614610781576040517f08c379a000000000000000000000000000000000000000000000000000000000815260040161077890611889565b60405180910390fd5b5f60025f8473ffffffffffffffffffffffffffffffffffffffff1673ffffffffffffffffffffffffffffffffffffffff1681526020019081526020015f2082815481106107d1576107d06118a7565b5b905f5260205f2090600302019050806002015f9054906101000a900460ff1661082f576040517f08c379a00000000000000000000000000000000000000000000000000000000081526004016108269061191e565b60405180910390fd5b8060020160019054906101000a900460ff1615610881576040517f08c379a000000000000000000000000000000000000000000000000000000000815260040161087890611986565b60405180910390fd5b60018160020160016101000a81548160ff0219169083151502179055508273ffffffffffffffffffffffffffffffffffffffff166108fc825f015490811502906040515f60405180830381858888f193505050501580156108e4573d5f803e3d5ffd5b508273ffffffffffffffffffffffffffffffffffffffff167ff42cf8c29487b42c009006cba2a2a0ca0388229f3183e6e957e0a0b163585cb4825f015460405161092e91906114c6565b60405180910390a2505050565b5f8054906101000a900473ffffffffffffffffffffffffffffffffffffffff1673ffffffffffffffffffffffffffffffffffffffff163373ffffffffffffffffffffffffffffffffffffffff16146109c8576040517f08c379a00000000000000000000000000000000000000000000000000000000081526004016109bf90611889565b60405180910390fd5b6040518060c001604052808573ffffffffffffffffffffffffffffffffffffffff1681526020018481526020018381526020018281526020014281526020016001151581525060015f8673ffffffffffffffffffffffffffffffffffffffff1673ffffffffffffffffffffffffffffffffffffffff1681526020019081526020015f205f820151815f015f6101000a81548173ffffffffffffffffffffffffffffffffffffffff021916908373ffffffffffffffffffffffffffffffffffffffff1602179055506020820151816001015560408201518160020155606082015181600301556080820151816004015560a0820151816005015f6101000a81548160ff0219169083151502179055509050508373ffffffffffffffffffffffffffffffffffffffff167fff4ed768c87dd5f8b2c8a57b88e80671a657e55c54abfda93a71ebbcd161637d848484604051610b23939291906119a4565b60405180910390a250505050565b6002602052815f5260405f208181548110610b4a575f80fd5b905f5260205f2090600302015f9150915050805f015490806001018054610b7090611539565b80601f0160208091040260200160405190810160405280929190818152602001828054610b9c90611539565b8015610be75780601f10610bbe57610100808354040283529160200191610be7565b820191905f5260205f20905b815481529060010190602001808311610bca57829003601f168201915b505050505090806002015f9054906101000a900460ff16908060020160019054906101000a900460ff16905084565b5f8054906101000a900473ffffffffffffffffffffffffffffffffffffffff1681565b5f8060015f8473ffffffffffffffffffffffffffffffffffffffff1673ffffffffffffffffffffffffffffffffffffffff1681526020019081526020015f206040518060c00160405290815f82015f9054906101000a900473ffffffffffffffffffffffffffffffffffffffff1673ffffffffffffffffffffffffffffffffffffffff1673ffffffffffffffffffffffffffffffffffffffff16815260200160018201548152602001600282015481526020016003820154815260200160048201548152602001600582015f9054906101000a900460ff16151515158152505090508060a001518015610d3e575080606001518160800151610d3b91906113c3565b42105b915050919050565b5f8054906101000a900473ffffffffffffffffffffffffffffffffffffffff1673ffffffffffffffffffffffffffffffffffffffff163373ffffffffffffffffffffffffffffffffffffffff1614610dd3576040517f08c379a0000000000000000000000000000000000000000000000000000000008152600401610dca90611889565b60405180910390fd5b60025f8373ffffffffffffffffffffffffffffffffffffffff1673ffffffffffffffffffffffffffffffffffffffff1681526020019081526020015f20805490508110610e55576040517f08c379a0000000000000000000000000000000000000000000000000000000008152600401610e4c90611a23565b60405180910390fd5b600160025f8473ffffffffffffffffffffffffffffffffffffffff1673ffffffffffffffffffffffffffffffffffffffff1681526020019081526020015f208281548110610ea657610ea56118a7565b5b905f5260205f2090600302016002015f6101000a81548160ff0219169083151502179055508173ffffffffffffffffffffffffffffffffffffffff167fb7fa0f30e1ede3196616147dfdf6c94e47523298677b4f7b0c61027a9f0ebf5460405160405180910390a25050565b5f80fd5b5f80fd5b5f73ffffffffffffffffffffffffffffffffffffffff82169050919050565b5f610f4382610f1a565b9050919050565b610f5381610f39565b8114610f5d575f80fd5b50565b5f81359050610f6e81610f4a565b92915050565b5f60208284031215610f8957610f88610f12565b5b5f610f9684828501610f60565b91505092915050565b610fa881610f39565b82525050565b5f819050919050565b610fc081610fae565b82525050565b5f8115159050919050565b610fda81610fc6565b82525050565b5f60c082019050610ff35f830189610f9f565b6110006020830188610fb7565b61100d6040830187610fb7565b61101a6060830186610fb7565b6110276080830185610fb7565b61103460a0830184610fd1565b979650505050505050565b61104881610fae565b8114611052575f80fd5b50565b5f813590506110638161103f565b92915050565b5f80fd5b5f80fd5b5f80fd5b5f8083601f84011261108a57611089611069565b5b8235905067ffffffffffffffff8111156110a7576110a661106d565b5b6020830191508360018202830111156110c3576110c2611071565b5b9250929050565b5f805f604084860312156110e1576110e0610f12565b5b5f6110ee86828701611055565b935050602084013567ffffffffffffffff81111561110f5761110e610f16565b5b61111b86828701611075565b92509250509250925092565b5f61113182610f1a565b9050919050565b61114181611127565b811461114b575f80fd5b50565b5f8135905061115c81611138565b92915050565b5f806040838503121561117857611177610f12565b5b5f6111858582860161114e565b925050602061119685828601611055565b9150509250929050565b5f805f80608085870312156111b8576111b7610f12565b5b5f6111c587828801610f60565b94505060206111d687828801611055565b93505060406111e787828801611055565b92505060606111f887828801611055565b91505092959194509250565b5f806040838503121561121a57611219610f12565b5b5f61122785828601610f60565b925050602061123885828601611055565b9150509250929050565b5f81519050919050565b5f82825260208201905092915050565b8281835e5f83830152505050565b5f601f19601f8301169050919050565b5f61128482611242565b61128e818561124c565b935061129e81856020860161125c565b6112a78161126a565b840191505092915050565b5f6080820190506112c55f830187610fb7565b81810360208301526112d7818661127a565b90506112e66040830185610fd1565b6112f36060830184610fd1565b95945050505050565b5f60208201905061130f5f830184610f9f565b92915050565b5f6020820190506113285f830184610fd1565b92915050565b7f506f6c69637920696e61637469766500000000000000000000000000000000005f82015250565b5f611362600f8361124c565b915061136d8261132e565b602082019050919050565b5f6020820190508181035f83015261138f81611356565b9050919050565b7f4e487b71000000000000000000000000000000000000000000000000000000005f52601160045260245ffd5b5f6113cd82610fae565b91506113d883610fae565b92508282019050808211156113f0576113ef611396565b5b92915050565b7f506f6c69637920657870697265640000000000000000000000000000000000005f82015250565b5f61142a600e8361124c565b9150611435826113f6565b602082019050919050565b5f6020820190508181035f8301526114578161141e565b9050919050565b7f496e636f7272656374207072656d69756d0000000000000000000000000000005f82015250565b5f61149260118361124c565b915061149d8261145e565b602082019050919050565b5f6020820190508181035f8301526114bf81611486565b9050919050565b5f6020820190506114d95f830184610fb7565b92915050565b7f4e487b71000000000000000000000000000000000000000000000000000000005f52604160045260245ffd5b7f4e487b71000000000000000000000000000000000000000000000000000000005f52602260045260245ffd5b5f600282049050600182168061155057607f821691505b6020821081036115635761156261150c565b5b50919050565b5f819050815f5260205f209050919050565b5f6020601f8301049050919050565b5f82821b905092915050565b5f600883026115c57fffffffffffffffffffffffffffffffffffffffffffffffffffffffffffffffff8261158a565b6115cf868361158a565b95508019841693508086168417925050509392505050565b5f819050919050565b5f61160a61160561160084610fae565b6115e7565b610fae565b9050919050565b5f819050919050565b611623836115f0565b61163761162f82611611565b848454611596565b825550505050565b5f90565b61164b61163f565b61165681848461161a565b505050565b5b818110156116795761166e5f82611643565b60018101905061165c565b5050565b601f8211156116be5761168f81611569565b6116988461157b565b810160208510156116a7578190505b6116bb6116b38561157b565b83018261165b565b50505b505050565b5f82821c905092915050565b5f6116de5f19846008026116c3565b1980831691505092915050565b5f6116f683836116cf565b9150826002028217905092915050565b61170f82611242565b67ffffffffffffffff811115611728576117276114df565b5b6117328254611539565b61173d82828561167d565b5f60209050601f83116001811461176e575f841561175c578287015190505b61176685826116eb565b8655506117cd565b601f19841661177c86611569565b5f5b828110156117a35784890151825560018201915060208501945060208101905061177e565b868310156117c057848901516117bc601f8916826116cf565b8355505b6001600288020188555050505b505050505050565b828183375f83830152505050565b5f6117ee838561124c565b93506117fb8385846117d5565b6118048361126a565b840190509392505050565b5f6040820190506118225f830186610fb7565b81810360208301526118358184866117e3565b9050949350505050565b7f4e6f7420617574686f72697a65640000000000000000000000000000000000005f82015250565b5f611873600e8361124c565b915061187e8261183f565b602082019050919050565b5f6020820190508181035f8301526118a081611867565b9050919050565b7f4e487b71000000000000000000000000000000000000000000000000000000005f52603260045260245ffd5b7f436c61696d206e6f7420617070726f76656400000000000000000000000000005f82015250565b5f61190860128361124c565b9150611913826118d4565b602082019050919050565b5f6020820190508181035f830152611935816118fc565b9050919050565b7f436c61696d20616c7265616479207061696400000000000000000000000000005f82015250565b5f61197060128361124c565b915061197b8261193c565b602082019050919050565b5f6020820190508181035f83015261199d81611964565b9050919050565b5f6060820190506119b75f830186610fb7565b6119c46020830185610fb7565b6119d16040830184610fb7565b949350505050565b7f496e76616c696420636c61696d20696e646578000000000000000000000000005f82015250565b5f611a0d60138361124c565b9150611a18826119d9565b602082019050919050565b5f6020820190508181035f830152611a3a81611a01565b905091905056fea2646970667358221220b962acaab7ca5a39b615ee79918064c620d373ae91aa1eabb2ea8f10ab571b3464736f6c634300081a0033",
					"opcodes": "PUSH1 0x80 PUSH1 0x40 MSTORE CALLVALUE DUP1 ISZERO PUSH1 0xE JUMPI PUSH0 DUP1 REVERT JUMPDEST POP CALLER PUSH0 DUP1 PUSH2 0x100 EXP DUP2 SLOAD DUP2 PUSH20 0xFFFFFFFFFFFFFFFFFFFFFFFFFFFFFFFFFFFFFFFF MUL NOT AND SWAP1 DUP4 PUSH20 0xFFFFFFFFFFFFFFFFFFFFFFFFFFFFFFFFFFFFFFFF AND MUL OR SWAP1 SSTORE POP PUSH2 0x1A77 DUP1 PUSH2 0x5B PUSH0 CODECOPY PUSH0 RETURN INVALID PUSH1 0x80 PUSH1 0x40 MSTORE PUSH1 0x4 CALLDATASIZE LT PUSH2 0x85 JUMPI PUSH0 CALLDATALOAD PUSH1 0xE0 SHR DUP1 PUSH4 0xA0B08CFA GT PUSH2 0x58 JUMPI DUP1 PUSH4 0xA0B08CFA EQ PUSH2 0x124 JUMPI DUP1 PUSH4 0xAB541A85 EQ PUSH2 0x14C JUMPI DUP1 PUSH4 0xDBC837C5 EQ PUSH2 0x18B JUMPI DUP1 PUSH4 0xE52223BB EQ PUSH2 0x1B5 JUMPI DUP1 PUSH4 0xF2AD7908 EQ PUSH2 0x1F1 JUMPI PUSH2 0x85 JUMP JUMPDEST DUP1 PUSH4 0x20E98698 EQ PUSH2 0x89 JUMPI DUP1 PUSH4 0x29C08BA2 EQ PUSH2 0xCA JUMPI DUP1 PUSH4 0x45B46525 EQ PUSH2 0xD4 JUMPI DUP1 PUSH4 0x50802E3F EQ PUSH2 0xFC JUMPI JUMPDEST PUSH0 DUP1 REVERT JUMPDEST CALLVALUE DUP1 ISZERO PUSH2 0x94 JUMPI PUSH0 DUP1 REVERT JUMPDEST POP PUSH2 0xAF PUSH1 0x4 DUP1 CALLDATASIZE SUB DUP2 ADD SWAP1 PUSH2 0xAA SWAP2 SWAP1 PUSH2 0xF74 JUMP JUMPDEST PUSH2 0x219 JUMP JUMPDEST PUSH1 0x40 MLOAD PUSH2 0xC1 SWAP7 SWAP6 SWAP5 SWAP4 SWAP3 SWAP2 SWAP1 PUSH2 0xFE0 JUMP JUMPDEST PUSH1 0x40 MLOAD DUP1 SWAP2 SUB SWAP1 RETURN JUMPDEST PUSH2 0xD2 PUSH2 0x27C JUMP JUMPDEST STOP JUMPDEST CALLVALUE DUP1 ISZERO PUSH2 0xDF JUMPI PUSH0 DUP1 REVERT JUMPDEST POP PUSH2 0xFA PUSH1 0x4 DUP1 CALLDATASIZE SUB DUP2 ADD SWAP1 PUSH2 0xF5 SWAP2 SWAP1 PUSH2 0x10CA JUMP JUMPDEST PUSH2 0x3F8 JUMP JUMPDEST STOP JUMPDEST CALLVALUE DUP1 ISZERO PUSH2 0x107 JUMPI PUSH0 DUP1 REVERT JUMPDEST POP PUSH2 0x122 PUSH1 0x4 DUP1 CALLDATASIZE SUB DUP2 ADD SWAP1 PUSH2 0x11D SWAP2 SWAP1 PUSH2 0x1162 JUMP JUMPDEST PUSH2 0x6F4 JUMP JUMPDEST STOP JUMPDEST CALLVALUE DUP1 ISZERO PUSH2 0x12F JUMPI PUSH0 DUP1 REVERT JUMPDEST POP PUSH2 0x14A PUSH1 0x4 DUP1 CALLDATASIZE SUB DUP2 ADD SWAP1 PUSH2 0x145 SWAP2 SWAP1 PUSH2 0x11A0 JUMP JUMPDEST PUSH2 0x93B JUMP JUMPDEST STOP JUMPDEST CALLVALUE DUP1 ISZERO PUSH2 0x157 JUMPI PUSH0 DUP1 REVERT JUMPDEST POP PUSH2 0x172 PUSH1 0x4 DUP1 CALLDATASIZE SUB DUP2 ADD SWAP1 PUSH2 0x16D SWAP2 SWAP1 PUSH2 0x1204 JUMP JUMPDEST PUSH2 0xB31 JUMP JUMPDEST PUSH1 0x40 MLOAD PUSH2 0x182 SWAP5 SWAP4 SWAP3 SWAP2 SWAP1 PUSH2 0x12B2 JUMP JUMPDEST PUSH1 0x40 MLOAD DUP1 SWAP2 SUB SWAP1 RETURN JUMPDEST CALLVALUE DUP1 ISZERO PUSH2 0x196 JUMPI PUSH0 DUP1 REVERT JUMPDEST POP PUSH2 0x19F PUSH2 0xC16 JUMP JUMPDEST PUSH1 0x40 MLOAD PUSH2 0x1AC SWAP2 SWAP1 PUSH2 0x12FC JUMP JUMPDEST PUSH1 0x40 MLOAD DUP1 SWAP2 SUB SWAP1 RETURN JUMPDEST CALLVALUE DUP1 ISZERO PUSH2 0x1C0 JUMPI PUSH0 DUP1 REVERT JUMPDEST POP PUSH2 0x1DB PUSH1 0x4 DUP1 CALLDATASIZE SUB DUP2 ADD SWAP1 PUSH2 0x1D6 SWAP2 SWAP1 PUSH2 0xF74 JUMP JUMPDEST PUSH2 0xC39 JUMP JUMPDEST PUSH1 0x40 MLOAD PUSH2 0x1E8 SWAP2 SWAP1 PUSH2 0x1315 JUMP JUMPDEST PUSH1 0x40 MLOAD DUP1 SWAP2 SUB SWAP1 RETURN JUMPDEST CALLVALUE DUP1 ISZERO PUSH2 0x1FC JUMPI PUSH0 DUP1 REVERT JUMPDEST POP PUSH2 0x217 PUSH1 0x4 DUP1 CALLDATASIZE SUB DUP2 ADD SWAP1 PUSH2 0x212 SWAP2 SWAP1 PUSH2 0x1204 JUMP JUMPDEST PUSH2 0xD46 JUMP JUMPDEST STOP JUMPDEST PUSH1 0x1 PUSH1 0x20 MSTORE DUP1 PUSH0 MSTORE PUSH1 0x40 PUSH0 KECCAK256 PUSH0 SWAP2 POP SWAP1 POP DUP1 PUSH0 ADD PUSH0 SWAP1 SLOAD SWAP1 PUSH2 0x100 EXP SWAP1 DIV PUSH20 0xFFFFFFFFFFFFFFFFFFFFFFFFFFFFFFFFFFFFFFFF AND SWAP1 DUP1 PUSH1 0x1 ADD SLOAD SWAP1 DUP1 PUSH1 0x2 ADD SLOAD SWAP1 DUP1 PUSH1 0x3 ADD SLOAD SWAP1 DUP1 PUSH1 0x4 ADD SLOAD SWAP1 DUP1 PUSH1 0x5 ADD PUSH0 SWAP1 SLOAD SWAP1 PUSH2 0x100 EXP SWAP1 DIV PUSH1 0xFF AND SWAP1 POP DUP7 JUMP JUMPDEST PUSH0 PUSH1 0x1 PUSH0 CALLER PUSH20 0xFFFFFFFFFFFFFFFFFFFFFFFFFFFFFFFFFFFFFFFF AND PUSH20 0xFFFFFFFFFFFFFFFFFFFFFFFFFFFFFFFFFFFFFFFF AND DUP2 MSTORE PUSH1 0x20 ADD SWAP1 DUP2 MSTORE PUSH1 0x20 ADD PUSH0 KECCAK256 SWAP1 POP DUP1 PUSH1 0x5 ADD PUSH0 SWAP1 SLOAD SWAP1 PUSH2 0x100 EXP SWAP1 DIV PUSH1 0xFF AND PUSH2 0x30C JUMPI PUSH1 0x40 MLOAD PUSH32 0x8C379A000000000000000000000000000000000000000000000000000000000 DUP2 MSTORE PUSH1 0x4 ADD PUSH2 0x303 SWAP1 PUSH2 0x1378 JUMP JUMPDEST PUSH1 0x40 MLOAD DUP1 SWAP2 SUB SWAP1 REVERT JUMPDEST DUP1 PUSH1 0x3 ADD SLOAD DUP2 PUSH1 0x4 ADD SLOAD PUSH2 0x320 SWAP2 SWAP1 PUSH2 0x13C3 JUMP JUMPDEST TIMESTAMP LT PUSH2 0x361 JUMPI PUSH1 0x40 MLOAD PUSH32 0x8C379A000000000000000000000000000000000000000000000000000000000 DUP2 MSTORE PUSH1 0x4 ADD PUSH2 0x358 SWAP1 PUSH2 0x1440 JUMP JUMPDEST PUSH1 0x40 MLOAD DUP1 SWAP2 SUB SWAP1 REVERT JUMPDEST DUP1 PUSH1 0x1 ADD SLOAD CALLVALUE EQ PUSH2 0x3A7 JUMPI PUSH1 0x40 MLOAD PUSH32 0x8C379A000000000000000000000000000000000000000000000000000000000 DUP2 MSTORE PUSH1 0x4 ADD PUSH2 0x39E SWAP1 PUSH2 0x14A8 JUMP JUMPDEST PUSH1 0x40 MLOAD DUP1 SWAP2 SUB SWAP1 REVERT JUMPDEST CALLER PUSH20 0xFFFFFFFFFFFFFFFFFFFFFFFFFFFFFFFFFFFFFFFF AND PUSH32 0xA21795436A9F6A3B412FD6780F01A49907F2181E76E938496B0A41991D99B61C CALLVALUE PUSH1 0x40 MLOAD PUSH2 0x3ED SWAP2 SWAP1 PUSH2 0x14C6 JUMP JUMPDEST PUSH1 0x40 MLOAD DUP1 SWAP2 SUB SWAP1 LOG2 POP JUMP JUMPDEST PUSH0 PUSH1 0x1 PUSH0 CALLER PUSH20 0xFFFFFFFFFFFFFFFFFFFFFFFFFFFFFFFFFFFFFFFF AND PUSH20 0xFFFFFFFFFFFFFFFFFFFFFFFFFFFFFFFFFFFFFFFF AND DUP2 MSTORE PUSH1 0x20 ADD SWAP1 DUP2 MSTORE PUSH1 0x20 ADD PUSH0 KECCAK256 PUSH1 0x40 MLOAD DUP1 PUSH1 0xC0 ADD PUSH1 0x40 MSTORE SWAP1 DUP2 PUSH0 DUP3 ADD PUSH0 SWAP1 SLOAD SWAP1 PUSH2 0x100 EXP SWAP1 DIV PUSH20 0xFFFFFFFFFFFFFFFFFFFFFFFFFFFFFFFFFFFFFFFF AND PUSH20 0xFFFFFFFFFFFFFFFFFFFFFFFFFFFFFFFFFFFFFFFF AND PUSH20 0xFFFFFFFFFFFFFFFFFFFFFFFFFFFFFFFFFFFFFFFF AND DUP2 MSTORE PUSH1 0x20 ADD PUSH1 0x1 DUP3 ADD SLOAD DUP2 MSTORE PUSH1 0x20 ADD PUSH1 0x2 DUP3 ADD SLOAD DUP2 MSTORE PUSH1 0x20 ADD PUSH1 0x3 DUP3 ADD SLOAD DUP2 MSTORE PUSH1 0x20 ADD PUSH1 0x4 DUP3 ADD SLOAD DUP2 MSTORE PUSH1 0x20 ADD PUSH1 0x5 DUP3 ADD PUSH0 SWAP1 SLOAD SWAP1 PUSH2 0x100 EXP SWAP1 DIV PUSH1 0xFF AND ISZERO ISZERO ISZERO ISZERO DUP2 MSTORE POP POP SWAP1 POP DUP1 PUSH1 0xA0 ADD MLOAD PUSH2 0x51D JUMPI PUSH1 0x40 MLOAD PUSH32 0x8C379A000000000000000000000000000000000000000000000000000000000 DUP2 MSTORE PUSH1 0x4 ADD PUSH2 0x514 SWAP1 PUSH2 0x1378 JUMP JUMPDEST PUSH1 0x40 MLOAD DUP1 SWAP2 SUB SWAP1 REVERT JUMPDEST DUP1 PUSH1 0x60 ADD MLOAD DUP2 PUSH1 0x80 ADD MLOAD PUSH2 0x531 SWAP2 SWAP1 PUSH2 0x13C3 JUMP JUMPDEST TIMESTAMP LT PUSH2 0x572 JUMPI PUSH1 0x40 MLOAD PUSH32 0x8C379A000000000000000000000000000000000000000000000000000000000 DUP2 MSTORE PUSH1 0x4 ADD PUSH2 0x569 SWAP1 PUSH2 0x1440 JUMP JUMPDEST PUSH1 0x40 MLOAD DUP1 SWAP2 SUB SWAP1 REVERT JUMPDEST PUSH1 0x2 PUSH0 CALLER PUSH20 0xFFFFFFFFFFFFFFFFFFFFFFFFFFFFFFFFFFFFFFFF AND PUSH20 0xFFFFFFFFFFFFFFFFFFFFFFFFFFFFFFFFFFFFFFFF AND DUP2 MSTORE PUSH1 0x20 ADD SWAP1 DUP2 MSTORE PUSH1 0x20 ADD PUSH0 KECCAK256 PUSH1 0x40 MLOAD DUP1 PUSH1 0x80 ADD PUSH1 0x40 MSTORE DUP1 DUP7 DUP2 MSTORE PUSH1 0x20 ADD DUP6 DUP6 DUP1 DUP1 PUSH1 0x1F ADD PUSH1 0x20 DUP1 SWAP2 DIV MUL PUSH1 0x20 ADD PUSH1 0x40 MLOAD SWAP1 DUP2 ADD PUSH1 0x40 MSTORE DUP1 SWAP4 SWAP3 SWAP2 SWAP1 DUP2 DUP2 MSTORE PUSH1 0x20 ADD DUP4 DUP4 DUP1 DUP3 DUP5 CALLDATACOPY PUSH0 DUP2 DUP5 ADD MSTORE PUSH1 0x1F NOT PUSH1 0x1F DUP3 ADD AND SWAP1 POP DUP1 DUP4 ADD SWAP3 POP POP POP POP POP POP POP DUP2 MSTORE PUSH1 0x20 ADD PUSH0 ISZERO ISZERO DUP2 MSTORE PUSH1 0x20 ADD PUSH0 ISZERO ISZERO DUP2 MSTORE POP SWAP1 DUP1 PUSH1 0x1 DUP2 SLOAD ADD DUP1 DUP3 SSTORE DUP1 SWAP2 POP POP PUSH1 0x1 SWAP1 SUB SWAP1 PUSH0 MSTORE PUSH1 0x20 PUSH0 KECCAK256 SWAP1 PUSH1 0x3 MUL ADD PUSH0 SWAP1 SWAP2 SWAP1 SWAP2 SWAP1 SWAP2 POP PUSH0 DUP3 ADD MLOAD DUP2 PUSH0 ADD SSTORE PUSH1 0x20 DUP3 ADD MLOAD DUP2 PUSH1 0x1 ADD SWAP1 DUP2 PUSH2 0x65A SWAP2 SWAP1 PUSH2 0x1706 JUMP JUMPDEST POP PUSH1 0x40 DUP3 ADD MLOAD DUP2 PUSH1 0x2 ADD PUSH0 PUSH2 0x100 EXP DUP2 SLOAD DUP2 PUSH1 0xFF MUL NOT AND SWAP1 DUP4 ISZERO ISZERO MUL OR SWAP1 SSTORE POP PUSH1 0x60 DUP3 ADD MLOAD DUP2 PUSH1 0x2 ADD PUSH1 0x1 PUSH2 0x100 EXP DUP2 SLOAD DUP2 PUSH1 0xFF MUL NOT AND SWAP1 DUP4 ISZERO ISZERO MUL OR SWAP1 SSTORE POP POP POP CALLER PUSH20 0xFFFFFFFFFFFFFFFFFFFFFFFFFFFFFFFFFFFFFFFF AND PUSH32 0xED2A4BD7266FCC54EE2F031542EA6E3830C4E013441BFB0C8969898456C7C6DF DUP6 DUP6 DUP6 PUSH1 0x40 MLOAD PUSH2 0x6E6 SWAP4 SWAP3 SWAP2 SWAP1 PUSH2 0x180F JUMP JUMPDEST PUSH1 0x40 MLOAD DUP1 SWAP2 SUB SWAP1 LOG2 POP POP POP POP JUMP JUMPDEST PUSH0 DUP1 SLOAD SWAP1 PUSH2 0x100 EXP SWAP1 DIV PUSH20 0xFFFFFFFFFFFFFFFFFFFFFFFFFFFFFFFFFFFFFFFF AND PUSH20 0xFFFFFFFFFFFFFFFFFFFFFFFFFFFFFFFFFFFFFFFF AND CALLER PUSH20 0xFFFFFFFFFFFFFFFFFFFFFFFFFFFFFFFFFFFFFFFF AND EQ PUSH2 0x781 JUMPI PUSH1 0x40 MLOAD PUSH32 0x8C379A000000000000000000000000000000000000000000000000000000000 DUP2 MSTORE PUSH1 0x4 ADD PUSH2 0x778 SWAP1 PUSH2 0x1889 JUMP JUMPDEST PUSH1 0x40 MLOAD DUP1 SWAP2 SUB SWAP1 REVERT JUMPDEST PUSH0 PUSH1 0x2 PUSH0 DUP5 PUSH20 0xFFFFFFFFFFFFFFFFFFFFFFFFFFFFFFFFFFFFFFFF AND PUSH20 0xFFFFFFFFFFFFFFFFFFFFFFFFFFFFFFFFFFFFFFFF AND DUP2 MSTORE PUSH1 0x20 ADD SWAP1 DUP2 MSTORE PUSH1 0x20 ADD PUSH0 KECCAK256 DUP3 DUP2 SLOAD DUP2 LT PUSH2 0x7D1 JUMPI PUSH2 0x7D0 PUSH2 0x18A7 JUMP JUMPDEST JUMPDEST SWAP1 PUSH0 MSTORE PUSH1 0x20 PUSH0 KECCAK256 SWAP1 PUSH1 0x3 MUL ADD SWAP1 POP DUP1 PUSH1 0x2 ADD PUSH0 SWAP1 SLOAD SWAP1 PUSH2 0x100 EXP SWAP1 DIV PUSH1 0xFF AND PUSH2 0x82F JUMPI PUSH1 0x40 MLOAD PUSH32 0x8C379A000000000000000000000000000000000000000000000000000000000 DUP2 MSTORE PUSH1 0x4 ADD PUSH2 0x826 SWAP1 PUSH2 0x191E JUMP JUMPDEST PUSH1 0x40 MLOAD DUP1 SWAP2 SUB SWAP1 REVERT JUMPDEST DUP1 PUSH1 0x2 ADD PUSH1 0x1 SWAP1 SLOAD SWAP1 PUSH2 0x100 EXP SWAP1 DIV PUSH1 0xFF AND ISZERO PUSH2 0x881 JUMPI PUSH1 0x40 MLOAD PUSH32 0x8C379A000000000000000000000000000000000000000000000000000000000 DUP2 MSTORE PUSH1 0x4 ADD PUSH2 0x878 SWAP1 PUSH2 0x1986 JUMP JUMPDEST PUSH1 0x40 MLOAD DUP1 SWAP2 SUB SWAP1 REVERT JUMPDEST PUSH1 0x1 DUP2 PUSH1 0x2 ADD PUSH1 0x1 PUSH2 0x100 EXP DUP2 SLOAD DUP2 PUSH1 0xFF MUL NOT AND SWAP1 DUP4 ISZERO ISZERO MUL OR SWAP1 SSTORE POP DUP3 PUSH20 0xFFFFFFFFFFFFFFFFFFFFFFFFFFFFFFFFFFFFFFFF AND PUSH2 0x8FC DUP3 PUSH0 ADD SLOAD SWAP1 DUP2 ISZERO MUL SWAP1 PUSH1 0x40 MLOAD PUSH0 PUSH1 0x40 MLOAD DUP1 DUP4 SUB DUP2 DUP6 DUP9 DUP9 CALL SWAP4 POP POP POP POP ISZERO DUP1 ISZERO PUSH2 0x8E4 JUMPI RETURNDATASIZE PUSH0 DUP1 RETURNDATACOPY RETURNDATASIZE PUSH0 REVERT JUMPDEST POP DUP3 PUSH20 0xFFFFFFFFFFFFFFFFFFFFFFFFFFFFFFFFFFFFFFFF AND PUSH32 0xF42CF8C29487B42C009006CBA2A2A0CA0388229F3183E6E957E0A0B163585CB4 DUP3 PUSH0 ADD SLOAD PUSH1 0x40 MLOAD PUSH2 0x92E SWAP2 SWAP1 PUSH2 0x14C6 JUMP JUMPDEST PUSH1 0x40 MLOAD DUP1 SWAP2 SUB SWAP1 LOG2 POP POP POP JUMP JUMPDEST PUSH0 DUP1 SLOAD SWAP1 PUSH2 0x100 EXP SWAP1 DIV PUSH20 0xFFFFFFFFFFFFFFFFFFFFFFFFFFFFFFFFFFFFFFFF AND PUSH20 0xFFFFFFFFFFFFFFFFFFFFFFFFFFFFFFFFFFFFFFFF AND CALLER PUSH20 0xFFFFFFFFFFFFFFFFFFFFFFFFFFFFFFFFFFFFFFFF AND EQ PUSH2 0x9C8 JUMPI PUSH1 0x40 MLOAD PUSH32 0x8C379A000000000000000000000000000000000000000000000000000000000 DUP2 MSTORE PUSH1 0x4 ADD PUSH2 0x9BF SWAP1 PUSH2 0x1889 JUMP JUMPDEST PUSH1 0x40 MLOAD DUP1 SWAP2 SUB SWAP1 REVERT JUMPDEST PUSH1 0x40 MLOAD DUP1 PUSH1 0xC0 ADD PUSH1 0x40 MSTORE DUP1 DUP6 PUSH20 0xFFFFFFFFFFFFFFFFFFFFFFFFFFFFFFFFFFFFFFFF AND DUP2 MSTORE PUSH1 0x20 ADD DUP5 DUP2 MSTORE PUSH1 0x20 ADD DUP4 DUP2 MSTORE PUSH1 0x20 ADD DUP3 DUP2 MSTORE PUSH1 0x20 ADD TIMESTAMP DUP2 MSTORE PUSH1 0x20 ADD PUSH1 0x1 ISZERO ISZERO DUP2 MSTORE POP PUSH1 0x1 PUSH0 DUP7 PUSH20 0xFFFFFFFFFFFFFFFFFFFFFFFFFFFFFFFFFFFFFFFF AND PUSH20 0xFFFFFFFFFFFFFFFFFFFFFFFFFFFFFFFFFFFFFFFF AND DUP2 MSTORE PUSH1 0x20 ADD SWAP1 DUP2 MSTORE PUSH1 0x20 ADD PUSH0 KECCAK256 PUSH0 DUP3 ADD MLOAD DUP2 PUSH0 ADD PUSH0 PUSH2 0x100 EXP DUP2 SLOAD DUP2 PUSH20 0xFFFFFFFFFFFFFFFFFFFFFFFFFFFFFFFFFFFFFFFF MUL NOT AND SWAP1 DUP4 PUSH20 0xFFFFFFFFFFFFFFFFFFFFFFFFFFFFFFFFFFFFFFFF AND MUL OR SWAP1 SSTORE POP PUSH1 0x20 DUP3 ADD MLOAD DUP2 PUSH1 0x1 ADD SSTORE PUSH1 0x40 DUP3 ADD MLOAD DUP2 PUSH1 0x2 ADD SSTORE PUSH1 0x60 DUP3 ADD MLOAD DUP2 PUSH1 0x3 ADD SSTORE PUSH1 0x80 DUP3 ADD MLOAD DUP2 PUSH1 0x4 ADD SSTORE PUSH1 0xA0 DUP3 ADD MLOAD DUP2 PUSH1 0x5 ADD PUSH0 PUSH2 0x100 EXP DUP2 SLOAD DUP2 PUSH1 0xFF MUL NOT AND SWAP1 DUP4 ISZERO ISZERO MUL OR SWAP1 SSTORE POP SWAP1 POP POP DUP4 PUSH20 0xFFFFFFFFFFFFFFFFFFFFFFFFFFFFFFFFFFFFFFFF AND PUSH32 0xFF4ED768C87DD5F8B2C8A57B88E80671A657E55C54ABFDA93A71EBBCD161637D DUP5 DUP5 DUP5 PUSH1 0x40 MLOAD PUSH2 0xB23 SWAP4 SWAP3 SWAP2 SWAP1 PUSH2 0x19A4 JUMP JUMPDEST PUSH1 0x40 MLOAD DUP1 SWAP2 SUB SWAP1 LOG2 POP POP POP POP JUMP JUMPDEST PUSH1 0x2 PUSH1 0x20 MSTORE DUP2 PUSH0 MSTORE PUSH1 0x40 PUSH0 KECCAK256 DUP2 DUP2 SLOAD DUP2 LT PUSH2 0xB4A JUMPI PUSH0 DUP1 REVERT JUMPDEST SWAP1 PUSH0 MSTORE PUSH1 0x20 PUSH0 KECCAK256 SWAP1 PUSH1 0x3 MUL ADD PUSH0 SWAP2 POP SWAP2 POP POP DUP1 PUSH0 ADD SLOAD SWAP1 DUP1 PUSH1 0x1 ADD DUP1 SLOAD PUSH2 0xB70 SWAP1 PUSH2 0x1539 JUMP JUMPDEST DUP1 PUSH1 0x1F ADD PUSH1 0x20 DUP1 SWAP2 DIV MUL PUSH1 0x20 ADD PUSH1 0x40 MLOAD SWAP1 DUP2 ADD PUSH1 0x40 MSTORE DUP1 SWAP3 SWAP2 SWAP1 DUP2 DUP2 MSTORE PUSH1 0x20 ADD DUP3 DUP1 SLOAD PUSH2 0xB9C SWAP1 PUSH2 0x1539 JUMP JUMPDEST DUP1 ISZERO PUSH2 0xBE7 JUMPI DUP1 PUSH1 0x1F LT PUSH2 0xBBE JUMPI PUSH2 0x100 DUP1 DUP4 SLOAD DIV MUL DUP4 MSTORE SWAP2 PUSH1 0x20 ADD SWAP2 PUSH2 0xBE7 JUMP JUMPDEST DUP3 ADD SWAP2 SWAP1 PUSH0 MSTORE PUSH1 0x20 PUSH0 KECCAK256 SWAP1 JUMPDEST DUP2 SLOAD DUP2 MSTORE SWAP1 PUSH1 0x1 ADD SWAP1 PUSH1 0x20 ADD DUP1 DUP4 GT PUSH2 0xBCA JUMPI DUP3 SWAP1 SUB PUSH1 0x1F AND DUP3 ADD SWAP2 JUMPDEST POP POP POP POP POP SWAP1 DUP1 PUSH1 0x2 ADD PUSH0 SWAP1 SLOAD SWAP1 PUSH2 0x100 EXP SWAP1 DIV PUSH1 0xFF AND SWAP1 DUP1 PUSH1 0x2 ADD PUSH1 0x1 SWAP1 SLOAD SWAP1 PUSH2 0x100 EXP SWAP1 DIV PUSH1 0xFF AND SWAP1 POP DUP5 JUMP JUMPDEST PUSH0 DUP1 SLOAD SWAP1 PUSH2 0x100 EXP SWAP1 DIV PUSH20 0xFFFFFFFFFFFFFFFFFFFFFFFFFFFFFFFFFFFFFFFF AND DUP2 JUMP JUMPDEST PUSH0 DUP1 PUSH1 0x1 PUSH0 DUP5 PUSH20 0xFFFFFFFFFFFFFFFFFFFFFFFFFFFFFFFFFFFFFFFF AND PUSH20 0xFFFFFFFFFFFFFFFFFFFFFFFFFFFFFFFFFFFFFFFF AND DUP2 MSTORE PUSH1 0x20 ADD SWAP1 DUP2 MSTORE PUSH1 0x20 ADD PUSH0 KECCAK256 PUSH1 0x40 MLOAD DUP1 PUSH1 0xC0 ADD PUSH1 0x40 MSTORE SWAP1 DUP2 PUSH0 DUP3 ADD PUSH0 SWAP1 SLOAD SWAP1 PUSH2 0x100 EXP SWAP1 DIV PUSH20 0xFFFFFFFFFFFFFFFFFFFFFFFFFFFFFFFFFFFFFFFF AND PUSH20 0xFFFFFFFFFFFFFFFFFFFFFFFFFFFFFFFFFFFFFFFF AND PUSH20 0xFFFFFFFFFFFFFFFFFFFFFFFFFFFFFFFFFFFFFFFF AND DUP2 MSTORE PUSH1 0x20 ADD PUSH1 0x1 DUP3 ADD SLOAD DUP2 MSTORE PUSH1 0x20 ADD PUSH1 0x2 DUP3 ADD SLOAD DUP2 MSTORE PUSH1 0x20 ADD PUSH1 0x3 DUP3 ADD SLOAD DUP2 MSTORE PUSH1 0x20 ADD PUSH1 0x4 DUP3 ADD SLOAD DUP2 MSTORE PUSH1 0x20 ADD PUSH1 0x5 DUP3 ADD PUSH0 SWAP1 SLOAD SWAP1 PUSH2 0x100 EXP SWAP1 DIV PUSH1 0xFF AND ISZERO ISZERO ISZERO ISZERO DUP2 MSTORE POP POP SWAP1 POP DUP1 PUSH1 0xA0 ADD MLOAD DUP1 ISZERO PUSH2 0xD3E JUMPI POP DUP1 PUSH1 0x60 ADD MLOAD DUP2 PUSH1 0x80 ADD MLOAD PUSH2 0xD3B SWAP2 SWAP1 PUSH2 0x13C3 JUMP JUMPDEST TIMESTAMP LT JUMPDEST SWAP2 POP POP SWAP2 SWAP1 POP JUMP JUMPDEST PUSH0 DUP1 SLOAD SWAP1 PUSH2 0x100 EXP SWAP1 DIV PUSH20 0xFFFFFFFFFFFFFFFFFFFFFFFFFFFFFFFFFFFFFFFF AND PUSH20 0xFFFFFFFFFFFFFFFFFFFFFFFFFFFFFFFFFFFFFFFF AND CALLER PUSH20 0xFFFFFFFFFFFFFFFFFFFFFFFFFFFFFFFFFFFFFFFF AND EQ PUSH2 0xDD3 JUMPI PUSH1 0x40 MLOAD PUSH32 0x8C379A000000000000000000000000000000000000000000000000000000000 DUP2 MSTORE PUSH1 0x4 ADD PUSH2 0xDCA SWAP1 PUSH2 0x1889 JUMP JUMPDEST PUSH1 0x40 MLOAD DUP1 SWAP2 SUB SWAP1 REVERT JUMPDEST PUSH1 0x2 PUSH0 DUP4 PUSH20 0xFFFFFFFFFFFFFFFFFFFFFFFFFFFFFFFFFFFFFFFF AND PUSH20 0xFFFFFFFFFFFFFFFFFFFFFFFFFFFFFFFFFFFFFFFF AND DUP2 MSTORE PUSH1 0x20 ADD SWAP1 DUP2 MSTORE PUSH1 0x20 ADD PUSH0 KECCAK256 DUP1 SLOAD SWAP1 POP DUP2 LT PUSH2 0xE55 JUMPI PUSH1 0x40 MLOAD PUSH32 0x8C379A000000000000000000000000000000000000000000000000000000000 DUP2 MSTORE PUSH1 0x4 ADD PUSH2 0xE4C SWAP1 PUSH2 0x1A23 JUMP JUMPDEST PUSH1 0x40 MLOAD DUP1 SWAP2 SUB SWAP1 REVERT JUMPDEST PUSH1 0x1 PUSH1 0x2 PUSH0 DUP5 PUSH20 0xFFFFFFFFFFFFFFFFFFFFFFFFFFFFFFFFFFFFFFFF AND PUSH20 0xFFFFFFFFFFFFFFFFFFFFFFFFFFFFFFFFFFFFFFFF AND DUP2 MSTORE PUSH1 0x20 ADD SWAP1 DUP2 MSTORE PUSH1 0x20 ADD PUSH0 KECCAK256 DUP3 DUP2 SLOAD DUP2 LT PUSH2 0xEA6 JUMPI PUSH2 0xEA5 PUSH2 0x18A7 JUMP JUMPDEST JUMPDEST SWAP1 PUSH0 MSTORE PUSH1 0x20 PUSH0 KECCAK256 SWAP1 PUSH1 0x3 MUL ADD PUSH1 0x2 ADD PUSH0 PUSH2 0x100 EXP DUP2 SLOAD DUP2 PUSH1 0xFF MUL NOT AND SWAP1 DUP4 ISZERO ISZERO MUL OR SWAP1 SSTORE POP DUP2 PUSH20 0xFFFFFFFFFFFFFFFFFFFFFFFFFFFFFFFFFFFFFFFF AND PUSH32 0xB7FA0F30E1EDE3196616147DFDF6C94E47523298677B4F7B0C61027A9F0EBF54 PUSH1 0x40 MLOAD PUSH1 0x40 MLOAD DUP1 SWAP2 SUB SWAP1 LOG2 POP POP JUMP JUMPDEST PUSH0 DUP1 REVERT JUMPDEST PUSH0 DUP1 REVERT JUMPDEST PUSH0 PUSH20 0xFFFFFFFFFFFFFFFFFFFFFFFFFFFFFFFFFFFFFFFF DUP3 AND SWAP1 POP SWAP2 SWAP1 POP JUMP JUMPDEST PUSH0 PUSH2 0xF43 DUP3 PUSH2 0xF1A JUMP JUMPDEST SWAP1 POP SWAP2 SWAP1 POP JUMP JUMPDEST PUSH2 0xF53 DUP2 PUSH2 0xF39 JUMP JUMPDEST DUP2 EQ PUSH2 0xF5D JUMPI PUSH0 DUP1 REVERT JUMPDEST POP JUMP JUMPDEST PUSH0 DUP2 CALLDATALOAD SWAP1 POP PUSH2 0xF6E DUP2 PUSH2 0xF4A JUMP JUMPDEST SWAP3 SWAP2 POP POP JUMP JUMPDEST PUSH0 PUSH1 0x20 DUP3 DUP5 SUB SLT ISZERO PUSH2 0xF89 JUMPI PUSH2 0xF88 PUSH2 0xF12 JUMP JUMPDEST JUMPDEST PUSH0 PUSH2 0xF96 DUP5 DUP3 DUP6 ADD PUSH2 0xF60 JUMP JUMPDEST SWAP2 POP POP SWAP3 SWAP2 POP POP JUMP JUMPDEST PUSH2 0xFA8 DUP2 PUSH2 0xF39 JUMP JUMPDEST DUP3 MSTORE POP POP JUMP JUMPDEST PUSH0 DUP2 SWAP1 POP SWAP2 SWAP1 POP JUMP JUMPDEST PUSH2 0xFC0 DUP2 PUSH2 0xFAE JUMP JUMPDEST DUP3 MSTORE POP POP JUMP JUMPDEST PUSH0 DUP2 ISZERO ISZERO SWAP1 POP SWAP2 SWAP1 POP JUMP JUMPDEST PUSH2 0xFDA DUP2 PUSH2 0xFC6 JUMP JUMPDEST DUP3 MSTORE POP POP JUMP JUMPDEST PUSH0 PUSH1 0xC0 DUP3 ADD SWAP1 POP PUSH2 0xFF3 PUSH0 DUP4 ADD DUP10 PUSH2 0xF9F JUMP JUMPDEST PUSH2 0x1000 PUSH1 0x20 DUP4 ADD DUP9 PUSH2 0xFB7 JUMP JUMPDEST PUSH2 0x100D PUSH1 0x40 DUP4 ADD DUP8 PUSH2 0xFB7 JUMP JUMPDEST PUSH2 0x101A PUSH1 0x60 DUP4 ADD DUP7 PUSH2 0xFB7 JUMP JUMPDEST PUSH2 0x1027 PUSH1 0x80 DUP4 ADD DUP6 PUSH2 0xFB7 JUMP JUMPDEST PUSH2 0x1034 PUSH1 0xA0 DUP4 ADD DUP5 PUSH2 0xFD1 JUMP JUMPDEST SWAP8 SWAP7 POP POP POP POP POP POP POP JUMP JUMPDEST PUSH2 0x1048 DUP2 PUSH2 0xFAE JUMP JUMPDEST DUP2 EQ PUSH2 0x1052 JUMPI PUSH0 DUP1 REVERT JUMPDEST POP JUMP JUMPDEST PUSH0 DUP2 CALLDATALOAD SWAP1 POP PUSH2 0x1063 DUP2 PUSH2 0x103F JUMP JUMPDEST SWAP3 SWAP2 POP POP JUMP JUMPDEST PUSH0 DUP1 REVERT JUMPDEST PUSH0 DUP1 REVERT JUMPDEST PUSH0 DUP1 REVERT JUMPDEST PUSH0 DUP1 DUP4 PUSH1 0x1F DUP5 ADD SLT PUSH2 0x108A JUMPI PUSH2 0x1089 PUSH2 0x1069 JUMP JUMPDEST JUMPDEST DUP3 CALLDATALOAD SWAP1 POP PUSH8 0xFFFFFFFFFFFFFFFF DUP2 GT ISZERO PUSH2 0x10A7 JUMPI PUSH2 0x10A6 PUSH2 0x106D JUMP JUMPDEST JUMPDEST PUSH1 0x20 DUP4 ADD SWAP2 POP DUP4 PUSH1 0x1 DUP3 MUL DUP4 ADD GT ISZERO PUSH2 0x10C3 JUMPI PUSH2 0x10C2 PUSH2 0x1071 JUMP JUMPDEST JUMPDEST SWAP3 POP SWAP3 SWAP1 POP JUMP JUMPDEST PUSH0 DUP1 PUSH0 PUSH1 0x40 DUP5 DUP7 SUB SLT ISZERO PUSH2 0x10E1 JUMPI PUSH2 0x10E0 PUSH2 0xF12 JUMP JUMPDEST JUMPDEST PUSH0 PUSH2 0x10EE DUP7 DUP3 DUP8 ADD PUSH2 0x1055 JUMP JUMPDEST SWAP4 POP POP PUSH1 0x20 DUP5 ADD CALLDATALOAD PUSH8 0xFFFFFFFFFFFFFFFF DUP2 GT ISZERO PUSH2 0x110F JUMPI PUSH2 0x110E PUSH2 0xF16 JUMP JUMPDEST JUMPDEST PUSH2 0x111B DUP7 DUP3 DUP8 ADD PUSH2 0x1075 JUMP JUMPDEST SWAP3 POP SWAP3 POP POP SWAP3 POP SWAP3 POP SWAP3 JUMP JUMPDEST PUSH0 PUSH2 0x1131 DUP3 PUSH2 0xF1A JUMP JUMPDEST SWAP1 POP SWAP2 SWAP1 POP JUMP JUMPDEST PUSH2 0x1141 DUP2 PUSH2 0x1127 JUMP JUMPDEST DUP2 EQ PUSH2 0x114B JUMPI PUSH0 DUP1 REVERT JUMPDEST POP JUMP JUMPDEST PUSH0 DUP2 CALLDATALOAD SWAP1 POP PUSH2 0x115C DUP2 PUSH2 0x1138 JUMP JUMPDEST SWAP3 SWAP2 POP POP JUMP JUMPDEST PUSH0 DUP1 PUSH1 0x40 DUP4 DUP6 SUB SLT ISZERO PUSH2 0x1178 JUMPI PUSH2 0x1177 PUSH2 0xF12 JUMP JUMPDEST JUMPDEST PUSH0 PUSH2 0x1185 DUP6 DUP3 DUP7 ADD PUSH2 0x114E JUMP JUMPDEST SWAP3 POP POP PUSH1 0x20 PUSH2 0x1196 DUP6 DUP3 DUP7 ADD PUSH2 0x1055 JUMP JUMPDEST SWAP2 POP POP SWAP3 POP SWAP3 SWAP1 POP JUMP JUMPDEST PUSH0 DUP1 PUSH0 DUP1 PUSH1 0x80 DUP6 DUP8 SUB SLT ISZERO PUSH2 0x11B8 JUMPI PUSH2 0x11B7 PUSH2 0xF12 JUMP JUMPDEST JUMPDEST PUSH0 PUSH2 0x11C5 DUP8 DUP3 DUP9 ADD PUSH2 0xF60 JUMP JUMPDEST SWAP5 POP POP PUSH1 0x20 PUSH2 0x11D6 DUP8 DUP3 DUP9 ADD PUSH2 0x1055 JUMP JUMPDEST SWAP4 POP POP PUSH1 0x40 PUSH2 0x11E7 DUP8 DUP3 DUP9 ADD PUSH2 0x1055 JUMP JUMPDEST SWAP3 POP POP PUSH1 0x60 PUSH2 0x11F8 DUP8 DUP3 DUP9 ADD PUSH2 0x1055 JUMP JUMPDEST SWAP2 POP POP SWAP3 SWAP6 SWAP2 SWAP5 POP SWAP3 POP JUMP JUMPDEST PUSH0 DUP1 PUSH1 0x40 DUP4 DUP6 SUB SLT ISZERO PUSH2 0x121A JUMPI PUSH2 0x1219 PUSH2 0xF12 JUMP JUMPDEST JUMPDEST PUSH0 PUSH2 0x1227 DUP6 DUP3 DUP7 ADD PUSH2 0xF60 JUMP JUMPDEST SWAP3 POP POP PUSH1 0x20 PUSH2 0x1238 DUP6 DUP3 DUP7 ADD PUSH2 0x1055 JUMP JUMPDEST SWAP2 POP POP SWAP3 POP SWAP3 SWAP1 POP JUMP JUMPDEST PUSH0 DUP2 MLOAD SWAP1 POP SWAP2 SWAP1 POP JUMP JUMPDEST PUSH0 DUP3 DUP3 MSTORE PUSH1 0x20 DUP3 ADD SWAP1 POP SWAP3 SWAP2 POP POP JUMP JUMPDEST DUP3 DUP2 DUP4 MCOPY PUSH0 DUP4 DUP4 ADD MSTORE POP POP POP JUMP JUMPDEST PUSH0 PUSH1 0x1F NOT PUSH1 0x1F DUP4 ADD AND SWAP1 POP SWAP2 SWAP1 POP JUMP JUMPDEST PUSH0 PUSH2 0x1284 DUP3 PUSH2 0x1242 JUMP JUMPDEST PUSH2 0x128E DUP2 DUP6 PUSH2 0x124C JUMP JUMPDEST SWAP4 POP PUSH2 0x129E DUP2 DUP6 PUSH1 0x20 DUP7 ADD PUSH2 0x125C JUMP JUMPDEST PUSH2 0x12A7 DUP2 PUSH2 0x126A JUMP JUMPDEST DUP5 ADD SWAP2 POP POP SWAP3 SWAP2 POP POP JUMP JUMPDEST PUSH0 PUSH1 0x80 DUP3 ADD SWAP1 POP PUSH2 0x12C5 PUSH0 DUP4 ADD DUP8 PUSH2 0xFB7 JUMP JUMPDEST DUP2 DUP2 SUB PUSH1 0x20 DUP4 ADD MSTORE PUSH2 0x12D7 DUP2 DUP7 PUSH2 0x127A JUMP JUMPDEST SWAP1 POP PUSH2 0x12E6 PUSH1 0x40 DUP4 ADD DUP6 PUSH2 0xFD1 JUMP JUMPDEST PUSH2 0x12F3 PUSH1 0x60 DUP4 ADD DUP5 PUSH2 0xFD1 JUMP JUMPDEST SWAP6 SWAP5 POP POP POP POP POP JUMP JUMPDEST PUSH0 PUSH1 0x20 DUP3 ADD SWAP1 POP PUSH2 0x130F PUSH0 DUP4 ADD DUP5 PUSH2 0xF9F JUMP JUMPDEST SWAP3 SWAP2 POP POP JUMP JUMPDEST PUSH0 PUSH1 0x20 DUP3 ADD SWAP1 POP PUSH2 0x1328 PUSH0 DUP4 ADD DUP5 PUSH2 0xFD1 JUMP JUMPDEST SWAP3 SWAP2 POP POP JUMP JUMPDEST PUSH32 0x506F6C69637920696E6163746976650000000000000000000000000000000000 PUSH0 DUP3 ADD MSTORE POP JUMP JUMPDEST PUSH0 PUSH2 0x1362 PUSH1 0xF DUP4 PUSH2 0x124C JUMP JUMPDEST SWAP2 POP PUSH2 0x136D DUP3 PUSH2 0x132E JUMP JUMPDEST PUSH1 0x20 DUP3 ADD SWAP1 POP SWAP2 SWAP1 POP JUMP JUMPDEST PUSH0 PUSH1 0x20 DUP3 ADD SWAP1 POP DUP2 DUP2 SUB PUSH0 DUP4 ADD MSTORE PUSH2 0x138F DUP2 PUSH2 0x1356 JUMP JUMPDEST SWAP1 POP SWAP2 SWAP1 POP JUMP JUMPDEST PUSH32 0x4E487B7100000000000000000000000000000000000000000000000000000000 PUSH0 MSTORE PUSH1 0x11 PUSH1 0x4 MSTORE PUSH1 0x24 PUSH0 REVERT JUMPDEST PUSH0 PUSH2 0x13CD DUP3 PUSH2 0xFAE JUMP JUMPDEST SWAP2 POP PUSH2 0x13D8 DUP4 PUSH2 0xFAE JUMP JUMPDEST SWAP3 POP DUP3 DUP3 ADD SWAP1 POP DUP1 DUP3 GT ISZERO PUSH2 0x13F0 JUMPI PUSH2 0x13EF PUSH2 0x1396 JUMP JUMPDEST JUMPDEST SWAP3 SWAP2 POP POP JUMP JUMPDEST PUSH32 0x506F6C6963792065787069726564000000000000000000000000000000000000 PUSH0 DUP3 ADD MSTORE POP JUMP JUMPDEST PUSH0 PUSH2 0x142A PUSH1 0xE DUP4 PUSH2 0x124C JUMP JUMPDEST SWAP2 POP PUSH2 0x1435 DUP3 PUSH2 0x13F6 JUMP JUMPDEST PUSH1 0x20 DUP3 ADD SWAP1 POP SWAP2 SWAP1 POP JUMP JUMPDEST PUSH0 PUSH1 0x20 DUP3 ADD SWAP1 POP DUP2 DUP2 SUB PUSH0 DUP4 ADD MSTORE PUSH2 0x1457 DUP2 PUSH2 0x141E JUMP JUMPDEST SWAP1 POP SWAP2 SWAP1 POP JUMP JUMPDEST PUSH32 0x496E636F7272656374207072656D69756D000000000000000000000000000000 PUSH0 DUP3 ADD MSTORE POP JUMP JUMPDEST PUSH0 PUSH2 0x1492 PUSH1 0x11 DUP4 PUSH2 0x124C JUMP JUMPDEST SWAP2 POP PUSH2 0x149D DUP3 PUSH2 0x145E JUMP JUMPDEST PUSH1 0x20 DUP3 ADD SWAP1 POP SWAP2 SWAP1 POP JUMP JUMPDEST PUSH0 PUSH1 0x20 DUP3 ADD SWAP1 POP DUP2 DUP2 SUB PUSH0 DUP4 ADD MSTORE PUSH2 0x14BF DUP2 PUSH2 0x1486 JUMP JUMPDEST SWAP1 POP SWAP2 SWAP1 POP JUMP JUMPDEST PUSH0 PUSH1 0x20 DUP3 ADD SWAP1 POP PUSH2 0x14D9 PUSH0 DUP4 ADD DUP5 PUSH2 0xFB7 JUMP JUMPDEST SWAP3 SWAP2 POP POP JUMP JUMPDEST PUSH32 0x4E487B7100000000000000000000000000000000000000000000000000000000 PUSH0 MSTORE PUSH1 0x41 PUSH1 0x4 MSTORE PUSH1 0x24 PUSH0 REVERT JUMPDEST PUSH32 0x4E487B7100000000000000000000000000000000000000000000000000000000 PUSH0 MSTORE PUSH1 0x22 PUSH1 0x4 MSTORE PUSH1 0x24 PUSH0 REVERT JUMPDEST PUSH0 PUSH1 0x2 DUP3 DIV SWAP1 POP PUSH1 0x1 DUP3 AND DUP1 PUSH2 0x1550 JUMPI PUSH1 0x7F DUP3 AND SWAP2 POP JUMPDEST PUSH1 0x20 DUP3 LT DUP2 SUB PUSH2 0x1563 JUMPI PUSH2 0x1562 PUSH2 0x150C JUMP JUMPDEST JUMPDEST POP SWAP2 SWAP1 POP JUMP JUMPDEST PUSH0 DUP2 SWAP1 POP DUP2 PUSH0 MSTORE PUSH1 0x20 PUSH0 KECCAK256 SWAP1 POP SWAP2 SWAP1 POP JUMP JUMPDEST PUSH0 PUSH1 0x20 PUSH1 0x1F DUP4 ADD DIV SWAP1 POP SWAP2 SWAP1 POP JUMP JUMPDEST PUSH0 DUP3 DUP3 SHL SWAP1 POP SWAP3 SWAP2 POP POP JUMP JUMPDEST PUSH0 PUSH1 0x8 DUP4 MUL PUSH2 0x15C5 PUSH32 0xFFFFFFFFFFFFFFFFFFFFFFFFFFFFFFFFFFFFFFFFFFFFFFFFFFFFFFFFFFFFFFFF DUP3 PUSH2 0x158A JUMP JUMPDEST PUSH2 0x15CF DUP7 DUP4 PUSH2 0x158A JUMP JUMPDEST SWAP6 POP DUP1 NOT DUP5 AND SWAP4 POP DUP1 DUP7 AND DUP5 OR SWAP3 POP POP POP SWAP4 SWAP3 POP POP POP JUMP JUMPDEST PUSH0 DUP2 SWAP1 POP SWAP2 SWAP1 POP JUMP JUMPDEST PUSH0 PUSH2 0x160A PUSH2 0x1605 PUSH2 0x1600 DUP5 PUSH2 0xFAE JUMP JUMPDEST PUSH2 0x15E7 JUMP JUMPDEST PUSH2 0xFAE JUMP JUMPDEST SWAP1 POP SWAP2 SWAP1 POP JUMP JUMPDEST PUSH0 DUP2 SWAP1 POP SWAP2 SWAP1 POP JUMP JUMPDEST PUSH2 0x1623 DUP4 PUSH2 0x15F0 JUMP JUMPDEST PUSH2 0x1637 PUSH2 0x162F DUP3 PUSH2 0x1611 JUMP JUMPDEST DUP5 DUP5 SLOAD PUSH2 0x1596 JUMP JUMPDEST DUP3 SSTORE POP POP POP POP JUMP JUMPDEST PUSH0 SWAP1 JUMP JUMPDEST PUSH2 0x164B PUSH2 0x163F JUMP JUMPDEST PUSH2 0x1656 DUP2 DUP5 DUP5 PUSH2 0x161A JUMP JUMPDEST POP POP POP JUMP JUMPDEST JUMPDEST DUP2 DUP2 LT ISZERO PUSH2 0x1679 JUMPI PUSH2 0x166E PUSH0 DUP3 PUSH2 0x1643 JUMP JUMPDEST PUSH1 0x1 DUP2 ADD SWAP1 POP PUSH2 0x165C JUMP JUMPDEST POP POP JUMP JUMPDEST PUSH1 0x1F DUP3 GT ISZERO PUSH2 0x16BE JUMPI PUSH2 0x168F DUP2 PUSH2 0x1569 JUMP JUMPDEST PUSH2 0x1698 DUP5 PUSH2 0x157B JUMP JUMPDEST DUP2 ADD PUSH1 0x20 DUP6 LT ISZERO PUSH2 0x16A7 JUMPI DUP2 SWAP1 POP JUMPDEST PUSH2 0x16BB PUSH2 0x16B3 DUP6 PUSH2 0x157B JUMP JUMPDEST DUP4 ADD DUP3 PUSH2 0x165B JUMP JUMPDEST POP POP JUMPDEST POP POP POP JUMP JUMPDEST PUSH0 DUP3 DUP3 SHR SWAP1 POP SWAP3 SWAP2 POP POP JUMP JUMPDEST PUSH0 PUSH2 0x16DE PUSH0 NOT DUP5 PUSH1 0x8 MUL PUSH2 0x16C3 JUMP JUMPDEST NOT DUP1 DUP4 AND SWAP2 POP POP SWAP3 SWAP2 POP POP JUMP JUMPDEST PUSH0 PUSH2 0x16F6 DUP4 DUP4 PUSH2 0x16CF JUMP JUMPDEST SWAP2 POP DUP3 PUSH1 0x2 MUL DUP3 OR SWAP1 POP SWAP3 SWAP2 POP POP JUMP JUMPDEST PUSH2 0x170F DUP3 PUSH2 0x1242 JUMP JUMPDEST PUSH8 0xFFFFFFFFFFFFFFFF DUP2 GT ISZERO PUSH2 0x1728 JUMPI PUSH2 0x1727 PUSH2 0x14DF JUMP JUMPDEST JUMPDEST PUSH2 0x1732 DUP3 SLOAD PUSH2 0x1539 JUMP JUMPDEST PUSH2 0x173D DUP3 DUP3 DUP6 PUSH2 0x167D JUMP JUMPDEST PUSH0 PUSH1 0x20 SWAP1 POP PUSH1 0x1F DUP4 GT PUSH1 0x1 DUP2 EQ PUSH2 0x176E JUMPI PUSH0 DUP5 ISZERO PUSH2 0x175C JUMPI DUP3 DUP8 ADD MLOAD SWAP1 POP JUMPDEST PUSH2 0x1766 DUP6 DUP3 PUSH2 0x16EB JUMP JUMPDEST DUP7 SSTORE POP PUSH2 0x17CD JUMP JUMPDEST PUSH1 0x1F NOT DUP5 AND PUSH2 0x177C DUP7 PUSH2 0x1569 JUMP JUMPDEST PUSH0 JUMPDEST DUP3 DUP2 LT ISZERO PUSH2 0x17A3 JUMPI DUP5 DUP10 ADD MLOAD DUP3 SSTORE PUSH1 0x1 DUP3 ADD SWAP2 POP PUSH1 0x20 DUP6 ADD SWAP5 POP PUSH1 0x20 DUP2 ADD SWAP1 POP PUSH2 0x177E JUMP JUMPDEST DUP7 DUP4 LT ISZERO PUSH2 0x17C0 JUMPI DUP5 DUP10 ADD MLOAD PUSH2 0x17BC PUSH1 0x1F DUP10 AND DUP3 PUSH2 0x16CF JUMP JUMPDEST DUP4 SSTORE POP JUMPDEST PUSH1 0x1 PUSH1 0x2 DUP9 MUL ADD DUP9 SSTORE POP POP POP JUMPDEST POP POP POP POP POP POP JUMP JUMPDEST DUP3 DUP2 DUP4 CALLDATACOPY PUSH0 DUP4 DUP4 ADD MSTORE POP POP POP JUMP JUMPDEST PUSH0 PUSH2 0x17EE DUP4 DUP6 PUSH2 0x124C JUMP JUMPDEST SWAP4 POP PUSH2 0x17FB DUP4 DUP6 DUP5 PUSH2 0x17D5 JUMP JUMPDEST PUSH2 0x1804 DUP4 PUSH2 0x126A JUMP JUMPDEST DUP5 ADD SWAP1 POP SWAP4 SWAP3 POP POP POP JUMP JUMPDEST PUSH0 PUSH1 0x40 DUP3 ADD SWAP1 POP PUSH2 0x1822 PUSH0 DUP4 ADD DUP7 PUSH2 0xFB7 JUMP JUMPDEST DUP2 DUP2 SUB PUSH1 0x20 DUP4 ADD MSTORE PUSH2 0x1835 DUP2 DUP5 DUP7 PUSH2 0x17E3 JUMP JUMPDEST SWAP1 POP SWAP5 SWAP4 POP POP POP POP JUMP JUMPDEST PUSH32 0x4E6F7420617574686F72697A6564000000000000000000000000000000000000 PUSH0 DUP3 ADD MSTORE POP JUMP JUMPDEST PUSH0 PUSH2 0x1873 PUSH1 0xE DUP4 PUSH2 0x124C JUMP JUMPDEST SWAP2 POP PUSH2 0x187E DUP3 PUSH2 0x183F JUMP JUMPDEST PUSH1 0x20 DUP3 ADD SWAP1 POP SWAP2 SWAP1 POP JUMP JUMPDEST PUSH0 PUSH1 0x20 DUP3 ADD SWAP1 POP DUP2 DUP2 SUB PUSH0 DUP4 ADD MSTORE PUSH2 0x18A0 DUP2 PUSH2 0x1867 JUMP JUMPDEST SWAP1 POP SWAP2 SWAP1 POP JUMP JUMPDEST PUSH32 0x4E487B7100000000000000000000000000000000000000000000000000000000 PUSH0 MSTORE PUSH1 0x32 PUSH1 0x4 MSTORE PUSH1 0x24 PUSH0 REVERT JUMPDEST PUSH32 0x436C61696D206E6F7420617070726F7665640000000000000000000000000000 PUSH0 DUP3 ADD MSTORE POP JUMP JUMPDEST PUSH0 PUSH2 0x1908 PUSH1 0x12 DUP4 PUSH2 0x124C JUMP JUMPDEST SWAP2 POP PUSH2 0x1913 DUP3 PUSH2 0x18D4 JUMP JUMPDEST PUSH1 0x20 DUP3 ADD SWAP1 POP SWAP2 SWAP1 POP JUMP JUMPDEST PUSH0 PUSH1 0x20 DUP3 ADD SWAP1 POP DUP2 DUP2 SUB PUSH0 DUP4 ADD MSTORE PUSH2 0x1935 DUP2 PUSH2 0x18FC JUMP JUMPDEST SWAP1 POP SWAP2 SWAP1 POP JUMP JUMPDEST PUSH32 0x436C61696D20616C726561647920706169640000000000000000000000000000 PUSH0 DUP3 ADD MSTORE POP JUMP JUMPDEST PUSH0 PUSH2 0x1970 PUSH1 0x12 DUP4 PUSH2 0x124C JUMP JUMPDEST SWAP2 POP PUSH2 0x197B DUP3 PUSH2 0x193C JUMP JUMPDEST PUSH1 0x20 DUP3 ADD SWAP1 POP SWAP2 SWAP1 POP JUMP JUMPDEST PUSH0 PUSH1 0x20 DUP3 ADD SWAP1 POP DUP2 DUP2 SUB PUSH0 DUP4 ADD MSTORE PUSH2 0x199D DUP2 PUSH2 0x1964 JUMP JUMPDEST SWAP1 POP SWAP2 SWAP1 POP JUMP JUMPDEST PUSH0 PUSH1 0x60 DUP3 ADD SWAP1 POP PUSH2 0x19B7 PUSH0 DUP4 ADD DUP7 PUSH2 0xFB7 JUMP JUMPDEST PUSH2 0x19C4 PUSH1 0x20 DUP4 ADD DUP6 PUSH2 0xFB7 JUMP JUMPDEST PUSH2 0x19D1 PUSH1 0x40 DUP4 ADD DUP5 PUSH2 0xFB7 JUMP JUMPDEST SWAP5 SWAP4 POP POP POP POP JUMP JUMPDEST PUSH32 0x496E76616C696420636C61696D20696E64657800000000000000000000000000 PUSH0 DUP3 ADD MSTORE POP JUMP JUMPDEST PUSH0 PUSH2 0x1A0D PUSH1 0x13 DUP4 PUSH2 0x124C JUMP JUMPDEST SWAP2 POP PUSH2 0x1A18 DUP3 PUSH2 0x19D9 JUMP JUMPDEST PUSH1 0x20 DUP3 ADD SWAP1 POP SWAP2 SWAP1 POP JUMP JUMPDEST PUSH0 PUSH1 0x20 DUP3 ADD SWAP1 POP DUP2 DUP2 SUB PUSH0 DUP4 ADD MSTORE PUSH2 0x1A3A DUP2 PUSH2 0x1A01 JUMP JUMPDEST SWAP1 POP SWAP2 SWAP1 POP JUMP INVALID LOG2 PUSH5 0x6970667358 0x22 SLT KECCAK256 0xB9 PUSH3 0xACAAB7 0xCA GAS CODECOPY 0xB6 ISZERO 0xEE PUSH26 0x918064C620D373AE91AA1EABB2EA8F10AB571B3464736F6C6343 STOP ADDMOD BYTE STOP CALLER "
				},
				"gasEstimates": {
					"creation": {
						"codeDepositCost": "1355000",
						"executionCost": "25673",
						"totalCost": "1380673"
					},
					"external": {
						"approveClaim(address,uint256)": "32803",
						"claims(address,uint256)": "infinite",
						"insurer()": "2549",
						"isPolicyActive(address)": "infinite",
						"issuePolicy(address,uint256,uint256,uint256)": "infinite",
						"payClaim(address,uint256)": "infinite",
						"payPremium()": "infinite",
						"policies(address)": "infinite",
						"submitClaim(uint256,string)": "infinite"
					}
				},
				"methodIdentifiers": {
					"approveClaim(address,uint256)": "f2ad7908",
					"claims(address,uint256)": "ab541a85",
					"insurer()": "dbc837c5",
					"isPolicyActive(address)": "e52223bb",
					"issuePolicy(address,uint256,uint256,uint256)": "a0b08cfa",
					"payClaim(address,uint256)": "50802e3f",
					"payPremium()": "29c08ba2",
					"policies(address)": "20e98698",
					"submitClaim(uint256,string)": "45b46525"
				}
			},
			"storageLayout": {
				"storage": [
					{
						"astId": 3,
						"contract": "contracts/insurence_sc.sol:InsuranceContract",
						"label": "insurer",
						"offset": 0,
						"slot": "0",
						"type": "t_address"
					},
					{
						"astId": 30,
						"contract": "contracts/insurence_sc.sol:InsuranceContract",
						"label": "policies",
						"offset": 0,
						"slot": "1",
						"type": "t_mapping(t_address,t_struct(Policy)16_storage)"
					},
					{
						"astId": 36,
						"contract": "contracts/insurence_sc.sol:InsuranceContract",
						"label": "claims",
						"offset": 0,
						"slot": "2",
						"type": "t_mapping(t_address,t_array(t_struct(Claim)25_storage)dyn_storage)"
					}
				],
				"types": {
					"t_address": {
						"encoding": "inplace",
						"label": "address",
						"numberOfBytes": "20"
					},
					"t_array(t_struct(Claim)25_storage)dyn_storage": {
						"base": "t_struct(Claim)25_storage",
						"encoding": "dynamic_array",
						"label": "struct InsuranceContract.Claim[]",
						"numberOfBytes": "32"
					},
					"t_bool": {
						"encoding": "inplace",
						"label": "bool",
						"numberOfBytes": "1"
					},
					"t_mapping(t_address,t_array(t_struct(Claim)25_storage)dyn_storage)": {
						"encoding": "mapping",
						"key": "t_address",
						"label": "mapping(address => struct InsuranceContract.Claim[])",
						"numberOfBytes": "32",
						"value": "t_array(t_struct(Claim)25_storage)dyn_storage"
					},
					"t_mapping(t_address,t_struct(Policy)16_storage)": {
						"encoding": "mapping",
						"key": "t_address",
						"label": "mapping(address => struct InsuranceContract.Policy)",
						"numberOfBytes": "32",
						"value": "t_struct(Policy)16_storage"
					},
					"t_string_storage": {
						"encoding": "bytes",
						"label": "string",
						"numberOfBytes": "32"
					},
					"t_struct(Claim)25_storage": {
						"encoding": "inplace",
						"label": "struct InsuranceContract.Claim",
						"members": [
							{
								"astId": 18,
								"contract": "contracts/insurence_sc.sol:InsuranceContract",
								"label": "amount",
								"offset": 0,
								"slot": "0",
								"type": "t_uint256"
							},
							{
								"astId": 20,
								"contract": "contracts/insurence_sc.sol:InsuranceContract",
								"label": "reason",
								"offset": 0,
								"slot": "1",
								"type": "t_string_storage"
							},
							{
								"astId": 22,
								"contract": "contracts/insurence_sc.sol:InsuranceContract",
								"label": "approved",
								"offset": 0,
								"slot": "2",
								"type": "t_bool"
							},
							{
								"astId": 24,
								"contract": "contracts/insurence_sc.sol:InsuranceContract",
								"label": "paid",
								"offset": 1,
								"slot": "2",
								"type": "t_bool"
							}
						],
						"numberOfBytes": "96"
					},
					"t_struct(Policy)16_storage": {
						"encoding": "inplace",
						"label": "struct InsuranceContract.Policy",
						"members": [
							{
								"astId": 5,
								"contract": "contracts/insurence_sc.sol:InsuranceContract",
								"label": "policyholder",
								"offset": 0,
								"slot": "0",
								"type": "t_address"
							},
							{
								"astId": 7,
								"contract": "contracts/insurence_sc.sol:InsuranceContract",
								"label": "premium",
								"offset": 0,
								"slot": "1",
								"type": "t_uint256"
							},
							{
								"astId": 9,
								"contract": "contracts/insurence_sc.sol:InsuranceContract",
								"label": "coverage",
								"offset": 0,
								"slot": "2",
								"type": "t_uint256"
							},
							{
								"astId": 11,
								"contract": "contracts/insurence_sc.sol:InsuranceContract",
								"label": "duration",
								"offset": 0,
								"slot": "3",
								"type": "t_uint256"
							},
							{
								"astId": 13,
								"contract": "contracts/insurence_sc.sol:InsuranceContract",
								"label": "startTime",
								"offset": 0,
								"slot": "4",
								"type": "t_uint256"
							},
							{
								"astId": 15,
								"contract": "contracts/insurence_sc.sol:InsuranceContract",
								"label": "active",
								"offset": 0,
								"slot": "5",
								"type": "t_bool"
							}
						],
						"numberOfBytes": "192"
					},
					"t_uint256": {
						"encoding": "inplace",
						"label": "uint256",
						"numberOfBytes": "32"
					}
				}
			},
			"userdoc": {
				"kind": "user",
				"methods": {},
				"version": 1
			}
		}
	}
}